:020000040000FA
:06000000ACEF15F0120048
:020006001200E6
:0800080007EF00F01200DACF4F
:10001000E4FFE2CFDAFFE9CFE4FFEACFE4FFE65204
:100020009EAA1BD09E9AAB50040B03E1AB50020B6F
:1000300005E0AB9EAB8E9E9A8B960FD00001050E0D
:10004000856F00018751EA6A740FE96E000EEA229B
:10005000AECFEFFF872B0F0E87179EA028D09E9064
:10006000FC0ECF6E180ECE6E0001622B000E6323C5
:10007000010E0E012E6F2F6B0001AD2B000EAE2373
:10008000AF2BB0230A0EAD5D000EAE5906E3AD6B8B
:10009000AE6B010E0E01326F336B0001E80EAF5DE7
:1000A000030EB05904E3AF6BB06B350EAC6FE55285
:1000B000E5CFEAFFE5CFE9FFE5CFDAFF1100D9CFC1
:1000C000E6FFE1CFD9FF100EE126DF6A010EDB6A01
:1000D000020EDB6AD950030FE96EDACFEAFFEE6A4F
:1000E000EE6A050EDB6A060EDB6A070EDB6A080E97
:1000F000DB6A090EDB6A0A0EDB6A0B0EDB6A0C0E8A
:10010000DB6A0D0EDB6A0E0EDB6A0F0EDB6AE0ECBB
:100110000AF094EC0AF091EC14F0CFEC13F067ECD9
:1001200011F0F28CF28ECD80A00EE66E6FEC15F021
:10013000E5521E0EE66E6FEC15F0E5528C0EE66E83
:10014000000EE66EE66AA0EC11F0E552E552E552CB
:10015000A3EC0AF060EC09F0350E0E01295D5BE1BD
:10016000296BFF0E0E011515146E156A14C008F0E8
:1001700015C009F0C1EC0EF00B0E07C0DBFF0C0E32
:1001800008C0DBFF0D0E09C0DBFF0E0E0AC0DBFF4F
:10019000146A156AC80E166E420E176E0B0EDBCF70
:1001A00018F00C0EDBCF19F00D0EDBCF1AF00E0E8F
:1001B000DBCF1BF018C00CF019C00DF01AC00EF008
:1001C0001BC00FF014C007F015C008F016C009F0EE
:1001D00017C00AF0D6EC0EF00B0E07C0DBFF0C0EBA
:1001E00008C0DBFF0D0E09C0DBFF0E0E0AC0DBFFEF
:1001F000D9500B0FE96EDACFEAFFEECFE6FFEECF74
:10020000E6FFEECFE6FFEFCFE6FFEDEC0AF0E552BA
:10021000E552E552E552350E0001AC5D01E0A2D198
:10022000AC6B000EE66EE66A24EC12F0E552E55285
:10023000050EF3CFDBFF060EF4CFDBFF050EDBCFA1
:1002400008F0060EDBCF09F0C1EC0EF007C020F07D
:1002500008C021F009C022F00AC023F00C6A0D6A20
:100260000E6A470E0F6E20C007F021C008F022C0B2
:1002700009F023C00AF06DEC0FF007C01CF008C0B5
:100280001DF009C01EF00AC01FF06F0E0C6E120E9A
:100290000D6E030E0E6E400E0F6E1CC007F01DC0DB
:1002A00008F01EC009F01FC00AF0C0EC0FF007C034
:1002B00018F008C019F009C01AF00AC01BF0560E59
:1002C0000C6EBE0E0D6EE50E0E6E430E0F6E18C058
:1002D00007F019C008F01AC009F01BC00AF0C0EC02
:1002E0000FF007C014F008C015F009C016F00AC0DE
:1002F00017F0640E0C6E7B0E0D6E910E0E6EC30E1B
:100300000F6E14C007F015C008F016C009F017C032
:100310000AF0D7EC0EF007C0C1F008C0C2F009C067
:10032000C3F00AC0C4F00C6A0D6AC80E0E6E420E0D
:100330000F6EC1C007F0C2C008F0C3C009F0C4C04E
:100340000AF0C0EC0FF04BEC10F0070E08C0DBFF1A
:10035000080E09C0DBFF0C6A0D6AC80E0E6E420E55
:100360000F6EC1C007F0C2C008F0C3C009F0C4C01E
:100370000AF0C0EC0FF04BEC10F008C014F009C00C
:1003800015F014C0E6FF15C0E6FFB80EE66E0B0EC2
:10039000E66E86EC0BF0E552E552E552E552070EAB
:1003A000DBCF14F0080EDBCF15F0100E0D6E270E0C
:1003B0000E6E14C008F015C009F086EC15F008C0E8
:1003C00014F009C015F00A0E0D6E0E6A14C008F084
:1003D00015C009F086EC15F004C014F005C015F046
:1003E000300E14240001646F070EDBCF14F0080EEA
:1003F000DBCF15F0E80E0D6E030E0E6E14C008F084
:1004000015C009F086EC15F008C014F009C015F00D
:100410000A0E0D6E0E6A14C008F015C009F086ECC5
:1004200015F004C014F005C015F0300E14240001BE
:10043000656F070EDBCF14F0080EDBCF15F0640EEE
:100440000D6E0E6A14C008F015C009F086EC15F0A8
:1004500008C014F009C015F00A0E0D6E0E6A14C023
:1004600008F015C009F086EC15F004C014F005C0C2
:1004700015F0300E14240001666F070EDBCF14F068
:10048000080EDBCF15F00A0E0D6E0E6A14C008F0D0
:1004900015C009F086EC15F008C014F009C015F07D
:1004A0000A0E0D6E0E6A14C008F015C009F086EC35
:1004B00015F004C014F005C015F0300E142400012E
:1004C000676F070EDBCF14F0080EDBCF15F00A0EB6
:1004D0000D6E0E6A14C008F015C009F086EC15F018
:1004E00004C014F005C015F0300E14240001686F2C
:1004F0002C0E696F0D0E6A6F0C6A0D6A200E0E6E5F
:10050000420E0F6EC1C007F0C2C008F0C3C009F0B0
:10051000C4C00AF0D7EC0EF007C014F008C015F004
:1005200009C016F00AC017F00C6A0D6AC80E0E6EEC
:10053000420E0F6E14C007F015C008F016C009F087
:1005400017C00AF0C0EC0FF04BEC10F0090E08C019
:10055000DBFF0A0E09C0DBFF090EDBCF01FE0A0E2E
:10056000DBCF02FEF5D5100EE15C02E2E16AE55256
:0A057000E16EE552E7CFD9FF12005B
:06057A000300C42B000089
:10058000AC00000019000000982B0000000E0000D5
:100590002C000000742B00008800000024000000E4
:1005A000D9CFE6FFE1CFD9FF060EE126DE6ADD6A8C
:1005B000020EDB68030EDB68FB0EDBCF14F0DB06FC
:1005C000FC0EDBCF15F001E2DB06145015103DE008
:1005D000020EDBCFE6FFFD0EDBCFE9FFDB2AFE0ECE
:1005E000DBCFEAFF01E3DB2AEF50E552E718E66EC6
:1005F000D950040FE96EDACFEAFFE552E750EE6E0C
:10060000ED6A030EDBCFE6FF040EDBCFF6FF050E2F
:10061000DBCFF7FF9E0EF626250EF7220800F550D9
:10062000E552E718E76E020EE7CFDBFF040EDBCFE3
:10063000F6FF050EDBCFF7FF9E0EF626260EF722FD
:100640000800030EF5CFDBFFB7D7020EDB50146EA8
:10065000156A14C015F0146A14C0DEFF15C0DDFF62
:10066000030EDB50DE26000EDD22020EDBCF2AFE5B
:10067000030EDBCF2BFEDECF14F0DDCF15F014C060
:10068000F3FF15C0F4FF060EE15C03E200D0E16A5F
:10069000E552E16EE552E7CFD9FF12000001865125
:1006A000E66EE66A640EE66E000EE66EACEC14F0E2
:1006B000E552E552E552E5521200D9CFE6FFE1CF0F
:1006C000D9FF0C0EE1260B0EDB6A77C0DFFF010EAF
:1006D000DFCFDBFF030E79C0DBFFDB50F80BE84216
:1006E000E842E842E76E020EE7CFDBFF030EDB5085
:1006F000070B02E0020EDB2A080EDB6A020EDB505B
:10070000F36E080EDBCFF4FFF350F45C5EE2080EEC
:10071000DB50030FE76E060EE7CFDBFFDB50EA6A24
:10072000640FE96E000EEA22EF6A070EDB6A080E1C
:10073000F36E070EDBCFF4FFF350F45C3FE2D950C9
:10074000090FE66E000EDA20E66E010EDBCFE6FF43
:10075000E66A20DBE552E552E552E552090EDBCFB1
:1007600016F00A0EDBCF17F0070EDB5016C014F0A0
:1007700017C015F005E0D89014361536E804FBE1F3
:10078000060EDB50EA6A640FE96E000EEA2214508E
:10079000EF12010EDB2A030EDB50DF24F36E010E95
:1007A000DBCFF4FFF350F45C06E3010EF36E0B0EA7
:1007B000F3CFDBFF03D0070EDB2AB9D70B0EDB0428
:1007C00001E103D0080EDB2A99D7DAC064F00001FA
:1007D000010E656F020EDBCF66F0030E146E020E83
:1007E000DBCFE7FF1450E726020EE7CFDBFFDBCFBE
:1007F000E6FFE66A640EE66E000EE66ED1DEE552B6
:10080000E552E552E552040EF3CFDBFF050EF4CFBF
:10081000DBFF040EDBCF14F0050EDBCF15F015C0A7
:1008200014F0156A020EDB50EA6A640FE96E000EDE
:10083000EA2214C0EFFF020EDB2AFF0EE76E040E61
:10084000DBCF14F0050EDBCF15F0E7501416156A58
:10085000020EDB50EA6A640FE96E000EEA2214C051
:10086000EFFF020EDB280001866F18DF0C0EE15C43
:1008700002E2E16AE552E16EE552E7CFD9FF1200EC
:10088000D9CFE6FFE1CFD9FF0A0EE126080EDB6AD9
:10089000090EDB6A77C0DFFF010EDFCFDBFF040E3E
:1008A00079C0DBFFDB50020D050EF3CFDBFF060E38
:1008B000DB6A070EDB6A060EDBCF14F0070EDBCF18
:1008C00015F0050EDB50166E176A1650145C1750A3
:1008D000155853E2D950080FE66E000EDA20E66E86
:1008E000010EDBCFE6FFE66A77DBE552E552E55223
:1008F000E552080EDBCF14F0090EDBCF15F015C062
:1009000014F0156A030EE76E060EDBCFE9FF070E43
:10091000DBCFEAFFE750E926000EEA22640EE92663
:10092000000EEA2214C0EFFFFF0EE76E080EDBCFC9
:1009300014F0090EDBCF15F0E7501416156A040EFB
:10094000E76E060EDBCFE9FF070EDBCFEAFFE750CD
:10095000E926000EEA22640EE926000EEA2214C0FF
:10096000EFFFD950060FE96EDACFEAFF020EEE264E
:10097000000EED22010EDB2A9ED7DAC064F00001E2
:10098000030E656F050EDBCF66F0030E146E050EC9
:10099000DBCFE7FF1450E726050EE7CFDBFFDBCF09
:1009A000E6FFE66A640EE66E000EE66EF9DDE552DD
:1009B000E552E552E552020EF3CFDBFF030EF4CF12
:1009C000DBFF020EDBCF14F0030EDBCF15F015C0FA
:1009D00014F0156A050EDB50EA6A640FE96E000E2A
:1009E000EA2214C0EFFF050EDB2AFF0EE76E020EAF
:1009F000DBCF14F0030EDBCF15F0E7501416156AA9
:100A0000050EDB50EA6A640FE96E000EEA2214C09C
:100A1000EFFF050EDB280001866F40DE0A0EE15C69
:100A200002E2E16AE552E16EE552E7CFD9FF12003A
:100A3000D9CFE6FFE1CFD9FF060EE12677C0DFFF71
:100A4000010EDFCFDBFF040E78C0DBFFDB50FF08B9
:100A500008E1010EF36E020EF3CFDBFF030EDB6A3B
:100A600007D0040EDB5004E1020EDB6A030EDB6AE2
:100A7000020EDBCFE6FF030EDBCFE6FF010EDBCF7E
:100A8000E6FFE66A18DAE552E552E552E552050E50
:100A9000DB6A00018751F36E050EDBCFF4FFF350E4
:100AA000F45C16E2050EDB50EA6A740FE96E000E84
:100AB000EA22EF50E66E050EDB50EA6A640FE96E3B
:100AC000000EEA22E552E750EF6E050EDB2AE1D771
:100AD00087C086F0E3DD060EE15C02E2E16AE552E2
:100AE000E16EE552E7CFD9FF1200D9CFE6FFE1CFA3
:100AF000D9FF070EE12677C0DFFF010EDFCFDBFF56
:100B000000017851000EF3507925E66ED950050F9B
:100B1000E96EDACFEAFFE552E750EE6EED6A050EB8
:100B2000DBCFE6FF060EDBCFE6FF010EDBCFE6FFF5
:100B3000E66A9BDAE552E552E552E552DAC064F026
:100B40000001060E656F080E146EDF5014C0E7FF3B
:100B5000E75204E0E8427F0BE706FCE10001666F24
:100B6000DFCF67F078C068F079C069F0060EF36EE9
:100B7000020EF3CFDBFF060EE66EE66A640EE66E4B
:100B8000000EE66E0DDDE552E552E552E552030E2C
:100B9000F3CFDBFF040EF4CFDBFF030EDBCF14F04B
:100BA000040EDBCF15F015C014F0156A14C06AF0FE
:100BB000FF0EE76E030EDBCF14F0040EDBCF15F053
:100BC000E7501416156A14C06BF00001080E866F0A
:100BD00065DD070EE15C02E2E16AE552E16EE55295
:100BE000E7CFD9FF1200D9CFE6FFE1CFD9FF0D0E35
:100BF000E126090EDB6A0A0EDB6A0B0EDB6A0C0EBD
:100C0000DB6A77C0DFFF010EDFCFDBFF030E79C0A9
:100C1000DBFF020E7AC0DBFF080EDB6A030EDB503F
:100C2000F36E080EDBCFF4FFF350F45C56E2080ECF
:100C3000DB50E824070FEA6A740FE96E000EEA221F
:100C4000EF50E66ED950090FE96EDACFEAFFE552B0
:100C5000E750EE6EED6A080EDB50E824080FEA6AF2
:100C6000740FE96E000EEA22EF50E66ED9500B0FBA
:100C7000E96EDACFEAFFE552E750EE6EED6A090E53
:100C8000DBCF16F00A0EDBCF17F016C017F0166A8E
:100C90000B0EDB501624146E0C0EDB501720156E55
:100CA000060E14C0DBFF070E15C0DBFF0E01350E6C
:100CB000296F060EDBCFE6FF070EDBCFE6FF010E46
:100CC000DBCFE6FFE66AD1D9E552E552E552E552BF
:100CD000080EDB2A010EDB2AA1D7DAC064F000017E
:100CE000100E656F080E146EDF5014C0E7FFE75258
:100CF00004E0E8427F0BE706FCE10001666FDFCF0E
:100D000067F0080E146E030EDB5014C0E7FFE752C5
:100D100004E0E8427F0BE706FCE10001686F030E88
:100D2000DBCF69F0060EE66EE66A640EE66E000E34
:100D3000E66E36DCE552E552E552E552040EF3CF9D
:100D4000DBFF050EF4CFDBFF040EDBCF14F0050E46
:100D5000DBCF15F015C014F0156A14C06AF0FF0E51
:100D6000E76E040EDBCF14F0050EDBCF15F0E75075
:100D70001416156A14C06BF00001080E866F8EDC25
:100D80000D0EE15C02E2E16AE552E16EE552E7CF69
:100D9000D9FF1200D9CFE6FFE1CFD9FF040EE1263B
:100DA000DE6ADD6AFD0EDBCF14F0FE0EDBCF15F040
:100DB000FF0E14160F0E1516020E14C0DBFF030EE5
:100DC00015C0DBFF020EDBCF08F0030EDBCF09F00E
:100DD0000F0E081801E109505AE00E0E081801E143
:100DE000095054E00D0E081801E109504EE00C0EB8
:100DF000081801E1095048E00B0E081801E10950FC
:100E000042E00A0E081801E109503CE0090E0818FA
:100E100001E1095036E0080E081801E1095030E000
:100E2000070E081801E109502AE0060E081801E132
:100E3000095024E0050E081801E109501EE0040ED7
:100E4000081801E1095018E0030E081801E10950E3
:100E500012E0020E081801E109500CE0010E08181A
:100E600001E1095006E0085001E1095001E010D00D
:100E70000FD00ED00DD00CD00BD00AD009D008D096
:100E800007D006D005D004D003D002D001D000D0C6
:100E9000DECF14F0DDCF15F014C0F3FF15C0F4FF62
:100EA000040EE15C03E200D0E16AE552E16EE55236
:100EB000E7CFD9FF1200D9CFE6FFE1CFD9FF040E6B
:100EC000E126DE6ADD6AFD0EDBCF14F0FE0EDBCF1D
:100ED00015F0FF0E14160F0E1516020E14C0DBFFD0
:100EE000030E15C0DBFF020EDBCF08F0030EDBCFD5
:100EF00009F0110E081801E109505AE0100E081807
:100F000001E1095054E00F0E081801E109504EE0CC
:100F10000E0E081801E1095048E00D0E081801E115
:100F2000095042E00C0E081801E109503CE00B0E9C
:100F3000081801E1095036E00A0E081801E10950CD
:100F400030E0070E081801E109502AE0060E0818E3
:100F500001E1095024E0050E081801E109501EE0E6
:100F6000040E081801E1095018E0030E081801E109
:100F7000095012E0020E081801E109500CE0010EC0
:100F8000081801E1095006E0085001E1095001E0AC
:100F900010D00FD00ED00DD00CD00BD00AD009D06D
:100FA00008D007D006D005D004D003D002D001D09D
:100FB00000D0DECF14F0DDCF15F014C0F3FF15C064
:100FC000F4FF040EE15C03E200D0E16AE552E16E59
:100FD000E552E7CFD9FF1200D9CFE6FFE1CFD9FF25
:100FE000040EE126DE6ADD6AFD0EDBCF14F0FE0E94
:100FF000DBCF15F0FF0E14160F0E1516020E14C0DF
:10100000DBFF030E15C0DBFF020EDBCFE9FF030E93
:10101000DBCFEAFF010ED890E936EA36E806FBE1BD
:10102000010EE9260E0EEA22EECF14F0EFCF15F0F6
:10103000FB0EDBCFE9FFFC0EDBCFEAFF14C0EEFFB7
:1010400015C0EDFFDECF14F0DDCF15F014C0F3FFB7
:1010500015C0F4FF040EE15C03E200D0E16AE55242
:10106000E16EE552E7CFD9FF1200D9CFE6FFE1CF1D
:10107000D9FF040EE126DE6ADD6AFD0EDBCF14F037
:10108000FE0EDBCF15F0FF0E14160F0E1516020E16
:1010900014C0DBFF030E15C0DBFF020EDBCFE9FF40
:1010A000030EDBCFEAFF010ED890E936EA36E806F8
:1010B000FBE1150EE9260E0EEA22FB0EDBCFEEFF5A
:1010C000FC0EDBCFEDFF020EDBCF08F0030EDBCF13
:1010D00009F0100E081801E1095001E1A2D00F0E2D
:1010E000081801E1095001E19BD00E0E081801E13A
:1010F000095001E194D00D0E081801E1095001E1F9
:101100008DD00C0E081801E1095001E186D00B0EBC
:10111000081801E1095001E17FD00A0E081801E129
:10112000095001E178D0090E081801E109506CE07E
:10113000080E081801E1095060E0070E081801E1E7
:10114000095054E0060E081801E1095048E0050E68
:10115000081801E109503CE0040E081801E10950AB
:1011600030E0030E081801E1095024E0020E0818CF
:1011700001E1095018E0010E081801E109500CE0E6
:10118000085001E1095001E04DD0FB0EDBCFC6F065
:10119000FC0EDBCFC7F046D0FB0EDBCFC8F0FC0E59
:1011A000DBCFC9F03FD0FB0EDBCFCAF0FC0EDBCFAC
:1011B000CBF038D0FB0EDBCFCCF0FC0EDBCFCDF08C
:1011C00031D0FB0EDBCFCEF0FC0EDBCFCFF02AD040
:1011D000FB0EDBCFD0F0FC0EDBCFD1F023D0FB0E2B
:1011E000DBCFD2F0FC0EDBCFD3F01CD0FB0EDBCF7D
:1011F000D4F0FC0EDBCFD5F015D0FB0EDBCFD6F054
:10120000FC0EDBCFD7F00ED0FB0EDBCFD8F0FC0E00
:10121000DBCFD9F007D006D005D004D003D002D060
:1012200001D000D0DECF14F0DDCF15F014C0F3FFF5
:1012300015C0F4FF040EE15C03E200D0E16AE55260
:10124000E16EE552E7CFD9FF1200D9CFE6FFE1CF3B
:10125000D9FF040EE126DE6ADD6ADECF14F0DDCFB1
:1012600015F0FD0EDBCF16F0FE0EDBCF17F016509B
:10127000145C175015581AE2020EDB6A030EDB6A83
:10128000020EDBCF14F0030EDBCF15F00A0E145C58
:10129000000E155806E2020EDB2A030E01E3DB2ADC
:1012A000EFD7DF2A010E01E3DB2AD7D7040EE15C7A
:1012B00002E2E16AE552E16EE552E7CFD9FF1200A2
:1012C000D9CFE6FFE1CFD9FF040EE1260001010EE0
:1012D000DA6F00018751040801E31CD10001755148
:1012E000100A01E19AD01F0A54E00E0A07E0020A30
:1012F00005E0060A03E0030A01E00CD1080E000134
:10130000875D46E39D9AF29E0001DA510001745D0B
:101310003BE10A0EE66EE66A98DFE552E552060EFC
:10132000E66EE66A740EE66E000EE66ED0EC02F033
:10133000E552E552E552E552F3CFDEFFF4CFDDFF93
:1013400000017A510E012A5D1EE100017B510E0160
:101350002B5D19E18B7C0001750503E15DEC03F069
:1013600011D0030E755D03E140EC04F00BD0050EC7
:10137000755D03E118EC05F005D0060E755D02E120
:1013800075EC05F001D08B960001876BF28E9D8A7B
:10139000C1D07A51E66ED950020FE96EDACFEAFF7A
:1013A000E552E750EE6EED6AD950020FE96EDACFE2
:1013B000EAFF090EEE26000EED22020EDBCF14F03E
:1013C000030EDBCF15F000011450875D000E15549D
:1013D00023E30001DA510001745D1CE1020EDBCF52
:1013E00014F0030EDBCF15F0020E145E000E155A3A
:1013F00014C0E6FF15C0E6FF740EE66E000EE66E42
:10140000D0EC02F0E552E552E552E552F3CFDEFFB3
:10141000F4CFDDFF0001876B7DD07851000EF350D3
:101420007925E66ED950020FE96EDACFEAFFE55270
:10143000E750EE6EED6A020E086E096ADBCF0DF022
:10144000030EDBCF0EF02DEC10F0020E06C0DBFF1A
:10145000030E07C0DBFFD950020FE96EDACFEAFFB7
:10146000090EEE26000EED22020EDBCF14F0030E65
:10147000DBCF15F000011450875D000E155449E3D1
:101480009D9A0001DA510001745D40E1020EDBCF4C
:1014900014F0030EDBCF15F0020E145E000E155A89
:1014A00014C0E6FF15C0E6FF740EE66E000EE66E91
:1014B000D0EC02F0E552E552E552E552F3CFDEFF03
:1014C000F4CFDDFF020EDBCFE9FF030EDBCFEAFF37
:1014D000020EE95E000EEA5A740EE926000EEA22B8
:1014E000EF500E012A5D12E1020EDBCFE9FF030E81
:1014F000DBCFEAFFE906000EEA5A740EE926000E79
:10150000EA22EF502B5D02E1F3EC05F00001876B5E
:101510009D8A00D0040EE15C02E2E16AE552E16ED0
:08152000E552E7CFD9FF1200EC
:08152800FC0ECF6E180ECE6E12
:10153000CF0ECD141009CD6ECD823F0ECD14000913
:10154000CD6E9D8012000E012C6B2D6B306B316BBC
:10155000346B356B62C060F063C061F02E512F11A7
:1015600013E02E6B2F6B010E2C6F2D6B000185513C
:1015700000080AE28507855107E10001875100084C
:1015800003E2876B0001846B0E013651371105E0D1
:10159000366B376B010E346F356B325133110FE000
:1015A000326B336B010E306F316B382B000E3923E9
:1015B000140E385D000E395902E3386B396B120096
:1015C00094940F010C0E506F996AA394A4944C0E3E
:1015D000CA6EC70ECB6E516B1200D9CFE6FFE1CFBA
:1015E000D9FF040EE126DE6ADE6ADE6ADD6ADD52BC
:1015F000DD52FB0EDBCF14F0FC0EDBCF15F0FD0E41
:10160000DBCF16F0FE0EDBCF17F00A0E0C6ED70EF6
:101610000D6E230E0E6E3C0E0F6E14C007F015C03B
:1016200008F016C009F017C00AF0C0EC0FF007C0B0
:10163000DEFF08C0DEFF09C0DEFF0AC0DDFFDD52AD
:10164000DD52D9CFE9FFDACFEAFFEECF14F0EECFCB
:1016500015F0EECF16F0EFCF17F00C6A0D6A480EBA
:101660000E6E440E0F6E14C007F015C008F016C0C1
:1016700009F017C00AF0C0EC0FF007C0DEFF08C089
:10168000DEFF09C0DEFF0AC0DDFFDD52DD52DECF26
:1016900007F0DECF08F0DECF09F0DDCF0AF0DD5233
:1016A000DD524BEC10F008C014F009C015F0D890D2
:1016B00015321432D8901532143214C051FFDECFD7
:1016C00007F0DECF08F0DECF09F0DDCF0AF0DD5203
:1016D000DD524BEC10F008C014F009C015F0030EF9
:1016E0001416000E1516040ED89014361536E8049C
:1016F000FBE114500F015013040EE15C02E2E16AB9
:10170000E552E16EE552E7CFD9FF1200D9CFE6FFEF
:10171000E1CFD9FF120EE126DE6ADE6ADE6ADD6AFB
:10172000DD52DD52040EDB6A050EDB6A060EDB6A53
:10173000070EDB6A080EDB6A090EDB6A0A0EDB6A3B
:101740000B0EDB6A0C0EDB6A0D0EDB6A0E0EDB6A1B
:101750000F0EDB6A100EDB6A110EDB6AFB0EDBCFAD
:1017600008F0FC0EDBCF09F0C1EC0EF0040E07C050
:10177000DBFF050E08C0DBFF060E09C0DBFF070E0E
:101780000AC0DBFFFD0EDBCF08F0FE0EDBCF09F059
:10179000C1EC0EF007C0DEFF08C0DEFF09C0DEFFAF
:1017A0000AC0DDFFDD52DD529CC0A0F09DC0A1F05B
:1017B0009EC0A2F09FC0A3F098C09CF099C09DF07D
:1017C0009AC09EF09BC09FF0D9CFE9FFDACFEAFF25
:1017D000EECF14F0EECF15F0EECF16F0EFCF17F0FE
:1017E000040EDBCF18F0050EDBCF19F0060EDBCFB1
:1017F0001AF0070EDBCF1BF018C00CF019C00DF06B
:101800001AC00EF01BC00FF014C007F015C008F08E
:1018100016C009F017C00AF0D6EC0EF007C098F019
:1018200008C099F009C09AF00AC09BF098C00CF06B
:1018300099C00DF09AC00EF09BC00FF088C007F061
:1018400089C008F08AC009F08BC00AF0C0EC0FF024
:1018500007C018F008C019F009C01AF00AC01BF040
:101860009CC00CF09DC00DF09EC00EF09FC00FF00C
:101870008CC007F08DC008F08EC009F08FC00AF050
:10188000C0EC0FF007C01CF008C01DF009C01EF02E
:101890000AC01FF01CC00CF01DC00DF01EC00EF0E1
:1018A0001FC00FF018C007F019C008F01AC009F0E7
:1018B0001BC00AF0D6EC0EF007C014F008C015F0FB
:1018C00009C016F00AC017F0A0C00CF0A1C00DF0BE
:1018D000A2C00EF0A3C00FF090C007F091C008F0B6
:1018E00092C009F093C00AF0C0EC0FF007C020F0DE
:1018F00008C021F009C022F00AC023F020C00CF07B
:1019000021C00DF022C00EF023C00FF014C007F06C
:1019100015C008F016C009F017C00AF0D7EC0EF099
:1019200007C0A4F008C0A5F009C0A6F00AC0A7F03F
:10193000A4C00CF0A5C00DF0A6C00EF0A7C00FF01B
:10194000A8C007F0A9C008F0AAC009F0ABC00AF00F
:10195000D7EC0EF007C0A8F008C0A9F009C0AAF0A3
:101960000AC0ABF094C008F095C009F0C3EC0EF0CB
:1019700007C014F008C015F009C016F00AC017F02F
:1019800014C00CF015C00DF016C00EF017C00FF00B
:10199000A8C007F0A9C008F0AAC009F0ABC00AF0BF
:1019A0007AEC10F0010A0FE194C008F095C009F03C
:1019B000C3EC0EF007C0A8F008C0A9F009C0AAF057
:1019C0000AC0ABF030D096C008F097C009F0C3EC65
:1019D0000EF007C014F008C015F009C016F00AC0D8
:1019E00017F014C00CF015C00DF016C00EF017C0A3
:1019F0000FF0A8C007F0A9C008F0AAC009F0ABC05A
:101A00000AF083EC10F0010A0EE196C008F097C0CE
:101A100009F0C3EC0EF007C0A8F008C0A9F009C097
:101A2000AAF00AC0ABF096C008F097C009F0C3EC6A
:101A30000EF007C01CF008C01DF009C01EF00AC05F
:101A40001FF01CC00CF01DC00DF01EC00EF01FC01A
:101A50000FF0A8C007F0A9C008F0AAC009F0ABC0F9
:101A60000AF0D6EC0EF007C018F008C019F009C053
:101A70001AF00AC01BF000019651945D246E955136
:101A80009755256E24C008F025C009F0C3EC0EF070
:101A900007C020F008C021F009C022F00AC023F0DE
:101AA00020C00CF021C00DF022C00EF023C00FF0BA
:101AB00018C007F019C008F01AC009F01BC00AF0DE
:101AC0006DEC0FF007C014F008C015F009C016F057
:101AD0000AC017F00C6A0D6AC80E0E6E420E0F6E29
:101AE00014C007F015C008F016C009F017C00AF0BE
:101AF000C0EC0FF00C0E07C0DBFF0D0E08C0DBFFC3
:101B00000E0E09C0DBFF0F0E0AC0DBFF146A156A58
:101B1000C80E166E420E176E0C0EDBCF18F00D0EAF
:101B2000DBCF19F00E0EDBCF1AF00F0EDBCF1BF060
:101B300018C00CF019C00DF01AC00EF01BC00FF049
:101B400014C007F015C008F016C009F017C00AF05D
:101B5000D6EC0EF0080E07C0DBFF090E08C0DBFF55
:101B60000A0E09C0DBFF0B0E0AC0DBFFD950080FBD
:101B7000E96EDACFEAFFEECFE6FFEECFE6FFEECF7B
:101B8000E6FFEFCFE6FF29DDE552E552E552E552EB
:101B9000186A196AC80E1A6E420E1B6E080EDBCF49
:101BA0001CF0090EDBCF1DF00A0EDBCF1EF00B0E72
:101BB000DBCF1FF01CC00CF01DC00DF01EC00EF0DE
:101BC0001FC00FF018C007F019C008F01AC009F0C4
:101BD0001BC00AF0D6EC0EF007C014F008C015F0D8
:101BE00009C016F00AC017F00C6A0D6AC80E0E6E16
:101BF000420E0F6E14C007F015C008F016C009F0B1
:101C000017C00AF0C0EC0FF04BEC10F0100E08C03B
:101C1000DBFF110E09C0DBFF100EDBCF14F0110E3D
:101C2000DBCF15F0100E0D6E270E0E6E14C008F0EF
:101C300015C009F086EC15F008C014F009C015F0C5
:101C40000A0E0D6E0E6A14C008F015C009F086EC7D
:101C500015F004C014F005C015F0300E1424000176
:101C6000646F100EDBCF14F0110EDBCF15F0E80E11
:101C70000D6E030E0E6E14C008F015C009F086EC50
:101C800015F008C014F009C015F00A0E0D6E0E6AAA
:101C900014C008F015C009F086EC15F004C014F06B
:101CA00005C015F0300E14240001656F100EDBCF57
:101CB00014F0110EDBCF15F0640E0D6E0E6A14C019
:101CC00008F015C009F086EC15F008C014F009C042
:101CD00015F00A0E0D6E0E6A14C008F015C009F05A
:101CE00086EC15F004C014F005C015F0300E142475
:101CF0000001666F100EDBCF14F0110EDBCF15F074
:101D00000A0E0D6E0E6A14C008F015C009F086ECBC
:101D100015F008C014F009C015F00A0E0D6E0E6A19
:101D200014C008F015C009F086EC15F004C014F0DA
:101D300005C015F0300E14240001676F100EDBCFC4
:101D400014F0110EDBCF15F00A0E0D6E0E6A14C0E2
:101D500008F015C009F086EC15F004C014F005C0B9
:101D600015F0300E14240001686F3B0E696F120EDF
:101D7000E15C02E2E16AE552E16EE552E7CFD9FFAC
:021D800012004F
:0E1D8200019E08D0019E09AE05D0086C091E16
:101D9000E86A0922018E09C003F008C002F0136A44
:101DA000126A8E0E046E056AFDEF10F00F7E016A56
:101DB00039EC11F051EC11F001B6E1EF10F001A295
:101DC0000AD001AA03D001BEE1EF10F001A4EDEFAB
:101DD00010F0EAEF10F001AA05D001ACEDEF10F021
:101DE000EAEF10F001A00AD001A808D001BE04D08B
:101DF00001A402D0F6EF10F0FAEF10F0126A056AB3
:101E00000F500A5C116E10E307C013F008C002F017
:101E100009C003F00AC010F00CC007F00DC008F0B4
:101E20000EC009F0013A09D00CC013F00DC002F049
:101E30000EC003F00FC010F0116C019E01BC018EAA
:101E400010C004F001B029EF11F01A0E116029EF53
:101E500011F0046A0A6A01A408D0076C081E091E62
:101E60000A1EE86A082209220A2201AC08D0136C73
:101E7000021E031E041EE86A022203220422066ACE
:101E8000115207E00A340932083207320632112EA5
:101E9000F9D70750132608500222095003220A508E
:101EA000042206C012F0019E04AE0BD0126C131E69
:101EB000021E031E041EE86A1322022203220422C9
:101EC000018E04A006D0D8800332023213321232BF
:101ED000102A10C004F0FDEF10F0016A39EC11F087
:101EE00051EC11F001B6E1EF10F001A205D001BAFA
:101EF000E1EF10F0E8EF10F001BAF4EF10F001A0FC
:101F000005D001B8E1EF10F0F4EF10F001B8E8EF00
:101F100010F0056A7F0E0A24046EE86A05220F504D
:101F2000045EE86A055A1A0E106E0A6A126A136A8B
:101F3000026A036A0C50075E0D50085A0E50095A87
:101F4000000E0A5A09E70C5007260D5008220E50C1
:101F50000922000E0A2201D0128AD89007360836CC
:101F600009360A36D8901236133602360336102E4A
:101F7000E1D7095008100710D8A4128AFDEF10F01D
:101F8000016A39EC11F051EC11F001B6E1EF10F0FB
:101F900001A205D001B8E1EF10F0E8EF10F001AABE
:101FA00005D001B0E1EF10F0E8EF10F001B002D081
:101FB00001A802D0F4EF10F0056A0F500A24046E55
:101FC000E86A05227E0E045EE86A055A126A136A00
:101FD000026A036A0E500902F4CF03F0F3CF02F055
:101FE0000D500902F3501326F4500222000E032272
:101FF0000E500802F3501326F4500222000E032262
:102000000C500902F3501226F4501322000E022243
:1020100003220D500802F3501226F4501322000E32
:10202000022203220E500702F3501226F45013220C
:10203000000E022203220C500802F4501226000E59
:102040001322022203220D500702F4501226000E22
:10205000132202220322FDEF10F008C012F00850F4
:102060000D02F4CF07F0F3CF06F009500E02F4CFC3
:1020700009F0F3CF08F00D02F3500726F4500822C0
:10208000E86A092212500E02F3500726F450082283
:10209000E86A0922000C016A39EC11F001B655EF2B
:1020A00010F001A20ED001B405D07F0E096EFF0E14
:1020B000086E1FD0800E096E086A1BD0096A086A74
:1020C00018D001B0FBD78F0E0A60EDD77E0E0A64E0
:1020D000F5D78E0E0A5C05E0D890093208320A2A3C
:1020E000F8D701A406D0086C091EE86A092209AED7
:1020F000E5D712008CEC10F001B6000C01B0000C1A
:1021000001B4000C010C8CEC10F001B6000C01B015
:10211000000C01A4000C010C016A39EC11F051EC27
:1021200011F001B6120001AE08D001A004D001A840
:1021300002D001801200019012000F500A5C0BE1E6
:102140000E50095C08E10D50085C05E10C50075C7D
:1021500002E101801200D8A002D0018E10D00A50F6
:102160000FC00AF00F6E09500EC009F00E6E085035
:102170000DC008F00D6E07500CC007F00C6E0F502C
:102180000A5C10E0FF0F09E0019001B403D001AE3A
:102190000184120001AE019412000F2AD8900E3271
:1021A0000D320C320C50075E0D50085A0E50095A71
:1021B00009BEEAD7D8900736083609360A2EF8D76E
:1021C000C8D77F0E0A6EFF0E096E086E076E1200EA
:1021D0007F0E01BEFF0E0A6E02D07F0E0A6E800EC9
:1021E000096E086A076AF3D701AE04D0800E0A6E42
:1021F000096AF7D70A6A096AF4D703500210131064
:102200001210F8E005BEF0D703BE0CD00450051044
:10221000EBE0D89012361336023603360406D8A007
:102220000506F2D70550D4E10428D2E012AE11D051
:102230007F0E121402E113A00CD0132AE86A0222C6
:10224000032207E3D880033202321332042A04281F
:10225000BFE00450C9E013C007F002C008F0033427
:10226000096E04300A6E09320A9E01BE0A8EE7EF3B
:1022700010F009360A3602E30184017E06E101808E
:102280000A6A096A086A076A12000A2803E0D88005
:1022900009321200D890093202E10182120001864F
:1022A00012000E360F3602E3018C017E06E1018832
:1022B0000F6A0E6A0D6A0C6A12000F2803E0D880BC
:0E22C0000E321200D8900E32EAE1018A1200AE
:0222CE00180EE8
:1022D0009412280EC66EC56A0B0EC86E12001F0E31
:1022E000C51403E1C750040B02E0F9D7F8D7120078
:1022F000C5801200C5821200C5841200C59AC58827
:102300001200C58AC58812009EA6FED79E961200AE
:10231000C586C7A0FED7C95000D01200D9CFE6FFAE
:10232000E1CFD9FFFE0EDB50C96EC6AE03D0000E62
:1023300003D002D0010E00D0E552E7CFD9FF120042
:10234000D9CFE6FFE1CFD9FF020EE126FD0EDBCFAC
:1023500014F0FE0EDBCF15F015C014F0156A1F0E39
:102360001414DF6EFD0EDB50E76E010EE7CFDBFFCE
:10237000B6DFBEDFC9DF900EE66ED0DFE552C5BC2A
:10238000FED7C2DFFC0EDBCFE6FFC8DFE552C5BCDF
:10239000FED7BADFB1DFB8DF020EE15C02E2E16A2C
:1023A000E552E16EE552E7CFD9FF1200D9CFE6FF43
:1023B000E1CFD9FF020EE126FD0EDBCF14F0FE0EB9
:1023C000DBCF15F015C014F0156A1F0E1414DF6E64
:1023D000FD0EDB50E76E010EE7CFDBFF80DF88DF0D
:1023E00093DFDFCFE6FF9ADFE552C5BCFED78CDF77
:1023F000010EDBCFE6FF92DFE552C5BCFED784DFDE
:10240000FC0EDB5015E0FA0EDBCFE9FFFB0EDBCF55
:10241000EAFFEF50E66E82DFE552C5BCFED774DFFF
:10242000FA0EDB2AFB0E01E3DB2AFC0EDB06E8D703
:1024300063DF6ADF020EE15C02E2E16AE552E16E0F
:10244000E552E7CFD9FF1200D9CFE6FFE1CFD9FFA0
:10245000060EE12644DF4CDF57DF910EE66E5EDFAD
:10246000E552C5BCFED750DF53DFE66ED950040FEE
:10247000E96EDACFEAFFE552E750EE6EED6A44DF2F
:102480003DDF42DF45DFE66ED950020FE96EDACF5D
:10249000EAFFE552E750EE6EED6A36DF040EDBCF61
:1024A00016F0050EDBCF17F016C017F0166A020EF5
:1024B000DB501624146E030EDB501720156E14C06B
:1024C000DEFF15C0DDFF1DDF1FDF16DF1DDFDECFE6
:1024D00014F0DDCF15F014C0F3FF15C0F4FF060EA5
:1024E000E15C03E200D0E16AE552E16EE552E7CF3C
:1024F000D9FF1200D9CFE6FFE1CFD9FF020EE126C6
:10250000FD0EDBCF14F0FE0EDBCF15F015C014F07E
:10251000156A1F0E1414DF6EFD0EDB50E76E010E00
:10252000E7CFDBFFDCDEE4DEEFDEDFCFE6FFF6DE6B
:10253000E552C5BCFED7E8DE010EDBCFE6FFEEDEDE
:10254000E552C5BCFED7E0DED5DEDEDEFC0EDB509C
:102550001AE0DEDEE66EFA0EDBCFE9FFFB0EDBCF24
:10256000EAFFE552E750EF6ECFDEFA0EDB2AFB0EF4
:1025700001E3DB2AFC0EDB06DB5002E1C2DE01D008
:10258000BDDEC2DEE3D7B8DEBFDE020EE15C02E2F2
:0E259000E16AE552E16EE552E7CFD9FF120095
:02259E0000C17A
:1025A000814001C0804101C0804100C1814001C023
:1025B000804100C1814000C1814001C0804101C013
:1025C000804100C1814000C1814001C0804100C103
:1025D000814001C0804101C0804100C1814001C0F3
:1025E000804100C1814000C1814001C0804100C1E3
:1025F000814001C0804101C0804100C1814000C1D3
:10260000814001C0804101C0804100C1814001C0C2
:10261000804100C1814000C1814001C0804101C0B2
:10262000804100C1814000C1814001C0804100C1A2
:10263000814001C0804101C0804100C1814000C192
:10264000814001C0804101C0804100C1814001C082
:10265000804100C1814000C1814001C0804100C172
:10266000814001C0804101C0804100C1814001C062
:10267000804100C1814000C1814001C0804101C052
:10268000804100C1814000C1814001C0804100C142
:10269000814001C0804101C0804100C1814000C033
:1026A000C101C30302C2C60607C705C5C404CC0CDA
:1026B0000DCD0FCFCE0E0ACACB0BC90908C8D8184A
:1026C00019D91BDBDA1A1EDEDF1FDD1D1CDC14D45A
:1026D000D515D71716D6D21213D311D1D010F0308A
:1026E00031F133F3F23236F6F737F53534F43CFC9A
:1026F000FD3DFF3F3EFEFA3A3BFB39F9F83828E84A
:10270000E929EB2B2AEAEE2E2FEF2DEDEC2CE42419
:1027100025E527E7E62622E2E323E12120E0A06089
:1027200061A163A3A26266A6A767A56564A46CAC59
:10273000AD6DAF6F6EAEAA6A6BAB69A9A86878B8C9
:10274000B979BB7B7ABABE7E7FBF7DBDBC7CB474D9
:1027500075B577B7B67672B2B373B17170B0509089
:1027600091519353529296565797559594549C5C19
:102770005D9D5F9F9E5E5A9A9B5B995958988848C9
:1027800049894B8B8A4A4E8E8F4F8D4D4C8C448499
:0E2790008545874746868242438341818040CB
:02279E00290E02
:1027A000C26E0F015D6B040E5C6FBF0EC06E120037
:1027B000D9CFE6FFE1CFD9FF160EE126100EDB6A76
:1027C000110EDB6A120EDB6AC2B2FED7C450E66E8F
:1027D000D950140FE96EDACFEAFFE552E750EE6EFA
:1027E000ED6A140EDBCF16F0150EDBCF17F016C016
:1027F00017F0166AC35000011624146E000E17203D
:10280000156E140E14C0DBFF150E15C0DBFFD9CFFB
:1028100014F0DACF15F0120EDB50020D1450F32431
:10282000E96E1550F420EA6E140EDBCFEEFF150EA4
:10283000DBCFEDFF120EDB50070840E1140EDB6A20
:10284000150EDB6A130EDB6A080EF36E130EDBCF78
:10285000F4FFF350F45C1DE2D9CF16F0DACF17F095
:10286000130EDB50020D1650F324E96E1750F420BE
:10287000EA6EEECF14F0EFCF15F0D950140FE96ED9
:10288000DACFEAFF1450EE261550ED22130EDB2AA4
:10289000DBD7140EDBCF14F0150EDBCF15F0030ED3
:1028A000D89015321432E804FBE1100E14C0DBFF9F
:1028B000110E15C0DBFF120EDB6A02D0120EDB2AEE
:1028C000D9CF1AF0DACF1BF0DB50020D1A50F324E7
:1028D000E96E1B50F420EA6EEECF18F0EFCF19F03E
:1028E00018C008F019C009F0C1EC0EF007C014F0D0
:1028F00008C015F009C016F00AC017F014C006F0A1
:1029000015C007F016C008F017C009F0160EE15CFC
:1029100003E200D0E16AE552E16EE552E7CFD9FF6C
:022920001200A3
:0E2922009392948E949C190EAF6EAB8EAC8483
:10293000AC98AC8AAB889D8A9D988A821200D9CFC8
:10294000E6FFE1CFD9FFFE0EDB50AD6EACA2FED7A5
:10295000E552E7CFD9FF1200D9CFE6FFE1CFD9FF8B
:10296000020EE1268A92DE6ADD6ADECF14F0DDCF48
:1029700015F0640E145C000E155805E2DF2A010EF6
:1029800001E3DB2AF2D7DE6ADD6ADECF14F0DDCFA9
:1029900015F0FB0EDBCF16F0FC0EDBCF17F0165058
:1029A000145C1750155815E2FD0EDBCF14F0FE0E27
:1029B000DBCF15F0DE501424E96EDD501520EA6EF1
:1029C000EF50E66EBCDFE552DF2A010E01E3DB2AA1
:1029D000DCD78A82020EE15C02E2E16AE552E16E36
:0829E000E552E7CFD9FF120018
:0829E8007A0EF66E050EF76E83
:1029F000000EF86E00010900F550E06F0900F55077
:102A0000E16F03E1E06701D03DD00900F550DB6FD5
:102A10000900F550DC6F0900F550DD6F0900090071
:102A2000F550E96E0900F550EA6E09000900090049
:102A3000F550DE6F0900F550DF6F09000900F6CF91
:102A4000E2F0F7CFE3F0F8CFE4F0DBC0F6FFDCC054
:102A5000F7FFDDC0F8FF0001DE5302E1DF5307E0BE
:102A60000900F550EE6EDE07F8E2DF07F9D7E2C0A5
:102A7000F6FFE3C0F7FFE4C0F8FF0001E007000E37
:062A8000E15BBFD712006C
:0A2A8600D9CFE6FFE1CFD9FFFE0E25
:102A9000DB50746E7F9E7F9C7F80735000D0E55228
:102AA000E7CFD9FF1200D9CFE6FFE1CFD9FF04006D
:102AB000FE0EDB50746EFD0EDB50736E7F9E7F9CAE
:102AC0007F84F29E550E7E6EAA0E7E6E7F82F28EFF
:0E2AD0007F947FB2FED7E552E7CFD9FF120008
:022ADE00FF0EE9
:102AE000E350276EEF0E01D0F30EE76EE72E76EF80
:102AF00015F00C0E266EE76AE72E7CEF15F0262EF9
:0C2B00007BEF15F0272E74EF15F012008B
:042B0C00056A046AE8
:102B1000100EE76ED89008360936043605360D508B
:102B2000045C0E50055805E30D50045E0E50055A26
:082B3000082AE72EF0D712007D
:082B3800410EF36E00EE00F007
:102B40000E0E01D81200EA6002D0EE6AFCD7F350F4
:082B5000E9601200EE6AFCD7F7
:082B58001DEE00F02DEE00F06F
:102B6000F86A019CF4EC14F003EC00F05FEC00F068
:042B7000FBD712007D
:0C2B7400000000400000803F0000000056
:102B8000E80318FC00000000000000000000000046
:082B900000000000000000003D
:082B9800010000000000000034
:102BA0000000000000000000000000000000000025
:102BB0000000000000000000000000000000000015
:042BC0000000000011
:0C2BC40000000000000000000000000005
:0D2BD00000000000000000000000000000F8
:020000040030CA
:0100000015EA
:0100010008F6
:010003007C80
:00000001FF
