:020000040000FA
:06000000A9EF0EF0120052
:020006001200E6
:0800080007EF00F01200DACF4F
:10001000E4FFE2CFDAFFE9CFE4FFEACFE4FFE65204
:100020009EAA1BD09E9AAB50040B03E1AB50020B6F
:1000300005E0AB9EAB8E9E9A8B960FD00001050E0D
:10004000856F00018751EA6A740FE96E000EEA229B
:10005000AECFEFFF872B0F0E87179EA028D09E9064
:10006000FC0ECF6E180ECE6E0001622B000E6323C5
:10007000010E00018A6F8B6B0001A12B000EA223E1
:10008000A32BA4230A0EA15D000EA25906E3A16BC7
:10009000A26B010E00018E6F8F6B0001E80EA35D55
:1000A000030EA45904E3A36BA46B350EA06FE552B5
:1000B000E5CFEAFFE5CFE9FFE5CFDAFF1100D9CFC1
:1000C000E6FFE1CFD9FF090EE126DF6A010EDB6A08
:1000D000020EDB6AD950030FE96EDACFEAFFEE6A4F
:1000E000EE6A050EDB6A060EDB6A070EDB6A080E97
:1000F000DB6A83EC0DF037EC0DF0BAEC0DF0F28C0E
:10010000F28ECD80A00EE66E6CEC0EF0E5521E0E67
:10011000E66E6CEC0EF0E55246EC0DF04CEC08F09F
:10012000350E0E01285D55E1286B000E0E011415E9
:10013000146EFF0E1515156E15C014F0156A070E16
:1001400014C0DBFF080E15C0DBFFFF0E1415166E82
:10015000176A0A0E086E096A070EDBCF0DF0080E4B
:10016000DBCF0EF0C1EC0CF006501624146E0750D5
:100170001720156E070E14C0DBFF080E15C0DBFF3D
:10018000070EDBCF14F0080EDBCF15F0090ED89068
:1001900014361536E806FBE1640E0D6E0E6A14C0C7
:1001A00008F015C009F083EC0EF008C014F009C087
:1001B00015F0070E14C0DBFF080E15C0DBFF070E9D
:1001C000DBCFE6FF080EDBCFE6FF90EC0DF0E5524B
:1001D000E552A2D7090EE15C02E2E16AE552E16E66
:0801E000E552E7CFD9FF120040
:0801E8000200991D0000A000B7
:1001F0000000050000006E1D0000000E00002B0036
:020200000000FC
:0E020200D9CFE6FFE1CFD9FF060EE126DE6A76
:10021000DD6A020EDB68030EDB68FB0EDBCF14F039
:10022000DB06FC0EDBCF15F001E2DB0614501510E7
:100230003DE0020EDBCFE6FFFD0EDBCFE9FFDB2A60
:10024000FE0EDBCFEAFF01E3DB2AEF50E552E718B1
:10025000E66ED950040FE96EDACFEAFFE552E750B7
:10026000EE6EED6A030EDBCFE6FF040EDBCFF6FF8A
:10027000050EDBCFF7FFD40EF626150EF722080089
:10028000F550E552E718E76E020EE7CFDBFF040EEC
:10029000DBCFF6FF050EDBCFF7FFD40EF626160EEA
:1002A000F7220800030EF5CFDBFFB7D7020EDB50B5
:1002B000146E156A14C015F0146A14C0DEFF15C060
:1002C000DDFF030EDB50DE26000EDD22020EDBCF4B
:1002D00029FE030EDBCF2AFEDECF14F0DDCF15F0B2
:1002E00014C0F3FF15C0F4FF060EE15C03E200D07A
:1002F000E16AE552E16EE552E7CFD9FF1200000155
:100300008651E66EE66A640EE66E000EE66ED5EC89
:100310000DF0E552E552E552E5521200D9CFE6FF65
:10032000E1CFD9FF0C0EE1260B0EDB6A77C0DFFFB1
:10033000010EDFCFDBFF030E79C0DBFFDB50F80BD4
:10034000E842E842E842E76E020EE7CFDBFF030E29
:10035000DB50070B02E0020EDB2A080EDB6A020EFE
:10036000DB50F36E080EDBCFF4FFF350F45C5EE27B
:10037000080EDB50030FE76E060EE7CFDBFFDB5006
:10038000EA6A640FE96E000EEA22EF6A070EDB6A82
:10039000080EF36E070EDBCFF4FFF350F45C3FE280
:1003A000D950090FE66E000EDA20E66E010EDBCFA3
:1003B000E6FFE66A20DBE552E552E552E552090E1A
:1003C000DBCF16F00A0EDBCF17F0070EDB5016C09E
:1003D00014F017C015F005E0D89014361536E8046F
:1003E000FBE1060EDB50EA6A640FE96E000EEA22BA
:1003F0001450EF12010EDB2A030EDB50DF24F36EE4
:10040000010EDBCFF4FFF350F45C06E3010EF36E54
:100410000B0EF3CFDBFF03D0070EDB2AB9D70B0E91
:10042000DB0401E103D0080EDB2A99D740CE64F04B
:100430000001010E656F020EDBCF66F0030E146E35
:10044000020EDBCFE7FF1450E726020EE7CFDBFFFB
:10045000DBCFE6FFE66A640EE66E000EE66ED1DEE6
:10046000E552E552E552E552040EF3CFDBFF050EEF
:10047000F4CFDBFF040EDBCF14F0050EDBCF15F05D
:1004800015C014F0156A020EDB50EA6A640FE96EBB
:10049000000EEA2214C0EFFF020EDB2AFF0EE76E09
:1004A000040EDBCF14F0050EDBCF15F0E750141669
:1004B000156A020EDB50EA6A640FE96E000EEA224A
:1004C00014C0EFFF020EDB280001866F18DF0C0E50
:1004D000E15C02E2E16AE552E16EE552E7CFD9FF65
:1004E0001200D9CFE6FFE1CFD9FF0A0EE126080EB0
:1004F000DB6A090EDB6A77C0DFFF010EDFCFDBFFAF
:10050000040E79C0DBFFDB50020D050EF3CFDBFFDD
:10051000060EDB6A070EDB6A060EDBCF14F0070E51
:10052000DBCF15F0050EDB50166E176A1650145C03
:100530001750155853E2D950080FE66E000EDA2016
:10054000E66E010EDBCFE6FFE66A77DBE552E552A9
:10055000E552E552080EDBCF14F0090EDBCF15F0A3
:1005600015C014F0156A030EE76E060EDBCFE9FF27
:10057000070EDBCFEAFFE750E926000EEA22640E01
:10058000E926000EEA2214C0EFFFFF0EE76E080E08
:10059000DBCF14F0090EDBCF15F0E7501416156A07
:1005A000040EE76E060EDBCFE9FF070EDBCFEAFF96
:1005B000E750E926000EEA22640EE926000EEA2240
:1005C00014C0EFFFD950060FE96EDACFEAFF020E32
:1005D000EE26000EED22010EDB2A9ED740CE64F0FF
:1005E0000001030E656F050EDBCF66F0030E146E7F
:1005F000050EDBCFE7FF1450E726050EE7CFDBFF44
:10060000DBCFE6FFE66A640EE66E000EE66EF9DD0D
:10061000E552E552E552E552020EF3CFDBFF030E41
:10062000F4CFDBFF020EDBCF14F0030EDBCF15F0AF
:1006300015C014F0156A050EDB50EA6A640FE96E06
:10064000000EEA2214C0EFFF050EDB2AFF0EE76E54
:10065000020EDBCF14F0030EDBCF15F0E7501416BB
:10066000156A050EDB50EA6A640FE96E000EEA2295
:1006700014C0EFFF050EDB280001866F40DE0A0E76
:10068000E15C02E2E16AE552E16EE552E7CFD9FFB3
:100690001200D9CFE6FFE1CFD9FF060EE12677C0E1
:1006A000DFFF010EDFCFDBFF040E78C0DBFFDB5086
:1006B000FF0808E1010EF36E020EF3CFDBFF030E1D
:1006C000DB6A07D0040EDB5004E1020EDB6A030E86
:1006D000DB6A020EDBCFE6FF030EDBCFE6FF010E87
:1006E000DBCFE6FFE66A18DAE552E552E552E5525D
:1006F000050EDB6A00018751F36E050EDBCFF4FFB8
:10070000F350F45C16E2050EDB50EA6A740FE96EF2
:10071000000EEA22EF50E66E050EDB50EA6A640F27
:10072000E96E000EEA22E552E750EF6E050EDB2A75
:10073000E1D787C086F0E3DD060EE15C02E2E16A04
:10074000E552E16EE552E7CFD9FF1200D9CFE6FFBF
:10075000E1CFD9FF070EE12677C0DFFF010EDFCF23
:10076000DBFF00017851000EF3507925E66ED95079
:10077000050FE96EDACFEAFFE552E750EE6EED6A5B
:10078000050EDBCFE6FF060EDBCFE6FF010EDBCF6B
:10079000E6FFE66A56DBE552E552E552E55240CE09
:1007A00064F00001060E656F080E146EDF5014C071
:1007B000E7FFE75204E0E8427F0BE706FCE10001B7
:1007C000666FDFCF67F078C068F079C069F0060E19
:1007D000F36E020EF3CFDBFF060EE66EE66A640EE2
:1007E000E66E000EE66E0DDDE552E552E552E5528D
:1007F000030EF3CFDBFF040EF4CFDBFF030EDBCFE2
:1008000014F0040EDBCF15F015C014F0156A14C0F7
:100810006AF0FF0EE76E030EDBCF14F0040EDBCFA1
:1008200015F0E7501416156A14C06BF00001080E9D
:10083000866F65DD070EE15C02E2E16AE552E16E7A
:10084000E552E7CFD9FF1200D9CFE6FFE1CFD9FFBC
:100850000D0EE126090EDB6A0A0EDB6A0B0EDB6A5F
:100860000C0EDB6A77C0DFFF010EDFCFDBFF030E6C
:1008700079C0DBFF020E7AC0DBFF080EDB6A030ED5
:10088000DB50F36E080EDBCFF4FFF350F45C56E25E
:10089000080EDB50E824070FEA6A740FE96E000EB9
:1008A000EA22EF50E66ED950090FE96EDACFEAFF7F
:1008B000E552E750EE6EED6A080EDB50E824080FB3
:1008C000EA6A740FE96E000EEA22EF50E66ED95024
:1008D0000B0FE96EDACFEAFFE552E750EE6EED6AF4
:1008E000090EDBCF16F00A0EDBCF17F016C017F09B
:1008F000166A0B0EDB501624146E0C0EDB501720FC
:10090000156E060E14C0DBFF070E15C0DBFF0E01CF
:10091000350E286F060EDBCFE6FF070EDBCFE6FFB6
:10092000010EDBCFE6FFE66A8CDAE552E552E552CE
:10093000E552080EDB2A010EDB2AA1D740CE64F077
:100940000001100E656F080E146EDF5014C0E7FF33
:10095000E75204E0E8427F0BE706FCE10001666F26
:10096000DFCF67F0080E146E030EDB5014C0E7FFF4
:10097000E75204E0E8427F0BE706FCE10001686F04
:10098000030EDBCF69F0060EE66EE66A640EE66ED5
:10099000000EE66E36DCE552E552E552E552040EF5
:1009A000F3CFDBFF050EF4CFDBFF040EDBCF14F03B
:1009B000050EDBCF15F015C014F0156A14C06AF0EF
:1009C000FF0EE76E040EDBCF14F0050EDBCF15F043
:1009D000E7501416156A14C06BF00001080E866FFC
:1009E0008EDC0D0EE15C02E2E16AE552E16EE55259
:1009F000E7CFD9FF1200D9CFE6FFE1CFD9FF040E30
:100A0000E126DE6ADD6AFD0EDBCF14F0FE0EDBCFE1
:100A100015F0FF0E14160F0E1516020E14C0DBFF94
:100A2000030E15C0DBFF020EDBCF08F0030EDBCF99
:100A300009F00F0E081801E109505AE00E0E0818CF
:100A400001E1095054E00D0E081801E109504EE093
:100A50000C0E081801E1095048E00B0E081801E1DE
:100A6000095042E00A0E081801E109503CE0090E65
:100A7000081801E1095036E0080E081801E1095094
:100A800030E0070E081801E109502AE0060E0818A8
:100A900001E1095024E0050E081801E109501EE0AB
:100AA000040E081801E1095018E0030E081801E1CE
:100AB000095012E0020E081801E109500CE0010E85
:100AC000081801E1095006E0085001E1095001E071
:100AD00010D00FD00ED00DD00CD00BD00AD009D032
:100AE00008D007D006D005D004D003D002D001D062
:100AF00000D0DECF14F0DDCF15F014C0F3FF15C029
:100B0000F4FF040EE15C03E200D0E16AE552E16E1D
:100B1000E552E7CFD9FF1200D9CFE6FFE1CFD9FFE9
:100B2000040EE126DE6ADD6AFD0EDBCF14F0FE0E58
:100B3000DBCF15F0FF0E14160F0E1516020E14C0A3
:100B4000DBFF030E15C0DBFF020EDBCF08F0030E48
:100B5000DBCF09F0110E081801E109505AE0100E20
:100B6000081801E1095054E00F0E081801E109507E
:100B70004EE00E0E081801E1095048E00D0E08186D
:100B800001E1095042E00C0E081801E109503CE077
:100B90000B0E081801E1095036E00A0E081801E1B1
:100BA000095030E0070E081801E109502AE0060E4E
:100BB000081801E1095024E0050E081801E1095068
:100BC0001EE0040E081801E1095018E0030E081891
:100BD00001E1095012E0020E081801E109500CE091
:100BE000010E081801E1095006E0085001E1095022
:100BF00001E010D00FD00ED00DD00CD00BD00AD009
:100C000009D008D007D006D005D004D003D002D038
:100C100001D000D0DECF14F0DDCF15F014C0F3FF0B
:100C200015C0F4FF040EE15C03E200D0E16AE55276
:100C3000E16EE552E7CFD9FF1200D9CFE6FFE1CF51
:100C4000D9FF040EE126DE6ADD6AFD0EDBCF14F06B
:100C5000FE0EDBCF15F0FF0E14160F0E1516020E4A
:100C600014C0DBFF030E15C0DBFF020EDBCF08F064
:100C7000030EDBCF09F0100E081801E1095001E165
:100C8000CCD00F0E081801E1095001E1C5D00E0EBD
:100C9000081801E1095001E1BED00D0E081801E16C
:100CA000095001E1B7D00C0E081801E1095001E12B
:100CB000B0D00B0E081801E1095001E1A9D00A0ECD
:100CC000081801E1095001E1A2D0090E081801E15C
:100CD000095001E191D0080E081801E1095001E125
:100CE00080D0070E081801E1095070E0060E0818C0
:100CF00001E1095060E0050E081801E1095050E0DB
:100D0000040E081801E1095040E0030E081801E143
:100D1000095030E0020E081801E1095020E0010EF0
:100D2000081801E1095010E0085001E1095001E004
:100D300075D0FB0EDBCFE9FFFC0EDBCFEAFF2CCE3C
:100D4000EEFF2DCEEDFF6AD0FB0EDBCFE9FFFC0EF0
:100D5000DBCFEAFF00CEEEFF01CEEDFF5FD0FB0E52
:100D6000DBCFE9FFFC0EDBCFEAFF02CEEEFF03CEC6
:100D7000EDFF54D0FB0EDBCFE9FFFC0EDBCFEAFF2B
:100D800032CEEEFF33CEEDFF49D0FB0EDBCFE9FFD5
:100D9000FC0EDBCFEAFF34CEEEFF35CEEDFF3ED0CA
:100DA000FB0EDBCFE9FFFC0EDBCFEAFF36CEEEFF1A
:100DB00037CEEDFF33D0FB0EDBCFE9FFFC0EDBCFF0
:100DC000EAFF38CEEEFF39CEEDFF28D0FB0EDBCFA9
:100DD000E9FFFC0EDBCFEAFF3ACEEEFF3BCEEDFFA4
:100DE0001DD0FB0EDBCFE9FFFC0EDBCFEAFF3CCED4
:100DF000EEFF3DCEEDFF12D0FB0EDBCFE9FFFC0E88
:100E0000DBCFEAFF3ECEEEFF3FCEEDFF07D006D0B0
:100E100005D004D003D002D001D000D0DECF14F032
:100E2000DDCF15F014C0F3FF15C0F4FF040EE15C34
:100E300003E200D0E16AE552E16EE552E7CFD9FF67
:100E40001200D9CFE6FFE1CFD9FF040EE126DE6A1A
:100E5000DD6AFD0EDBCF14F0FE0EDBCF15F0FF0ECA
:100E600014160F0E1516020E14C0DBFF030E15C06C
:100E7000DBFF020EDBCFE9FF030EDBCFEAFF010E43
:100E8000D890E936EA36E806FBE1140EE9260E0EA4
:100E9000EA22FB0EDBCFEEFFFC0EDBCFEDFF020EF6
:100EA000DBCF08F0030EDBCF09F0100E081801E1CC
:100EB000095001E1A2D00F0E081801E1095001E12B
:100EC0009BD00E0E081801E1095001E194D00D0EDF
:100ED000081801E1095001E18DD00C0E081801E15C
:100EE000095001E186D00B0E081801E1095001E11B
:100EF0007FD00A0E081801E1095001E178D0090EEF
:100F0000081801E109506CE0080E081801E10950C9
:100F100060E0070E081801E1095054E0060E0818B9
:100F200001E1095048E0050E081801E109503CE0D4
:100F3000040E081801E1095030E0030E081801E121
:100F4000095024E0020E081801E1095018E0010ED2
:100F5000081801E109500CE0085001E1095001E0D6
:100F60004DD0FB0EDBCF2CFEFC0EDBCF2DFE46D092
:100F7000FB0EDBCF2EFEFC0EDBCF2FFE3FD0FB0E99
:100F8000DBCF30FEFC0EDBCF31FE38D0FB0EDBCFEB
:100F900032FEFC0EDBCF33FE31D0FB0EDBCF34FE56
:100FA000FC0EDBCF35FE2AD0FB0EDBCF36FEFC0E6F
:100FB000DBCF37FE23D0FB0EDBCF38FEFC0EDBCFC2
:100FC00039FE1CD0FB0EDBCF3AFEFC0EDBCF3BFE26
:100FD00015D0FB0EDBCF3CFEFC0EDBCF3DFE0ED072
:100FE000FB0EDBCF3EFEFC0EDBCF3FFE07D006D074
:100FF00005D004D003D002D001D000D0DECF14F051
:10100000DDCF15F014C0F3FF15C0F4FF040EE15C52
:1010100003E200D0E16AE552E16EE552E7CFD9FF85
:101020001200D9CFE6FFE1CFD9FF040EE126DE6A38
:10103000DD6ADECF14F0DDCF15F0FD0EDBCF16F04C
:10104000FE0EDBCF17F01650145C175015581AE23D
:10105000020EDB6A030EDB6A020EDBCF14F0030E16
:10106000DBCF15F00A0E145C000E155806E2020ED6
:10107000DB2A030E01E3DB2AEFD7DF2A010E01E3AF
:10108000DB2AD7D7040EE15C02E2E16AE552E16EA9
:10109000E552E7CFD9FF1200D9CFE6FFE1CFD9FF64
:1010A000040EE1260E01010E406F00018751040875
:1010B00001E31CD100017551100A01E19AD01F0A09
:1010C00054E00E0A07E0020A05E0060A03E0030AFC
:1010D00001E00CD1080E0001875D46E39D9AF29E67
:1010E0000E0140510001745D3BE10A0EE66EE66AB6
:1010F00098DFE552E552060EE66EE66A740EE66E7D
:10110000000EE66E01EC01F0E552E552E552E552C3
:10111000F3CFDEFFF4CFDDFF00017A510E01295D30
:101120001EE100017B510E012A5D19E18B7C00015B
:10113000750503E18EEC01F011D0030E755D03E13E
:1011400071EC02F00BD0050E755D03E149EC03F084
:1011500005D0060E755D02E1A6EC03F001D08B967A
:101160000001876BF28E9D8AC1D07A51E66ED9500C
:10117000020FE96EDACFEAFFE552E750EE6EED6A54
:10118000D950020FE96EDACFEAFF090EEE26000E03
:10119000ED22020EDBCF14F0030EDBCF15F00001C1
:1011A0001450875D000E155423E30E0140510001D9
:1011B000745D1CE1020EDBCF14F0030EDBCF15F0E3
:1011C000020E145E000E155A14C0E6FF15C0E6FFAD
:1011D000740EE66E000EE66E01EC01F0E552E5528B
:1011E000E552E552F3CFDEFFF4CFDDFF0001876B60
:1011F0007DD07851000EF3507925E66ED950020F5C
:10120000E96EDACFEAFFE552E750EE6EED6A020EC4
:10121000086E096ADBCF0DF0030EDBCF0EF0C1ECD8
:101220000CF0020E06C0DBFF030E07C0DBFFD95037
:10123000020FE96EDACFEAFF090EEE26000EED226C
:10124000020EDBCF14F0030EDBCF15F000011450BB
:10125000875D000E155449E39D9A0E01405100012F
:10126000745D40E1020EDBCF14F0030EDBCF15F00E
:10127000020E145E000E155A14C0E6FF15C0E6FFFC
:10128000740EE66E000EE66E01EC01F0E552E552DA
:10129000E552E552F3CFDEFFF4CFDDFF020EDBCFE8
:1012A000E9FF030EDBCFEAFF020EE95E000EEA5A09
:1012B000740EE926000EEA22EF500E01295D12E1BC
:1012C000020EDBCFE9FF030EDBCFEAFFE906000EDB
:1012D000EA5A740EE926000EEA22EF502A5D02E176
:1012E00024EC04F00001876B9D8A00D0040EE15CC1
:1012F00002E2E16AE552E16EE552E7CFD9FF120062
:10130000180E9412280EC66EC56A0B0EC86E120017
:101310001F0EC51403E1C750040B02E0F9D7F8D73C
:101320001200C5801200C5821200C5841200C59A41
:10133000C5881200C58AC58812009EA6FED79E9653
:101340001200C586C7A0FED7C95000D01200D9CF61
:10135000E6FFE1CFD9FFFE0EDB50C96EC6AE03D06B
:10136000000E03D002D0010E00D0E552E7CFD9FF26
:101370001200D9CFE6FFE1CFD9FF020EE126FD0E24
:10138000DBCF14F0FE0EDBCF15F015C014F0156A9C
:101390001F0E1414DF6EFD0EDB50E76E010EE7CF5B
:1013A000DBFFB6DFBEDFC9DF900EE66ED0DFE552B1
:1013B000C5BCFED7C2DFFC0EDBCFE6FFC8DFE552BF
:1013C000C5BCFED7BADFB1DFB8DF020EE15C02E2D6
:1013D000E16AE552E16EE552E7CFD9FF1200D9CFBD
:1013E000E6FFE1CFD9FF020EE126FD0EDBCF14F0C0
:1013F000FE0EDBCF15F015C014F0156A1F0E141485
:10140000DF6EFD0EDB50E76E010EE7CFDBFF80DF06
:1014100088DF93DFDFCFE6FF9ADFE552C5BCFED75A
:101420008CDF010EDBCFE6FF92DFE552C5BCFED7B5
:1014300084DFFC0EDB5015E0FA0EDBCFE9FFFB0E7C
:10144000DBCFEAFFEF50E66E82DFE552C5BCFED788
:1014500074DFFA0EDB2AFB0E01E3DB2AFC0EDB064F
:10146000E8D763DF6ADF020EE15C02E2E16AE5527F
:10147000E16EE552E7CFD9FF1200D9CFE6FFE1CF09
:10148000D9FF040EE126FD0EDBCF14F0FE0EDBCFFC
:1014900015F015C014F0156A1F0E1416000E15165F
:1014A000020E14C0DBFFFD0EDB50E76E030EE7CF2C
:1014B000DBFF2EDF36DF41DF910EE66E48DFE552BF
:1014C000C5BCFED73ADF3DDFDE6EDD6A36DF39DFD1
:1014D000166E176A086A010E096EDECF0DF0DDCFB9
:1014E0000EF0C1EC0CF006501624146E07501720B5
:1014F000156E14C0DEFF15C0DDFF1FDF1BDF1DDF13
:1015000014DF1BDFDECF14F0DDCF15F014C0F3FFC6
:1015100015C0F4FF040EE15C03E200D0E16AE5527D
:10152000E16EE552E7CFD9FF1200D9CFE6FFE1CF58
:10153000D9FF020EE126FD0EDBCF14F0FE0EDBCF4D
:1015400015F015C014F0156A1F0E1414DF6EFD0E91
:10155000DB50E76E010EE7CFDBFFDADEE2DEEDDE29
:10156000DFCFE6FFF4DEE552C5BCFED7E6DE010EB6
:10157000DBCFE6FFECDEE552C5BCFED7DEDED3DE18
:10158000DCDEFC0EDB501AE0DCDEE66EFA0EDBCFB2
:10159000E9FFFB0EDBCFEAFFE552E750EF6ECDDE51
:1015A000FA0EDB2AFB0E01E3DB2AFC0EDB06DB5026
:1015B00002E1C0DE01D0BBDEC0DEE3D7B6DEBDDEB9
:1015C000020EE15C02E2E16AE552E16EE552E7CF2C
:0415D000D9FF12002D
:0C15D40000C1814001C0804101C0804185
:1015E00000C1814001C0804100C1814000C18140F3
:1015F00001C0804101C0804100C1814000C18140E3
:1016000001C0804100C1814001C0804101C08041D2
:1016100000C1814001C0804100C1814000C18140C2
:1016200001C0804100C1814001C0804101C08041B2
:1016300000C1814000C1814001C0804101C08041A2
:1016400000C1814001C0804100C1814000C1814092
:1016500001C0804101C0804100C1814000C1814082
:1016600001C0804100C1814001C0804101C0804172
:1016700000C1814000C1814001C0804101C0804162
:1016800000C1814001C0804100C1814000C1814052
:1016900001C0804100C1814001C0804101C0804142
:1016A00000C1814001C0804100C1814000C1814032
:1016B00001C0804101C0804100C1814000C1814022
:1016C00001C0804100C1814001C0804101C0804112
:1016D00000C1814000C0C101C30302C2C60607C7E2
:1016E00005C5C404CC0C0DCD0FCFCE0E0ACACB0B52
:1016F000C90908C8D81819D91BDBDA1A1EDEDF1F82
:10170000DD1D1CDC14D4D515D71716D6D21213D371
:1017100011D1D010F03031F133F3F23236F6F73721
:10172000F53534F43CFCFD3DFF3F3EFEFA3A3BFB11
:1017300039F9F83828E8E929EB2B2AEAEE2E2FEFC1
:101740002DEDEC2CE42425E527E7E62622E2E32331
:10175000E12120E0A06061A163A3A26266A6A76761
:10176000A56564A46CACAD6DAF6F6EAEAA6A6BABD1
:1017700069A9A86878B8B979BB7B7ABABE7E7FBF01
:101780007DBDBC7CB47475B577B7B67672B2B373F1
:10179000B17170B0509091519353529296565797A1
:1017A000559594549C5C5D9D5F9F9E5E5A9A9B5B91
:1017B00099595898884849894B8B8A4A4E8E8F4F41
:1017C0008D4D4C8C448485458747468682424383B1
:0417D0004181804093
:0C17D400050EC26E0F01020E5D6F5C6B13
:1017E000BF0EC06E1200D9CFE6FFE1CFD9FF160EB3
:1017F000E126100EDB6A110EDB6A120EDB6AC2B242
:10180000FED7C450E66ED950140FE96EDACFEAFF66
:10181000E552E750EE6EED6A140EDBCF16F0150EB2
:10182000DBCF17F016C017F0166AC350000116245C
:10183000146E000E1720156E140E14C0DBFF150E6B
:1018400015C0DBFFD9CF14F0DACF15F0120EDB5044
:10185000020D1450F324E96E1550F420EA6E140EB4
:10186000DBCFEEFF150EDBCFEDFF120EDB500708CE
:1018700040E1140EDB6A150EDB6A130EDB6A080EFC
:10188000F36E130EDBCFF4FFF350F45C1DE2D9CFFF
:1018900016F0DACF17F0130EDB50020D1650F324BA
:1018A000E96E1750F420EA6EEECF14F0EFCF15F08A
:1018B000D950140FE96EDACFEAFF1450EE26155016
:1018C000ED22130EDB2ADBD7140EDBCF14F0150E3E
:1018D000DBCF15F0030ED89015321432E804FBE18B
:1018E000100E14C0DBFF110E15C0DBFF120EDB6AF9
:1018F00002D0120EDB2AD9CF1AF0DACF1BF0DB5060
:10190000020D1A50F324E96E1B50F420EA6EEECF5C
:1019100018F0EFCF19F018C008F019C009F0ACECBE
:101920000CF007C014F008C015F009C016F00AC08A
:1019300017F014C006F015C007F016C008F017C065
:1019400009F0160EE15C03E200D0E16AE552E16EB7
:08195000E552E7CFD9FF1200B8
:08195800019E08D0019E09AEBA
:1019600005D0086C091EE86A0922018E09C003F03F
:1019700008C002F0136A126A8E0E046E056AFBEF4D
:101980000CF008C012F008500D02F4CF07F0F3CFAE
:1019900006F009500E02F4CF09F0F3CF08F00D0263
:1019A000F3500726F4500822E86A092212500E026A
:1019B000F3500726F4500822E86A0922000C7F0E33
:1019C0000A6EFF0E096E086E076E12007F0E01BED2
:1019D000FF0E0A6E02D07F0E0A6E800E096E086A34
:1019E000076AF3D701AE04D0800E0A6E096AF7D7F2
:1019F0000A6A096AF4D70350021013101210F8E0B3
:101A000005BEF0D703BE0CD004500510EBE0D89013
:101A100012361336023603360406D8A00506F2D76E
:101A20000550D4E10428D2E012AE11D07F0E12147A
:101A300002E113A00CD0132AE86A0222032207E372
:101A4000D880033202321332042A0428BFE0045043
:101A5000C9E013C007F002C008F00334096E043077
:0E1A60000A6E09320A9E01BE0A8EE5EF0CF0F6
:021A6E00FC0E6C
:101A7000CF6E180ECE6ECF0ECD141009CD6ECD8266
:101A80003F0ECD140009CD6E9D8012000001886BC1
:101A9000896B8C6B8D6B906B916B62C060F063C0D7
:101AA00061F08A518B1113E08A6B8B6B010E886F8A
:101AB000896B0001855100080AE28507855107E11D
:101AC00000018751000803E2876B0001846B00016D
:101AD0009251931105E0926B936B010E906F916B95
:101AE0008E518F110FE08E6B8F6B010E8C6F8D6B93
:101AF000942B000E9523140E945D000E955902E36D
:101B0000946B956B120094940F010C0E506F996AB0
:101B1000A394A4944C0ECA6E8F0ECB6E516B120020
:101B2000D9CFE6FFE1CFD9FFFD0EDBCF14F0FE0EDB
:101B3000DBCF15F0D89015321432D890153214320C
:101B400014C051FF030EE76EFD0EDBCF14F0FE0E46
:101B5000DBCF15F0E7501416156A040ED890143632
:101B60001536E804FBE114500F015013E552E7CF9E
:041B7000D9FF120087
:0C1B74009392948E949C330EAF6EAB8E57
:101B8000AC84AC98AC8AAB889D8A9D988A821200FE
:101B9000D9CFE6FFE1CFD9FFFE0EDB50AD6EACA290
:101BA000FED7E552E7CFD9FF1200D9CFE6FFE1CF4C
:101BB000D9FF020EE1268A92DE6ADD6ADECF14F0DA
:101BC000DDCF15F0640E145C000E155805E2DF2A17
:101BD000010E01E3DB2AF2D7DE6ADD6ADECF14F004
:101BE000DDCF15F0FB0EDBCF16F0FC0EDBCF17F0D0
:101BF0001650145C1750155815E2FD0EDBCF14F08B
:101C0000FE0EDBCF15F0DE501424E96EDD501520FA
:101C1000EA6EEF50E66EBCDFE552DF2A010E01E30B
:101C2000DB2ADCD78A82020EE15C02E2E16AE5523D
:0A1C3000E16EE552E7CFD9FF120084
:061C3A00E80EF66E010E3B
:101C4000F76E000EF86E00010900F5509B6F090059
:101C5000F5509C6F03E19B6701D03DD00900F55022
:101C6000966F0900F550976F0900F550986F0900BD
:101C70000900F550E96E0900F550EA6E0900090007
:101C80000900F550996F0900F5509A6F0900090095
:101C9000F6CF9DF0F7CF9EF0F8CF9FF096C0F6FFFD
:101CA00097C0F7FF98C0F8FF0001995302E19A53DB
:101CB00007E00900F550EE6E9907F8E29A07F9D7A8
:101CC0009DC0F6FF9EC0F7FF9FC0F8FF00019B0775
:081CD000000E9C5BBFD712005F
:081CD800FF0EE3501D6EEF0E3C
:101CE00001D0F30EE76EE72E73EF0EF00C0E1C6EB4
:101CF000E76AE72E79EF0EF01C2E78EF0EF01D2E1E
:061D000071EF0EF012006D
:0A1D0600056A046A100EE76ED8901B
:101D100008360936043605360D50045C0E50055859
:101D200005E30D50045E0E50055A082AE72EF0D741
:021D300012009F
:0E1D3200410EF36E00EE00F00E0E01D812000E
:101D4000EA6002D0EE6AFCD7F350E9601200EE6A56
:021D5000FCD7BE
:0E1D52001DEE00F02DEE00F0F86A019C1DEC75
:0E1D60000EF003EC00F05FEC00F0FBD7120079
:021D6E00000073
:101D70000000000000000000000000000000000063
:101D80000000000000000000000000000000000053
:091D90000000000000000000004A
:051D9900000000000045
:020000040030CA
:0100000015EA
:0100010008F6
:010003007C80
:00000001FF
