:020000040000FA
:06000000F5EF16F01200FE
:0A00060004008A2E0000000E000026
:1000100040000000842E000078010000060000006F
:10002000402E00000001000044000000082E0000E7
:08003000C300000038000000CD
:08003800D9CFE6FFE1CFD9FFAB
:10004000060EE126DE6ADD6A020EDB68030EDB685F
:10005000FB0EDBCF14F0DB06FC0EDBCF15F001E26C
:10006000DB06145015103DE0020EDBCFE6FFFD0E5F
:10007000DBCFE9FFDB2AFE0EDBCFEAFF01E3DB2A61
:10008000EF50E552E718E66ED950040FE96EDACF6B
:10009000EAFFE552E750EE6EED6A030EDBCFE6FFB6
:1000A000040EDBCFF6FF050EDBCFF7FF240EF6269E
:1000B000270EF7220800F550E552E718E76E020E0A
:1000C000E7CFDBFF040EDBCFF6FF050EDBCFF7FF3C
:1000D000240EF626280EF7220800030EF5CFDBFFCC
:1000E000B7D7020EDB50146E156A14C015F0146AEF
:1000F00014C0DEFF15C0DDFF030EDB50DE26000E50
:10010000DD22020EDBCF42F1030EDBCF43F1DECF67
:1001100014F0DDCF15F014C0F3FF15C0F4FF060E88
:10012000E15C03E200D0E16AE552E16EE552E7CF1F
:10013000D9FF12000001C151E66EE66A640EE66E58
:10014000000EE66E21EC16F0E552E552E552E5525E
:100150001200D9CFE6FFE1CFD9FF0C0EE1260B0E3E
:10016000DB6A77C0DFFF010EDFCFDBFF030E79C054
:10017000DBFFDB50F80BE842E842E842E76E020E94
:10018000E7CFDBFF030EDB50070B02E0020EDB2A9A
:10019000080EDB6A020EDB50F36E080EDBCFF4FFB5
:1001A000F350F45C5EE2080EDB50030FE76E060EC0
:1001B000E7CFDBFFDB50EA6A640FE96E000EEA224C
:1001C000EF6A070EDB6A080EF36E070EDBCFF4FF53
:1001D000F350F45C3FE2D950090FE66E000EDA20CE
:1001E000E66E010EDBCFE6FFE66A20DBE552E55264
:1001F000E552E552090EDBCF16F00A0EDBCF17F001
:10020000070EDB5016C014F017C015F005E0D890AB
:1002100014361536E804FBE1060EDB50EA6A640F7B
:10022000E96E000EEA221450EF12010EDB2A030ED3
:10023000DB50DF24F36E010EDBCFF4FFF350F45CF0
:1002400006E3010EF36E0B0EF3CFDBFF03D0070EB8
:10025000DB2AB9D70B0EDB0401E103D0080EDB2A41
:1002600099D75FC164F00001010E656F020EDBCF0C
:1002700066F0030E146E020EDBCFE7FF1450E72684
:10028000020EE7CFDBFFDBCFE6FFE66A640EE66E29
:10029000000EE66ED1DEE552E552E552E552040E5F
:1002A000F3CFDBFF050EF4CFDBFF040EDBCF14F042
:1002B000050EDBCF15F015C014F0156A020EDB50E9
:1002C000EA6A640FE96E000EEA2214C0EFFF020E24
:1002D000DB2AFF0EE76E040EDBCF14F0050EDBCF3A
:1002E00015F0E7501416156A020EDB50EA6A640F27
:1002F000E96E000EEA2214C0EFFF020EDB280001B7
:10030000C16F18DF0C0EE15C02E2E16AE552E16EBA
:10031000E552E7CFD9FF1200D9CFE6FFE1CFD9FFF1
:100320000A0EE126080EDB6A090EDB6A77C0DFFFE2
:10033000010EDFCFDBFF040E79C0DBFFDB50020DC7
:10034000050EF3CFDBFF060EDB6A070EDB6A060E37
:10035000DBCF14F0070EDBCF15F0050EDB50166E69
:10036000176A1650145C1750155853E2D950080FED
:10037000E66E000EDA20E66E010EDBCFE6FFE66ADF
:1003800077DBE552E552E552E552080EDBCF14F07B
:10039000090EDBCF15F015C014F0156A030EE76ED9
:1003A000060EDBCFE9FF070EDBCFEAFFE750E926B9
:1003B000000EEA22640EE926000EEA2214C0EFFFC6
:1003C000FF0EE76E080EDBCF14F0090EDBCF15F041
:1003D000E7501416156A040EE76E060EDBCFE9FF30
:1003E000070EDBCFEAFFE750E926000EEA22640E93
:1003F000E926000EEA2214C0EFFFD950060FE96E7D
:10040000DACFEAFF020EEE26000EED22010EDB2A05
:100410009ED75FC164F00001030E656F050EDBCF50
:1004200066F0030E146E050EDBCFE7FF1450E726CF
:10043000050EE7CFDBFFDBCFE6FFE66A640EE66E74
:10044000000EE66EF9DDE552E552E552E552020E88
:10045000F3CFDBFF030EF4CFDBFF020EDBCF14F094
:10046000030EDBCF15F015C014F0156A050EDB5036
:10047000EA6A640FE96E000EEA2214C0EFFF050E6F
:10048000DB2AFF0EE76E020EDBCF14F0030EDBCF8C
:1004900015F0E7501416156A050EDB50EA6A640F72
:1004A000E96E000EEA2214C0EFFF050EDB28000102
:1004B000C16F40DE0A0EE15C02E2E16AE552E16EE4
:1004C000E552E7CFD9FF1200D9CFE6FFE1CFD9FF40
:1004D000060EE12677C0DFFF010EDFCFDBFF040E43
:1004E00078C0DBFFDB50FF0808E1010EF36E020E5F
:1004F000F3CFDBFF030EDB6A07D0040EDB5004E111
:10050000020EDB6A030EDB6A020EDBCFE6FF030E90
:10051000DBCFE6FF010EDBCFE6FFE66A18DAE55235
:10052000E552E552E552050EDB6A0001C251F36E59
:10053000050EDBCFF4FFF350F45C16E2050EDB5042
:10054000EA6A740FE96E000EEA22EF50E66E050EBD
:10055000DB50EA6A640FE96E000EEA22E552E750CA
:10056000EF6E050EDB2AE1D7C2C0C1F0E3DD060E57
:10057000E15C02E2E16AE552E16EE552E7CFD9FFC4
:100580001200D9CFE6FFE1CFD9FF070EE12677C0F1
:10059000DFFF010EDFCFDBFF00017851000EF350CB
:1005A0007925E66ED950050FE96EDACFEAFFE552FC
:1005B000E750EE6EED6A050EDBCFE6FF060EDBCFF1
:1005C000E6FF010EDBCFE6FFE66A9CDAE552E55274
:1005D000E552E5525FC164F00001060E656F080E3A
:1005E000146EDF5014C0E7FFE75204E0E8427F0BCF
:1005F000E706FCE10001666FDFCF67F078C068F0C6
:1006000079C069F0060EF36E020EF3CFDBFF060E23
:10061000E66EE66A640EE66E000EE66E0DDDE552ED
:10062000E552E552E552030EF3CFDBFF040EF4CFA3
:10063000DBFF030EDBCF14F0040EDBCF15F015C08B
:1006400014F0156A14C06AF0FF0EE76E030EDBCFDC
:1006500014F0040EDBCF15F0E7501416156A14C021
:100660006BF00001080EC16F65DD070EE15C02E270
:10067000E16AE552E16EE552E7CFD9FF1200D9CF2A
:10068000E6FFE1CFD9FF0D0EE126090EDB6A0A0E67
:10069000DB6A0B0EDB6A0C0EDB6A77C0DFFF010E34
:1006A000DFCFDBFF030E79C0DBFF020E7AC0DBFF7A
:1006B000080EDB6A030EDB50F36E080EDBCFF4FF8F
:1006C000F350F45C53E2080EDB50E824070FEA6AAB
:1006D000740FE96E000EEA22EF50E66ED950090F52
:1006E000E96EDACFEAFFE552E750EE6EED6A080EEA
:1006F000DB50E824080FEA6A740FE96E000EEA2264
:10070000EF50E66ED9500B0FE96EDACFEAFFE552F3
:10071000E750EE6EED6A090EDBCF16F00A0EDBCF66
:1007200017F016C017F0166A0B0EDB501624146E65
:100730000C0EDB501720156E060E14C0DBFF070EE3
:1007400015C0DBFF060EDBCFE6FF070EDBCFE6FFB3
:10075000010EDBCFE6FFE66AD5D9E552E552E55258
:10076000E552080EDB2A010EDB2AA4D700017451E2
:1007700053E05FC164F00001100E656F080E146E47
:10078000DF5014C0E7FFE75204E0E8427F0BE706C2
:10079000FCE10001666FDFCF67F0080E146E030EF8
:1007A000DB5014C0E7FFE75204E0E8427F0BE706A6
:1007B000FCE10001686F030EDBCF69F0060EE66E08
:1007C000E66A640EE66E000EE66E36DCE552E55231
:1007D000E552E552040EF3CFDBFF050EF4CFDBFF4D
:1007E000040EDBCF14F0050EDBCF15F015C014F0AE
:1007F000156A14C06AF0FF0EE76E040EDBCF14F02A
:10080000050EDBCF15F0E7501416156A14C06BF017
:100810000001080EC16F8EDC0D0EE15C02E2E16AA0
:10082000E552E16EE552E7CFD9FF1200D9CFE6FFDE
:10083000E1CFD9FF040EE126DE6ADD6AFD0EDBCFD3
:1008400014F0FE0EDBCF15F0FF0E14160F0E15166A
:10085000020E14C0DBFF030E15C0DBFF020EDBCF60
:1008600008F0030EDBCF09F00F0E081801E1095064
:100870005AE00E0E081801E1095054E00D0E081858
:1008800001E109504EE00C0E081801E1095048E062
:100890000B0E081801E1095042E00A0E081801E1A8
:1008A00009503CE0090E081801E1095036E0080E35
:1008B000081801E1095030E0070E081801E109505D
:1008C0002AE0060E081801E1095024E0050E081878
:1008D00001E109501EE0040E081801E1095018E07A
:1008E000030E081801E1095012E0020E081801E198
:1008F00009500CE0010E081801E1095006E008500B
:1009000001E1095001E010D00FD00ED00DD00CD075
:100910000BD00AD009D008D007D006D005D004D01B
:1009200003D002D001D000D0DECF14F0DDCF15F01F
:1009300014C0F3FF15C0F4FF040EE15C03E200D025
:10094000E16AE552E16EE552E7CFD9FF1200D9CF57
:10095000E6FFE1CFD9FF040EE126DE6ADD6AFD0E77
:10096000DBCF14F0FE0EDBCF15F0FF0E14160F0ECA
:100970001516020E14C0DBFF030E15C0DBFF020EBE
:10098000DBCF08F0030EDBCF09F0110E081801E1F0
:1009900009505AE0100E081801E1095054E00F0EFA
:1009A000081801E109504EE00E0E081801E1095047
:1009B00048E00D0E081801E1095042E00C0E08183D
:1009C00001E109503CE00B0E081801E1095036E046
:1009D0000A0E081801E1095030E0070E081801E17D
:1009E00009502AE0060E081801E1095024E0050E1E
:1009F000081801E109501EE0040E081801E1095031
:100A000018E0030E081801E1095012E0020E081860
:100A100001E109500CE0010E081801E1095006E05F
:100A2000085001E1095001E010D00FD00ED00DD0D8
:100A30000CD00BD00AD009D008D007D006D005D0F2
:100A400004D003D002D001D000D0DECF14F0DDCF2F
:100A500015F014C0F3FF15C0F4FF040EE15C03E2CF
:100A600000D0E16AE552E16EE552E7CFD9FF12000E
:100A7000D9CFE6FFE1CFD9FF040EE126DE6ADD6AB9
:100A8000FF0EE76EFD0EDBCF14F0FE0EDBCF15F090
:100A9000E7501416156A020E14C0DBFF030E15C0D2
:100AA000DBFF020EDBCFE9FF030EDBCFEAFF010E17
:100AB000D890E936EA36E806FBE1010EE926010E98
:100AC000EA22EECF14F0EFCF15F0FB0EDBCFE9FFFB
:100AD000FC0EDBCFEAFF14C0EEFF15C0EDFFDECF4A
:100AE00014F0DDCF15F014C0F3FF15C0F4FF040EB1
:100AF000E15C03E200D0E16AE552E16EE552E7CF46
:100B0000D9FF1200D9CFE6FFE1CFD9FF080EE126C9
:100B1000DE6ADD6AFB0EDBCF08F0FC0EDBCF09F0EE
:100B200084EC0FF0040E07C0DBFF050E08C0DBFFEE
:100B3000060E09C0DBFF070E0AC0DBFFFD0EDBCF90
:100B400014F0FE0EDBCF15F0FF0E14160F0E151667
:100B5000020E14C0DBFF030E15C0DBFF010145517F
:100B600001E024D10101350E416FFD0EDBCF14F001
:100B7000FE0EDBCF15F0040E0F0B05E0D8901532FA
:100B80001432E806FBE1010E14240101466F4651C0
:100B9000040A01E1B8D0070A64E0010A10E0030A80
:100BA00001E003D1040EDBCF4BF1050EDBCF4CF19E
:100BB000060EDBCF4DF1070EDBCF4EF1F6D0FD0E6A
:100BC000DBCF14F0FE0EDBCF15F00001156A0F0E1F
:100BD0001416010E1426000E1522030E141801E13E
:100BE00015503EE1040EDBCF18F0050EDBCF19F0F7
:100BF000060EDBCF1AF0070EDBCF1BF00C6A0D6A76
:100C00007A0E0E6E450E0F6E18C007F019C008F070
:100C10001AC009F01BC00AF099EC0FF007C014F0DD
:100C200008C015F009C016F00AC017F00A0E0C6EC5
:100C3000D70E0D6E230E0E6E3C0E0F6E14C007F015
:100C400015C008F016C009F017C00AF083EC10F0C8
:100C500007C047F108C048F109C049F10AC04AF18C
:100C6000A4D0FD0EDBCF14F0FE0EDBCF15F000019B
:100C7000156A0F0E1416010E1426000E1522030E0F
:100C8000141801E115503EE1040EDBCF18F0050EFB
:100C9000DBCF19F0060EDBCF1AF0070EDBCF1BF00F
:100CA0000C6A400E0D6E1C0E0E6E460E0F6E18C0B6
:100CB00007F019C008F01AC009F01BC00AF099EC3F
:100CC0000FF007C014F008C015F009C016F00AC0F4
:100CD00017F0CD0E0C6ECC0E0D6E0E6E3D0E0F6E1F
:100CE00014C007F015C008F016C009F017C00AF0CC
:100CF00083EC10F007C04FF108C050F109C051F16A
:100D00000AC052F152D0FD0EDBCF14F0FE0EDBCF45
:100D100015F00001156A0F0E1416010E1426000EB0
:100D20001522030E141801E115503EE1040EDBCF2D
:100D300018F0050EDBCF19F0060EDBCF1AF0070E08
:100D4000DBCF1BF00C6A400E0D6E1C0E0E6E460EB5
:100D50000F6E18C007F019C008F01AC009F01BC0C8
:100D60000AF099EC0FF007C014F008C015F009C0A4
:100D700016F00AC017F0CD0E0C6ECC0E0D6E0E6E76
:100D80003D0E0F6E14C007F015C008F016C009F034
:100D900017C00AF083EC10F007C053F108C054F1FB
:100DA00009C055F10AC056F100D019D00101350E25
:100DB000416F020EDBCFE9FF030EDBCFEAFF010E2E
:100DC000D890E936EA36E806FBE1210EE926010E65
:100DD000EA22FB0EDBCFEEFFFC0EDBCFEDFFDECF1A
:100DE00014F0DDCF15F014C0F3FF15C0F4FF080EAA
:100DF000E15C03E200D0E16AE552E16EE552E7CF43
:100E0000D9FF1200D9CFE6FFE1CFD9FF040EE126CA
:100E1000DE6ADD6ADECF14F0DDCF15F0FD0EDBCF2C
:100E200016F0FE0EDBCF17F01650145C1750155855
:100E30001AE2020EDB6A030EDB6A020EDBCF14F04D
:100E4000030EDBCF15F00A0E145C000E155806E2F7
:100E5000020EDB2A030E01E3DB2AEFD7DF2A010EA5
:100E600001E3DB2AD7D7040EE15C02E2E16AE55236
:100E7000E16EE552E7CFD9FF1200D9CFE6FFE1CF0F
:100E8000D9FF040EE1260101030E5F6F0001C2517C
:100E9000040801E320D100017551100A01E19AD044
:100EA0001F0A54E00E0A07E0020A05E0060A03E002
:100EB000030A01E010D1080E0001C25D46E39D9ACD
:100EC000F29E01015F510001745D3BE10A0EE66E86
:100ED000E66A98DFE552E552060EE66EE66A740EA3
:100EE000E66E000EE66E1CEC00F0E552E552E552AF
:100EF000E552F3CFDEFFF4CFDDFF00017A510101AF
:100F0000425D1EE100017B510101435D19E18B7CD3
:100F10000001750503E1A9EC00F011D0030E755D29
:100F200003E18CEC01F00BD0050E755D03E164EC80
:100F300002F005D0060E755D02E1C1EC02F001D0B1
:100F40008B960001C26BF28E9D8AC5D07A51E66EF7
:100F5000D950020FE96EDACFEAFFE552E750EE6EA4
:100F6000ED6AD950020FE96EDACFEAFF090EEE26DC
:100F7000000EED22020EDBCF14F0030EDBCF15F0D6
:100F800000011450C25D000E155423E301015F51AE
:100F90000001745D1CE1020EDBCF14F0030EDBCF09
:100FA00015F0020E145E000E155A14C0E6FF15C0AF
:100FB000E6FF740EE66E000EE66E1CEC00F0E552E5
:100FC000E552E552E552F3CFDEFFF4CFDDFF00013D
:100FD000C26B81D07851000EF3507925E66ED9505E
:100FE000020FE96EDACFEAFFE552E750EE6EED6AE6
:100FF000020E086E096ADBCF0DF0030EDBCF0EF098
:10100000F0EC10F0020E06C0DBFF030E07C0DBFFA2
:10101000D950020FE96EDACFEAFF090EEE26000E74
:10102000ED22020EDBCF14F0030EDBCF15F0000132
:101030001450C25D000E15544DE39D9A01015F519D
:101040000001745D02E0745142E1020EDBCF14F046
:10105000030EDBCF15F0020E145E000E155A14C0FD
:10106000E6FF15C0E6FF740EE66E000EE66E1CECA1
:1010700000F0E552E552E552E552F3CFDEFFF4CF42
:10108000DDFF020EDBCFE9FF030EDBCFEAFF020E2E
:10109000E95E000EEA5A740EE926000EEA22EF50CD
:1010A0000101425D14E1020EDBCFE9FF030EDBCF4D
:1010B000EAFFE906000EEA5A740EE926000EEA225B
:1010C000EF50435D04E174C045F13FEC03F00001D3
:1010D000C26B9D8A00D0040EE15C02E2E16AE55237
:0A10E000E16EE552E7CFD9FF1200E0
:0610EA00FC0ECF6E180E93
:1010F000CE6ECF0ECD141009CD6ECD823F0ECD1425
:101100000009CD6E9D8012000101606B616B646B04
:10111000656B686B696B62C060F063C061F06251BF
:10112000631113E0626B636B010E606F616B000112
:10113000C05100080AE2C007C05107E10001C251D6
:10114000000803E2C26B0001BF6B01016A516B1121
:1011500005E06A6B6B6B010E686F696B6651671116
:101160000FE0666B676B010E646F656B6C2B000E96
:101170006D23140E6C5D000E6D5902E36C6B6D6B8C
:10118000120094940F010C0E506F996AA394A494CA
:101190004C0ECA6EC70ECB6E516B1200D9CFE6FF54
:1011A000E1CFD9FF040EE126DE6ADE6ADE6ADD6A7F
:1011B000DD52DD52FB0EDBCF14F0FC0EDBCF15F061
:1011C000FD0EDBCF16F0FE0EDBCF17F00A0E0C6E15
:1011D000D70E0D6E230E0E6E3C0E0F6E14C007F070
:1011E00015C008F016C009F017C00AF083EC10F023
:1011F00007C0DEFF08C0DEFF09C0DEFF0AC0DDFF5A
:10120000DD52DD52D9CFE9FFDACFEAFFEECF14F09D
:10121000EECF15F0EECF16F0EFCF17F00C6A0D6A97
:10122000480E0E6E440E0F6E14C007F015C008F085
:1012300016C009F017C00AF083EC10F007C0DEFFFB
:1012400008C0DEFF09C0DEFF0AC0DDFFDD52DD524F
:10125000DECF07F0DECF08F0DECF09F0DDCF0AF0F9
:10126000DD52DD520EEC11F008C014F009C015F08B
:10127000D89015321432D8901532143214C051FF60
:10128000DECF07F0DECF08F0DECF09F0DDCF0AF0C9
:10129000DD52DD520EEC11F008C014F009C015F05B
:1012A000030E1416000E1516040ED89014361536BB
:1012B000E804FBE114500F015013040EE15C02E25C
:1012C000E16AE552E16EE552E7CFD9FF1200D9CFCE
:1012D000E6FFE1CFD9FF120EE126DE6ADE6ADE6AA2
:1012E000DD6ADD52DD52040EDB6A050EDB6A060E96
:1012F000DB6A070EDB6A080EDB6A090EDB6A0A0E80
:10130000DB6A0B0EDB6A0C0EDB6A0D0EDB6A0E0E5F
:10131000DB6A0F0EDB6A100EDB6A110EDB6AFB0E56
:10132000DBCF08F0FC0EDBCF09F084EC0FF0040EED
:1013300007C0DBFF050E08C0DBFF060E09C0DBFFA0
:10134000070E0AC0DBFFFD0EDBCF08F0FE0EDBCF81
:1013500009F084EC0FF007C0DEFF08C0DEFF09C013
:10136000DEFF0AC0DDFFDD52DD52EBC0EFF0ECC066
:10137000F0F0EDC0F1F0EEC0F2F0E7C0EBF0E8C045
:10138000ECF0E9C0EDF0EAC0EEF0D9CFE9FFDACF3A
:10139000EAFFEECF14F0EECF15F0EECF16F0EFCF60
:1013A00017F0040EDBCF18F0050EDBCF19F0060E98
:1013B000DBCF1AF0070EDBCF1BF018C00CF019C002
:1013C0000DF01AC00EF01BC00FF014C007F015C0CE
:1013D00008F016C009F017C00AF099EC0FF007C02A
:1013E000E7F008C0E8F009C0E9F00AC0EAF0E7C099
:1013F0000CF0E8C00DF0E9C00EF0EAC00FF0D7C065
:1014000007F0D8C008F0D9C009F0DAC00AF083ECC0
:1014100010F007C018F008C019F009C01AF00AC08F
:101420001BF0EBC00CF0ECC00DF0EDC00EF0EEC008
:101430000FF0DBC007F0DCC008F0DDC009F0DEC053
:101440000AF083EC10F007C01CF008C01DF009C0C2
:101450001EF00AC01FF01CC00CF01DC00DF01EC015
:101460000EF01FC00FF018C007F019C008F01AC026
:1014700009F01BC00AF099EC0FF007C014F008C087
:1014800015F009C016F00AC017F0EFC00CF0F0C05C
:101490000DF0F1C00EF0F2C00FF0DFC007F0E0C0B9
:1014A00008F0E1C009F0E2C00AF083EC10F007C0D8
:1014B00020F008C021F009C022F00AC023F020C0AB
:1014C0000CF021C00DF022C00EF023C00FF014C0AC
:1014D00007F015C008F016C009F017C00AF09AEC22
:1014E0000FF007C0F3F008C0F4F009C0F5F00AC02F
:1014F000F6F0F3C00CF0F4C00DF0F5C00EF0F6C03D
:101500000FF0F7C007F0F8C008F0F9C009F0FAC012
:101510000AF09AEC0FF007C0F7F008C0F8F009C025
:10152000F9F00AC0FAF0E3C008F0E4C009F086EC74
:101530000FF007C014F008C015F009C016F00AC07B
:1015400017F014C00CF015C00DF016C00EF017C047
:101550000FF0F7C007F0F8C008F0F9C009F0FAC0C2
:101560000AF03DEC11F0010A0FE1E3C008F0E4C01D
:1015700009F086EC0FF007C0F7F008C0F8F009C0DA
:10158000F9F00AC0FAF030D0E5C008F0E6C009F082
:1015900086EC0FF007C014F008C015F009C016F073
:1015A0000AC017F014C00CF015C00DF016C00EF0F4
:1015B00017C00FF0F7C007F0F8C008F0F9C009F045
:1015C000FAC00AF046EC11F0010A0EE1E5C008F09D
:1015D000E6C009F086EC0FF007C0F7F008C0F8F09D
:1015E00009C0F9F00AC0FAF0E5C008F0E6C009F059
:1015F00086EC0FF007C01CF008C01DF009C01EF0FB
:101600000AC01FF01CC00CF01DC00DF01EC00EF073
:101610001FC00FF0F7C007F0F8C008F0F9C009F0DC
:10162000FAC00AF099EC0FF007C018F008C019F0E2
:1016300009C01AF00AC01BF00001E551E35D246EF9
:10164000E451E655256E24C008F025C009F086EC6B
:101650000FF007C020F008C021F009C022F00AC036
:1016600023F020C00CF021C00DF022C00EF023C0EA
:101670000FF018C007F019C008F01AC009F01BC01D
:101680000AF030EC10F007C014F008C015F009C0E3
:1016900016F00AC017F00C6A0D6AC80E0E6E420EE4
:1016A0000F6E14C007F015C008F016C009F017C07F
:1016B0000AF083EC10F00C0E07C0DBFF0D0E08C023
:1016C000DBFF0E0E09C0DBFF0F0E0AC0DBFF146A42
:1016D000156AC80E166E420E176E0C0EDBCF18F090
:1016E0000D0EDBCF19F00E0EDBCF1AF00F0EDBCF95
:1016F0001BF018C00CF019C00DF01AC00EF01BC082
:101700000FF014C007F015C008F016C009F017C09C
:101710000AF099EC0FF0080E07C0DBFF090E08C0B5
:10172000DBFF0A0E09C0DBFF0B0E0AC0DBFFD9503E
:10173000080FE96EDACFEAFFEECFE6FFEECFE6FF65
:10174000EECFE6FFEFCFE6FF29DDE552E552E552A9
:10175000E552186A196AC80E1A6E420E1B6E080E00
:10176000DBCF1CF0090EDBCF1DF00A0EDBCF1EF025
:101770000B0EDBCF1FF01CC00CF01DC00DF01EC007
:101780000EF01FC00FF018C007F019C008F01AC003
:1017900009F01BC00AF099EC0FF007C014F008C064
:1017A00015F009C016F00AC017F00C6A0D6AC80ED1
:1017B0000E6E420E0F6E14C007F015C008F016C072
:1017C00009F017C00AF083EC10F00EEC11F0100EC7
:1017D00008C0DBFF110E09C0DBFF100EDBCF14F0D9
:1017E000110EDBCF15F0100E0D6E270E0E6E14C00D
:1017F00008F015C009F0CFEC16F008C014F009C0CD
:1018000015F00A0E0D6E0E6A14C008F015C009F02E
:10181000CFEC16F004C014F005C015F0300E1424FF
:101820000001646F100EDBCF14F0110EDBCF15F04A
:10183000E80E0D6E030E0E6E14C008F015C009F010
:10184000CFEC16F008C014F009C015F00A0E0D6EAA
:101850000E6A14C008F015C009F0CFEC16F004C0F1
:1018600014F005C015F0300E14240001656F100E41
:10187000DBCF14F0110EDBCF15F0640E0D6E0E6A87
:1018800014C008F015C009F0CFEC16F008C014F031
:1018900009C015F00A0E0D6E0E6A14C008F015C0CE
:1018A00009F0CFEC16F004C014F005C015F0300EAE
:1018B00014240001666F100EDBCF14F0110EDBCF85
:1018C00015F00A0E0D6E0E6A14C008F015C009F06E
:1018D000CFEC16F008C014F009C015F00A0E0D6E1A
:1018E0000E6A14C008F015C009F0CFEC16F004C061
:1018F00014F005C015F0300E14240001676F100EAF
:10190000DBCF14F0110EDBCF15F00A0E0D6E0E6A50
:1019100014C008F015C009F0CFEC16F004C014F0A4
:1019200005C015F0300E14240001686F3B0E696F7E
:10193000120EE15C02E2E16AE552E16EE552E7CFA8
:04194000D9FF1200B9
:0C194400D9CFE6FFE1CFD9FF100EE1265D
:10195000DF6A010EDB6AD950020FE96EDACFEAFFC7
:10196000EE6AEE6A040EDB6A050EDB6A060EDB6ABF
:10197000070EDB6A080EDB6A090EDB6A0A0EDB6AF9
:101980000B0EDB6A0C0EDB6A0D0EDB6A0E0EDB6AD9
:101990000F0EDB6A0E01100E006F110E016F0A0EA2
:1019A000E66EB8EC16F0E552C1EC08F075EC08F004
:1019B000E66AE66AC80EE66E420EE66ECEEC08F007
:1019C000E552E552E552E55206EC16F092EC14F0C1
:1019D0002AEC12F0E66AE66A800EE66E8EEC15F0EE
:1019E000E552E552E55201017D6FF28CF28ECD8019
:1019F000A00EE66EB8EC16F0E5521E0EE66EB8ECE0
:101A000016F0E55284EC08F03DEC07F0350E0101CC
:101A1000415D01E0DBD0416B01014651040A01E167
:101A2000C4D0070A01E1B0D0010A01E1A4D0030A41
:101A300001E0CCD00A0E4BC1DBFF0B0E4CC1DBFF2B
:101A40000C0E4DC1DBFF0D0E4EC1DBFF0A0EDBCFCE
:101A500014F00B0EDBCF15F00C0EDBCF16F00D0ED5
:101A6000DBCF17F00C6A0D6AC80E0E6E420E0F6EB9
:101A700014C007F015C008F016C009F017C00AF02E
:101A80003DEC11F0010A0FE10A0EDB6A0B0EDB6A76
:101A9000C80EF36E0C0EF3CFDBFF420EF36E0D0E8D
:101AA000F3CFDBFF24D00A0EDBCF14F00B0EDBCF1D
:101AB00015F00C0EDBCF16F00D0EDBCF17F00C6A15
:101AC0000D6A0E6A0F6A14C007F015C008F016C040
:101AD00009F017C00AF046EC11F0010A08E10A0EFD
:101AE000DB6A0B0EDB6A0C0EDB6A0D0EDB6A146A16
:101AF000156AC80E166E420E176E0A0EDBCF18F06E
:101B00000B0EDBCF19F00C0EDBCF1AF00D0EDBCF76
:101B10001BF018C00CF019C00DF01AC00EF01BC05D
:101B20000FF014C007F015C008F016C009F017C078
:101B30000AF099EC0FF00A0E07C0DBFF0B0E08C08D
:101B4000DBFF0C0E09C0DBFF0D0E0AC0DBFFD95016
:101B50000A0FE96EDACFEAFFEECFE6FFEECFE6FF3F
:101B6000EECFE6FFEFCFE6FFCEEC08F0E552E55210
:101B7000E552E5522BD047C1CBF048C1CCF049C16A
:101B8000CDF04AC1CEF022D04FC1C3F050C1C4F055
:101B900051C1C5F052C1C6F053C1C7F054C1C8F01D
:101BA00055C1C9F056C1CAF011D04FC1C3F050C1E0
:101BB000C4F051C1C5F052C1C6F053C1C7F054C101
:101BC000C8F055C1C9F056C1CAF000D0350E0101A8
:101BD000785D01E08ED1786B000EE66EE66AE7EC88
:101BE00012F0E552E552040EF3CFDBFF050EF4CF01
:101BF000DBFF040EDBCF08F0050EDBCF09F084EC31
:101C00000FF007C020F008C021F009C022F00AC080
:101C100023F00C6A0D6A0E6A470E0F6E20C007F0A3
:101C200021C008F022C009F023C00AF030EC10F007
:101C300007C01CF008C01DF009C01EF00AC01FF04C
:101C40006F0E0C6E120E0D6E030E0E6E400E0F6EAA
:101C50001CC007F01DC008F01EC009F01FC00AF02C
:101C600083EC10F007C018F008C019F009C01AF092
:101C70000AC01BF0C3C00CF0C4C00DF0C5C00EF00C
:101C8000C6C00FF018C007F019C008F01AC009F05C
:101C90001BC00AF083EC10F007C014F008C015F068
:101CA00009C016F00AC017F0C7C00CF0C8C00DF08C
:101CB000C9C00EF0CAC00FF014C007F015C008F07C
:101CC00016C009F017C00AF09AEC0FF007C079F1BE
:101CD00008C07AF109C07BF10AC07CF10C6A0D6A78
:101CE000C80E0E6E420E0F6E79C107F07AC108F071
:101CF0007BC109F07CC10AF083EC10F00EEC11F00E
:101D0000060E08C0DBFF070E09C0DBFF060EDBCFA7
:101D100014F0070EDBCF15F0100E0D6E270E0E6EB1
:101D200014C008F015C009F0CFEC16F008C014F08C
:101D300009C015F00A0E0D6E0E6A14C008F015C029
:101D400009F0CFEC16F004C014F005C015F0300E09
:101D500014240001646F060EDBCF14F0070EDBCFF6
:101D600015F0E80E0D6E030E0E6E14C008F015C0CF
:101D700009F0CFEC16F008C014F009C015F00A0EF7
:101D80000D6E0E6A14C008F015C009F0CFEC16F005
:101D900004C014F005C015F0300E14240001656F66
:101DA000060EDBCF14F0070EDBCF15F0640E0D6EC0
:101DB0000E6A14C008F015C009F0CFEC16F008C088
:101DC00014F009C015F00A0E0D6E0E6A14C008F06A
:101DD00015C009F0CFEC16F004C014F005C015F0E2
:101DE000300E14240001666F060EDBCF14F0070ED0
:101DF000DBCF15F00A0E0D6E0E6A14C008F015C088
:101E000009F0CFEC16F008C014F009C015F00A0E66
:101E10000D6E0E6A14C008F015C009F0CFEC16F074
:101E200004C014F005C015F0300E14240001676FD3
:101E3000060EDBCF14F0070EDBCF15F00A0E0D6E89
:101E40000E6A14C008F015C009F0CFEC16F004C0FB
:101E500014F005C015F0300E14240001686F2C0E2C
:101E6000696F0D0E6A6F0C6A0D6A200E0E6E420EBF
:101E70000F6E79C107F07AC108F07BC109F07CC10F
:101E80000AF09AEC0FF007C014F008C015F009C072
:101E900016F00AC017F00C6A0D6AC80E0E6E420EDC
:101EA0000F6E14C007F015C008F016C009F017C077
:101EB0000AF083EC10F00EEC11F0080E08C0DBFF06
:101EC000090E09C0DBFF080EDBCF01F1090EDBCFE5
:101ED00002F1080EDBCF08F0090EDBCF09F084EC2D
:101EE0000FF007C0CFF008C0D0F009C0D1F00AC091
:101EF000D2F088D5100EE15C02E2E16AE552E16EB3
:081F0000E552E7CFD9FF120002
:081F0800019E08D0019E09AE04
:101F100005D0086C091EE86A0922018E09C003F089
:101F200008C002F0136A126A8E0E046E056AC0EFD2
:101F300011F00F7E016AFCEC11F014EC12F001B606
:101F4000A4EF11F001A20AD001AA03D001BEA4EFB0
:101F500011F001A4B0EF11F0ADEF11F001AA05D01E
:101F600001ACB0EF11F0ADEF11F001A00AD001A863
:101F700008D001BE04D001A402D0B9EF11F0BDEF2A
:101F800011F0126A056A0F500A5C116E10E307C067
:101F900013F008C002F009C003F00AC010F00CC032
:101FA00007F00DC008F00EC009F0013A09D00CC0CE
:101FB00013F00DC002F00EC003F00FC010F0116C52
:101FC000019E01BC018E10C004F001B0ECEF11F0D5
:101FD0001A0E1160ECEF11F0046A0A6A01A408D02D
:101FE000076C081E091E0A1EE86A082209220A2236
:101FF00001AC08D0136C021E031E041EE86A022204
:1020000003220422066A115207E00A340932083218
:1020100007320632112EF9D7075013260850022234
:10202000095003220A50042206C012F0019E04AE99
:102030000BD0126C131E021E031E041EE86A13222C
:10204000022203220422018E04A006D0D88003328B
:10205000023213321232102A10C004F0C0EF11F015
:10206000016AFCEC11F014EC12F001B6A4EF11F0CF
:1020700001A205D001BAA4EF11F0ABEF11F001BA43
:10208000B7EF11F001A005D001B8A4EF11F0B7EF40
:1020900011F001B8ABEF11F0056A7F0E0A24046E4F
:1020A000E86A05220F50045EE86A055A1A0E106E9F
:1020B0000A6A126A136A026A036A0C50075E0D50BC
:1020C000085A0E50095A000E0A5A09E70C50072602
:1020D0000D5008220E500922000E0A2201D0128A49
:1020E000D8900736083609360A36D8901236133695
:1020F00002360336102EE1D7095008100710D8A475
:10210000128AC0EF11F0016AFCEC11F014EC12F02D
:1021100001B6A4EF11F001A205D001B8A4EF11F0AF
:10212000ABEF11F001AA05D001B0A4EF11F0ABEFB5
:1021300011F001B002D001A802D0B7EF11F0056A8A
:102140000F500A24046EE86A05227E0E045EE86AD7
:10215000055A126A136A026A036A0E500902F4CF22
:1021600003F0F3CF02F00D500902F3501326F450A0
:102170000222000E03220E500802F3501326F450E0
:102180000222000E03220C500902F3501226F450D2
:102190001322000E022203220D500802F3501226D1
:1021A000F4501322000E022203220E500702F350B5
:1021B0001226F4501322000E022203220C500802B1
:1021C000F4501226000E1322022203220D500702A1
:1021D000F4501226000E132202220322C0EF11F047
:1021E00008C012F008500D02F4CF07F0F3CF06F04C
:1021F00009500E02F4CF09F0F3CF08F00D02F350AE
:102200000726F4500822E86A092212500E02F35001
:102210000726F4500822E86A0922000C016AFCEC47
:1022200011F001B618EF11F001A20ED001B405D0E3
:102230007F0E096EFF0E086E1FD0800E096E086AB1
:102240001BD0096A086A18D001B0FBD78F0E0A604C
:10225000EDD77E0E0A64F5D78E0E0A5C05E0D890A5
:10226000093208320A2AF8D701A406D0086C091EE0
:10227000E86A092209AEE5D712004FEC11F001B669
:10228000000C01B0000C01B4000C010C4FEC11F07B
:1022900001B6000C01B0000C01A4000C010C016A95
:1022A000FCEC11F014EC12F001B6120001AE08D0F3
:1022B00001A004D001A802D00180120001901200F8
:1022C0000F500A5C0BE10E50095C08E10D50085CF0
:1022D00005E10C50075C02E101801200D8A002D099
:1022E000018E10D00A500FC00AF00F6E09500EC0B8
:1022F00009F00E6E08500DC008F00D6E07500CC0AE
:1023000007F00C6E0F500A5C10E0FF0F09E001901F
:1023100001B403D001AE0184120001AE0194120099
:102320000F2AD8900E320D320C320C50075E0D5031
:10233000085A0E50095A09BEEAD7D890073608360F
:1023400009360A2EF8D7C8D77F0E0A6EFF0E096E1F
:10235000086E076E12007F0E01BEFF0E0A6E02D0DD
:102360007F0E0A6E800E096E086A076AF3D701AE07
:1023700004D0800E0A6E096AF7D70A6A096AF4D790
:102380000350021013101210F8E005BEF0D703BE80
:102390000CD004500510EBE0D890123613360236FC
:1023A00003360406D8A00506F2D70550D4E1042868
:1023B000D2E012AE11D07F0E121402E113A00CD0A5
:1023C000132AE86A0222032207E3D880033202328A
:1023D0001332042A0428BFE00450C9E013C007F0F8
:1023E00002C008F00334096E04300A6E09320A9EF6
:1023F00001BE0A8EAAEF11F009360A3602E3018403
:10240000017E06E101800A6A096A086A076A120009
:102410000A2803E0D88009321200D890093202E17C
:1024200001821200018612000E360F3602E3018C83
:10243000017E06E101880F6A0E6A0D6A0C6A1200BD
:102440000F2803E0D8800E321200D8900E32EAE155
:04245000018A1200EB
:0C245400180E9412280EC66EC56A0B0EFE
:10246000C86E12001F0EC51403E1C750040B02E032
:10247000F9D7F8D71200C5801200C5821200C584B2
:102480001200C59AC5881200C58AC58812009EA68A
:10249000FED79E961200C586C7A0FED7C95000D0B1
:1024A0001200D9CFE6FFE1CFD9FFFE0EDB50C96E97
:1024B000C6AE03D0000E03D002D0010E00D0E5520C
:1024C000E7CFD9FF1200D9CFE6FFE1CFD9FF020E47
:1024D000E126FD0EDBCF14F0FE0EDBCF15F015C0AC
:1024E00014F0156A1F0E1414DF6EFD0EDB50E76E3C
:1024F000010EE7CFDBFFB6DFBEDFC9DF900EE66E71
:10250000D0DFE552C5BCFED7C2DFFC0EDBCFE6FF55
:10251000C8DFE552C5BCFED7BADFB1DFB8DF020EB7
:10252000E15C02E2E16AE552E16EE552E7CFD9FFF4
:102530001200D9CFE6FFE1CFD9FF020EE126FD0E52
:10254000DBCF14F0FE0EDBCF15F015C014F0156ACA
:102550001F0E1414DF6EFD0EDB50E76E010EE7CF89
:10256000DBFF80DF88DF93DFDFCFE6FF9ADFE55216
:10257000C5BCFED78CDF010EDBCFE6FF92DFE55254
:10258000C5BCFED784DFFC0EDB5015E0FA0EDBCFB6
:10259000E9FFFB0EDBCFEAFFEF50E66E82DFE5528C
:1025A000C5BCFED774DFFA0EDB2AFB0E01E3DB2A83
:1025B000FC0EDB06E8D763DF6ADF020EE15C02E2B5
:1025C000E16AE552E16EE552E7CFD9FF1200D9CFBB
:1025D000E6FFE1CFD9FF060EE12644DF4CDF57DFEF
:1025E000910EE66E5EDFE552C5BCFED750DF53DFCD
:1025F000E66ED950040FE96EDACFEAFFE552E750F4
:10260000EE6EED6A44DF3DDF42DF45DFE66ED95016
:10261000020FE96EDACFEAFFE552E750EE6EED6A9F
:1026200036DF040EDBCF16F0050EDBCF17F016C039
:1026300017F0166A020EDB501624146E030EDB50E0
:102640001720156E14C0DEFF15C0DDFF1DDF1FDF74
:1026500016DF1DDFDECF14F0DDCF15F014C0F3FF61
:1026600015C0F4FF060EE15C03E200D0E16AE5521A
:10267000E16EE552E7CFD9FF1200D9CFE6FFE1CFF7
:10268000D9FF020EE126FD0EDBCF14F0FE0EDBCFEC
:1026900015F015C014F0156A1F0E1414DF6EFD0E30
:1026A000DB50E76E010EE7CFDBFFDCDEE4DEEFDEC2
:1026B000DFCFE6FFF6DEE552C5BCFED7E8DE010E51
:1026C000DBCFE6FFEEDEE552C5BCFED7E0DED5DEB1
:1026D000DEDEFC0EDB501AE0DEDEE66EFA0EDBCF4D
:1026E000E9FFFB0EDBCFEAFFE552E750EF6ECFDEEE
:1026F000FA0EDB2AFB0E01E3DB2AFC0EDB06DB50C5
:1027000002E1C2DE01D0BDDEC2DEE3D7B8DEBFDE4D
:10271000020EE15C02E2E16AE552E16EE552E7CFCA
:04272000D9FF1200CB
:0C27240000C1814001C0804101C0804123
:1027300000C1814001C0804100C1814000C1814091
:1027400001C0804101C0804100C1814000C1814081
:1027500001C0804100C1814001C0804101C0804171
:1027600000C1814001C0804100C1814000C1814061
:1027700001C0804100C1814001C0804101C0804151
:1027800000C1814000C1814001C0804101C0804141
:1027900000C1814001C0804100C1814000C1814031
:1027A00001C0804101C0804100C1814000C1814021
:1027B00001C0804100C1814001C0804101C0804111
:1027C00000C1814000C1814001C0804101C0804101
:1027D00000C1814001C0804100C1814000C18140F1
:1027E00001C0804100C1814001C0804101C08041E1
:1027F00000C1814001C0804100C1814000C18140D1
:1028000001C0804101C0804100C1814000C18140C0
:1028100001C0804100C1814001C0804101C08041B0
:1028200000C1814000C0C101C30302C2C60607C780
:1028300005C5C404CC0C0DCD0FCFCE0E0ACACB0BF0
:10284000C90908C8D81819D91BDBDA1A1EDEDF1F20
:10285000DD1D1CDC14D4D515D71716D6D21213D310
:1028600011D1D010F03031F133F3F23236F6F737C0
:10287000F53534F43CFCFD3DFF3F3EFEFA3A3BFBB0
:1028800039F9F83828E8E929EB2B2AEAEE2E2FEF60
:102890002DEDEC2CE42425E527E7E62622E2E323D0
:1028A000E12120E0A06061A163A3A26266A6A76700
:1028B000A56564A46CACAD6DAF6F6EAEAA6A6BAB70
:1028C00069A9A86878B8B979BB7B7ABABE7E7FBFA0
:1028D0007DBDBC7CB47475B577B7B67672B2B37390
:1028E000B17170B050909151935352929656579740
:1028F000559594549C5C5D9D5F9F9E5E5A9A9B5B30
:1029000099595898884849894B8B8A4A4E8E8F4FDF
:102910008D4D4C8C4484854587474686824243834F
:042920004181804031
:0C292400290EC26E0F015D6B040E5C6F8B
:10293000BF0EC06E1200D9CFE6FFE1CFD9FF160E51
:10294000E126100EDB6A110EDB6A120EDB6AC2B2E0
:10295000FED7C450E66ED950140FE96EDACFEAFF05
:10296000E552E750EE6EED6A140EDBCF16F0150E51
:10297000DBCF17F016C017F0166AC35000011624FB
:10298000146E000E1720156E140E14C0DBFF150E0A
:1029900015C0DBFFD9CF14F0DACF15F0120EDB50E3
:1029A000020D1450F324E96E1550F420EA6E140E53
:1029B000DBCFEEFF150EDBCFEDFF120EDB5007086D
:1029C00040E1140EDB6A150EDB6A130EDB6A080E9B
:1029D000F36E130EDBCFF4FFF350F45C1DE2D9CF9E
:1029E00016F0DACF17F0130EDB50020D1650F32459
:1029F000E96E1750F420EA6EEECF14F0EFCF15F029
:102A0000D950140FE96EDACFEAFF1450EE261550B4
:102A1000ED22130EDB2ADBD7140EDBCF14F0150EDC
:102A2000DBCF15F0030ED89015321432E804FBE129
:102A3000100E14C0DBFF110E15C0DBFF120EDB6A97
:102A400002D0120EDB2AD9CF1AF0DACF1BF0DB50FE
:102A5000020D1A50F324E96E1B50F420EA6EEECFFB
:102A600018F0EFCF19F018C008F019C009F084EC85
:102A70000FF007C014F008C015F009C016F00AC026
:102A800017F014C006F015C007F016C008F017C004
:102A900009F0160EE15C03E200D0E16AE552E16E56
:082AA000E552E7CFD9FF120057
:082AA800D9CFE6FFE1CFD9FF11
:102AB000020EE126DE6ADD6AFC0EDB50E76EFD0EDB
:102AC000DBCF14F0FE0EDBCF15F0E7501426000E1E
:102AD0001522166A3F0E161614C0DEFF15C0DDFF64
:102AE000F86ADECF14F0DDCF15F0000E1416FF0EDD
:102AF000151615C014F0156A1450F76EDECF14F0D9
:102B0000DDCF15F01450F66E020EE15C02E2E16AD0
:102B1000E552E16EE552E7CFD9FF1200D9CFE6FFCB
:102B2000E1CFD9FFFC0EDBCFE6FFFD0EDBCFE6FFEA
:102B3000FE0EDBCFE6FFB8DFE552E552E5527F8EB1
:102B40007F9C7F807FB0FED7F55000D0E552E7CF65
:102B5000D9FF1200D9CFE6FFE1CFD9FFE652DF6AF5
:102B6000E66AFD0EDBCFE6FFFE0EDBCFE6FF9CDF65
:102B7000E552E552E5527F8E7F9C7F887F84F29EEE
:102B8000550E7E6EAA0E7E6E7F82010EE66EB8EC4A
:102B900016F0E5527FB2FED7F28E7F94DF6A400EC8
:102BA000DF5C2FE2DFCFE6FFFD0EDBCFE6FFFE0EA0
:102BB000DBCFE6FF79DFE552E552E552DF50E76E05
:102BC000FB0EDBCFE9FFFC0EDBCFEAFFE750E92687
:102BD000000EEA22EF50F56E7F8E7F9C7F987F84F7
:102BE000F29E550E7E6EAA0E7E6E7F82010EE66EFE
:102BF000B8EC16F0E5527FB2FED7F28E7F94DF2A52
:0C2C0000CED7E552E552E7CFD9FF120015
:042C0C009392948E7D
:102C1000949C330EAF6EAB8EAC84AC98AC8AAB8810
:102C20009D8A9D988A821200D9CFE6FFE1CFD9FF15
:102C3000FE0EDB50AD6EACA2FED7E552E7CFD9FF5A
:102C40001200D9CFE6FFE1CFD9FF020EE1268A922A
:102C5000DE6ADD6ADECF14F0DDCF15F0640E145CA1
:102C6000000E155805E2DF2A010E01E3DB2AF2D738
:102C7000DE6ADD6ADECF14F0DDCF15F0FB0EDBCFB0
:102C800016F0FC0EDBCF17F01650145C17501558D9
:102C900015E2FD0EDBCF14F0FE0EDBCF15F0DE509B
:102CA0001424E96EDD501520EA6EEF50E66EBCDFAD
:102CB000E552DF2A010E01E3DB2ADCD78A82020E0D
:102CC000E15C02E2E16AE552E16EE552E7CFD9FF4D
:022CD0001200F0
:0E2CD200060EF66E000EF76E000EF86E010193
:102CE0000900F550736F0900F550746F03E17367C5
:102CF00001D03DD00900F5506E6F0900F5506F6F9F
:102D00000900F550706F09000900F550E96E0900DF
:102D1000F550EA6E090009000900F550716F0900CD
:102D2000F550726F09000900F6CF75F1F7CF76F113
:102D3000F8CF77F16EC1F6FF6FC1F7FF70C1F8FFF2
:102D40000101715302E1725307E00900F550EE6E84
:102D50007107F8E27207F9D775C1F6FF76C1F7FF80
:102D600077C1F8FF01017307000E745BBFD7120033
:102D7000FF0EE350276EEF0E01D0F30EE76EE72E45
:102D8000BFEF16F00C0E266EE76AE72EC5EF16F0C1
:0E2D9000262EC4EF16F0272EBDEF16F012000F
:022D9E00056AC4
:102DA000046A100EE76ED8900836093604360536E8
:102DB0000D50045C0E50055805E30D50045E0E5096
:0A2DC000055A082AE72EF0D712008A
:062DCA00410EF36E00EE65
:102DD00000F00E0E01D81200EA6002D0EE6AFCD7B5
:0A2DE000F350E9601200EE6AFCD720
:062DEA001DEE00F02DEECD
:102DF00000F0F86A019C69EC16F003EC17F0A2EC05
:062E00000CF0FBD71200EC
:022E06001200B8
:082E080056BEE543647B91C353
:102E100000004842000000000000000000000040E8
:102E20000000803F00000000E80318FC00000000E4
:102E30000000000000000000000000000000000092
:102E4000030000000000000000000000000000007F
:102E50000000000000000000000000000000000072
:102E60000000000000000000000000000000000062
:102E70000000000000000000000000000000000052
:042E8000000000004E
:062E840000000000000048
:062E8A0000000000000042
:102E90000000000000000000000000000000000032
:102EA0000000000000000000000000000000000022
:102EB0000000000000000000000000000000000012
:0A2EC0000000000000000000000008
:020000040030CA
:0100000015EA
:0100010008F6
:010003007C80
:00000001FF
