:020000040000FA
:06000000D5EF0DF0120027
:020006001200E6
:0800080007EF00F01200DACF4F
:10001000E4FFE2CFDAFFE9CFE4FFEACFE4FFE65204
:100020009EAA1BD09E9AAB50040B03E1AB50020B6F
:1000300005E0AB9EAB8E9E9A8B960FD00E01050EFF
:10004000256F0E012751EA6A140FE96E0E0EEA229F
:10005000AECFEFFF272B0F0E27179EA01FD09E902D
:10006000D80ECF6EF00ECE6E0E01022B000E0323C3
:10007000010E0001626F636B00016C2B000E6D239B
:100080000A0E6C5D000E6D5909E36C6B6D6B010E11
:100090000001666F676B0001350E7A6FE552E5CFA0
:1000A000EAFFE5CFE9FFE5CFDAFF1100D9CFE6FFA0
:1000B000E1CFD9FF0B0EE126DF6A010EDB6A020EEB
:1000C000DB6AD950030FE96EDACFEAFFEE6AEE6A17
:1000D000050EDB6A060EDB6A070EDB6A080EDB6ABA
:1000E000090EDB6A0A0EDB6A62EC0DF0B0EC0CF074
:1000F0009498949AF28CF28ECD808B80898A89862E
:100100008984A00EE66EAEEC0DF0E5528B90899AD4
:10011000899689941E0EE66EAEEC0DF0E55271ECF8
:100120000DF0BDEC07F0350E00017A5D01E17A6B50
:10013000F6D70B0EE15C02E2E16AE552E16EE552B0
:06014000E7CFD9FF120019
:0A0146000200C81B00007A00000050
:1001500001000000C61B00003E0E0000020000006F
:10016000D9CFE6FFE1CFD9FF060EE126DE6ADD6AD0
:10017000020EDB68030EDB68FB0EDBCF14F0DB0640
:10018000FC0EDBCF15F001E2DB06145015103DE04C
:10019000020EDBCFE6FFFD0EDBCFE9FFDB2AFE0E12
:1001A000DBCFEAFF01E3DB2AEF50E552E718E66E0A
:1001B000D950040FE96EDACFEAFFE552E750EE6E50
:1001C000ED6A030EDBCFE6FF040EDBCFF6FF050E74
:1001D000DBCFF7FFC60EF626140EF7220800F55007
:1001E000E552E718E76E020EE7CFDBFF040EDBCF28
:1001F000F6FF050EDBCFF7FFC60EF626150EF7222B
:100200000800030EF5CFDBFFB7D7020EDB50146EEC
:10021000156A14C015F0146A14C0DEFF15C0DDFFA6
:10022000030EDB50DE26000EDD22020EDBCF3EFE8B
:10023000030EDBCF3FFEDECF14F0DDCF15F014C090
:10024000F3FF15C0F4FF060EE15C03E200D0E16AA3
:10025000E552E16EE552E7CFD9FF12000E012651BB
:10026000E66EE66A040EE66E0E0EE66ECBEC0CF061
:10027000E552E552E552E5521200D9CFE6FFE1CF53
:10028000D9FF0C0EE1260B0EDB6A17CEDFFF010E45
:10029000DFCFDBFF030E19CEDBFFDB50F80BE842AC
:1002A000E842E842E76E020EE7CFDBFF030EDB50C9
:1002B000070B02E0020EDB2A080EDB6A020EDB509F
:1002C000F36E080EDBCFF4FFF350F45C5EE2080E31
:1002D000DB50030FE76E060EE7CFDBFFDB50EA6A69
:1002E000040FE96E0E0EEA22EF6A070EDB6A080EB3
:1002F000F36E070EDBCFF4FFF350F45C3FE2D9500E
:10030000090FE66E000EDA20E66E010EDBCFE6FF87
:10031000E66AF8DAE552E552E552E552090EDBCF1E
:1003200016F00A0EDBCF17F0070EDB5016C014F0E4
:1003300017C015F005E0D89014361536E804FBE137
:10034000060EDB50EA6A040FE96E0E0EEA22145024
:10035000EF12010EDB2A030EDB50DF24F36E010ED9
:10036000DBCFF4FFF350F45C06E3010EF36E0B0EEB
:10037000F3CFDBFF03D0070EDB2AB9D70B0EDB046C
:1003800001E103D0080EDB2A99D73DCE04FE0E0111
:10039000010E056F020EDBCF06FE030E146E020E79
:1003A000DBCFE7FF1450E726020EE7CFDBFFDBCF02
:1003B000E6FFE66A040EE66E0E0EE66ED1DEE5524C
:1003C000E552E552E552040EF3CFDBFF050EF4CF04
:1003D000DBFF040EDBCF14F0050EDBCF15F015C0EC
:1003E00014F0156A020EDB50EA6A040FE96E0E0E75
:1003F000EA2214C0EFFF020EDB2AFF0EE76E040EA6
:10040000DBCF14F0050EDBCF15F0E7501416156A9C
:10041000020EDB50EA6A040FE96E0E0EEA2214C0E7
:10042000EFFF020EDB280E01266F18DF0C0EE15CD9
:1004300002E2E16AE552E16EE552E7CFD9FF120030
:10044000D9CFE6FFE1CFD9FF0A0EE126080EDB6A1D
:10045000090EDB6A17CEDFFF010EDFCFDBFF040ED4
:1004600019CEDBFFDB50020D050EF3CFDBFF060ECE
:10047000DB6A070EDB6A060EDBCF14F0070EDBCF5C
:1004800015F0050EDB50166E176A1650145C1750E7
:10049000155853E2D950080FE66E000EDA20E66ECA
:1004A000010EDBCFE6FFE66A4FDBE552E552E5528F
:1004B000E552080EDBCF14F0090EDBCF15F015C0A6
:1004C00014F0156A030EE76E060EDBCFE9FF070E88
:1004D000DBCFEAFFE750E926000EEA22040EE92608
:1004E0000E0EEA2214C0EFFFFF0EE76E080EDBCF00
:1004F00014F0090EDBCF15F0E7501416156A040E40
:10050000E76E060EDBCFE9FF070EDBCFEAFFE75011
:10051000E926000EEA22040EE9260E0EEA2214C095
:10052000EFFFD950060FE96EDACFEAFF020EEE2692
:10053000000EED22010EDB2A9ED73DCE04FE0E01F9
:10054000030E056F050EDBCF06FE030E146E050EBF
:10055000DBCFE7FF1450E726050EE7CFDBFFDBCF4D
:10056000E6FFE66A040EE66E0E0EE66EF9DDE55273
:10057000E552E552E552020EF3CFDBFF030EF4CF56
:10058000DBFF020EDBCF14F0030EDBCF15F015C03E
:1005900014F0156A050EDB50EA6A040FE96E0E0EC0
:1005A000EA2214C0EFFF050EDB2AFF0EE76E020EF3
:1005B000DBCF14F0030EDBCF15F0E7501416156AED
:1005C000050EDB50EA6A040FE96E0E0EEA2214C033
:1005D000EFFF050EDB280E01266F40DE0A0EE15C00
:1005E00002E2E16AE552E16EE552E7CFD9FF12007F
:1005F000D9CFE6FFE1CFD9FF060EE12617CEDFFF08
:10060000010EDFCFDBFF040E18CEDBFFDB50FF084F
:1006100008E1010EF36E020EF3CFDBFF030EDB6A7F
:1006200007D0040EDB5004E1020EDB6A030EDB6A26
:10063000020EDBCFE6FF030EDBCFE6FF010EDBCFC2
:10064000E6FFE66AF0D9E552E552E552E552050EBD
:10065000DB6A0E012751F36E050EDBCFF4FFF3507A
:10066000F45C16E2050EDB50EA6A140FE96E0E0E1A
:10067000EA22EF50E66E050EDB50EA6A040FE96EDF
:100680000E0EEA22E552E750EF6E050EDB2AE1D7A7
:1006900027CE26FEE3DD060EE15C02E2E16AE552CA
:1006A000E16EE552E7CFD9FF1200D9CFE6FFE1CFE7
:1006B000D9FF070EE12617CEDFFF010EDFCFDBFFEC
:1006C0000E011851000EF3501925E66ED950050F92
:1006D000E96EDACFEAFFE552E750EE6EED6A050EFD
:1006E000DBCFE6FF060EDBCFE6FF010EDBCFE6FF3A
:1006F000E66A2EDBE552E552E552E5523DCE04FEB8
:100700000E01060E056F080E146EDF5014C0E7FFD1
:10071000E75204E0E8427F0BE706FCE10E01066FBA
:10072000DFCF07FE18CE08FE19CE09FE060EF36EC7
:10073000020EF3CFDBFF060EE66EE66A040EE66EEF
:100740000E0EE66E0DDDE552E552E552E552030E62
:10075000F3CFDBFF040EF4CFDBFF030EDBCF14F08F
:10076000040EDBCF15F015C014F0156A14C00AFE94
:10077000FF0EE76E030EDBCF14F0040EDBCF15F097
:10078000E7501416156A14C00BFE0E01080E266FF2
:1007900065DD070EE15C02E2E16AE552E16EE552D9
:1007A000E7CFD9FF1200D9CFE6FFE1CFD9FF090E7D
:1007B000E12617CEDFFF010EDFCFDBFF030E19CEE0
:1007C000DBFF020E1ACEDBFF080EDB6A030EDB50E6
:1007D000F36E080EDBCFF4FFF350F45C36E2080E44
:1007E000DB50E824080FEA6A140FE96E0E0EEA22C5
:1007F000EFCF14F0080EDB50E824070FEA6A140F5D
:10080000E96E0E0EEA22EF50000EF3501424E66E4D
:10081000D950060FE96EDACFEAFFE552E750EE6EE7
:10082000ED6A060EDBCFE6FF070EDBCFE6FF010E1B
:10083000DBCFE6FFE66A8CDAE552E552E552E55297
:10084000080EDB2A010EDB2AC1D73DCE04FE0E01C5
:10085000100E056F080E146EDF5014C0E7FFE7524C
:1008600004E0E8427F0BE706FCE10E01066FDFCFF4
:1008700007FE080E146E030EDB5014C0E7FFE752AC
:1008800004E0E8427F0BE706FCE10E01086F030E6F
:10089000DBCF09FE060EE66EE66A040EE66E0E0E6D
:1008A000E66E5EDCE552E552E552E552040EF3CF0A
:1008B000DBFF050EF4CFDBFF040EDBCF14F0050EDB
:1008C000DBCF15F015C014F0156A14C00AFEFF0E38
:1008D000E76E040EDBCF14F0050EDBCF15F0E7500A
:1008E0001416156A14C00BFE0E01080E266FB6DC36
:1008F000090EE15C02E2E16AE552E16EE552E7CF02
:10090000D9FF1200D9CFE6FFE1CFD9FF040EE126CF
:10091000DE6ADD6AFD0EDBCF14F0FE0EDBCF15F0D4
:10092000FF0E14160F0E1516020E14C0DBFF030E79
:1009300015C0DBFF020EDBCF08F0030EDBCF09F0A2
:100940000F0E081801E109505AE00E0E081801E1D7
:10095000095054E00D0E081801E109504EE00C0E4C
:10096000081801E1095048E00B0E081801E1095090
:1009700042E00A0E081801E109503CE0090E08188F
:1009800001E1095036E0080E081801E1095030E095
:10099000070E081801E109502AE0060E081801E1C7
:1009A000095024E0050E081801E109501EE0040E6C
:1009B000081801E1095018E0030E081801E1095078
:1009C00012E0020E081801E109500CE0010E0818AF
:1009D00001E1095006E0085001E1095001E010D0A2
:1009E0000FD00ED00DD00CD00BD00AD009D008D02B
:1009F00007D006D005D004D003D002D001D000D05B
:100A0000DECF14F0DDCF15F014C0F3FF15C0F4FFF6
:100A1000040EE15C03E200D0E16AE552E16EE552CA
:100A2000E7CFD9FF1200D9CFE6FFE1CFD9FF040EFF
:100A3000E126DE6ADD6AFD0EDBCF14F0FE0EDBCFB1
:100A400015F0FF0E14160F0E1516020E14C0DBFF64
:100A5000030E15C0DBFF020EDBCF08F0030EDBCF69
:100A600009F0110E081801E109505AE0100E08189B
:100A700001E1095054E00F0E081801E109504EE061
:100A80000E0E081801E1095048E00D0E081801E1AA
:100A9000095042E00C0E081801E109503CE00B0E31
:100AA000081801E1095036E00A0E081801E1095062
:100AB00030E0070E081801E109502AE0060E081878
:100AC00001E1095024E0050E081801E109501EE07B
:100AD000040E081801E1095018E0030E081801E19E
:100AE000095012E0020E081801E109500CE0010E55
:100AF000081801E1095006E0085001E1095001E041
:100B000010D00FD00ED00DD00CD00BD00AD009D001
:100B100008D007D006D005D004D003D002D001D031
:100B200000D0DECF14F0DDCF15F014C0F3FF15C0F8
:100B3000F4FF040EE15C03E200D0E16AE552E16EED
:100B4000E552E7CFD9FF1200D9CFE6FFE1CFD9FFB9
:100B5000040EE126DE6ADD6AFD0EDBCF14F0FE0E28
:100B6000DBCF15F0FF0E14160F0E1516020E14C073
:100B7000DBFF030E15C0DBFF020EDBCF08F0030E18
:100B8000DBCF09F0100E081801E1095001E1CCD0CB
:100B90000F0E081801E1095001E1C5D00E0E08182A
:100BA00001E1095001E1BED00D0E081801E1095024
:100BB00001E1B7D00C0E081801E1095001E1B0D0F5
:100BC0000B0E081801E1095001E1A9D00A0E08181E
:100BD00001E1095001E1A2D0090E081801E1095014
:100BE00001E191D0080E081801E1095001E180D01F
:100BF000070E081801E1095070E0060E081801E11F
:100C0000095060E0050E081801E1095050E0040E9B
:100C1000081801E1095040E0030E081801E10950ED
:100C200030E0020E081801E1095020E0010E08181A
:100C300001E1095010E0085001E1095001E075D0D0
:100C4000FB0EDBCFE9FFFC0EDBCFEAFF29CEEEFF88
:100C50002ACEEDFF6AD0FB0EDBCFE9FFFC0EDBCF27
:100C6000EAFF2BCEEEFF2CCEEDFF5FD0FB0EDBCFED
:100C7000E9FFFC0EDBCFEAFF2DCEEEFF2ECEEDFF1F
:100C800054D0FB0EDBCFE9FFFC0EDBCFEAFF2FCE0B
:100C9000EEFF30CEEDFF49D0FB0EDBCFE9FFFC0EBF
:100CA000DBCFEAFF31CEEEFF32CEEDFF3ED0FB0EC2
:100CB000DBCFE9FFFC0EDBCFEAFF33CEEEFF34CE15
:100CC000EDFF33D0FB0EDBCFE9FFFC0EDBCFEAFFFD
:100CD00035CEEEFF36CEEDFF28D0FB0EDBCFE9FFA1
:100CE000FC0EDBCFEAFF37CEEEFF38CEEDFF1DD096
:100CF000FB0EDBCFE9FFFC0EDBCFEAFF39CEEEFFC8
:100D00003ACEEDFF12D0FB0EDBCFE9FFFC0EDBCFBE
:100D1000EAFF3BCEEEFF3CCEEDFF07D006D005D07C
:100D200004D003D002D001D000D0DECF14F0DDCF4C
:100D300015F014C0F3FF15C0F4FF040EE15C03E2EC
:100D400000D0E16AE552E16EE552E7CFD9FF12002B
:100D5000D9CFE6FFE1CFD9FF040EE126DE6ADD6AD6
:100D6000FD0EDBCF14F0FE0EDBCF15F0FF0E1416D8
:100D70000F0E1516020E14C0DBFF030E15C0DBFFAD
:100D8000020EDBCF08F0030EDBCF09F0100E0818BF
:100D900001E1095001E1A2D00F0E081801E109504C
:100DA00001E19BD00E0E081801E1095001E194D039
:100DB0000D0E081801E1095001E18DD00C0E081844
:100DC00001E1095001E186D00B0E081801E109503C
:100DD00001E17FD00A0E081801E1095001E178D045
:100DE000090E081801E109506CE0080E081801E12D
:100DF000095060E0070E081801E1095054E0060EA2
:100E0000081801E1095048E0050E081801E10950F1
:100E10003CE0040E081801E1095030E0030E081808
:100E200001E1095024E0020E081801E1095018E020
:100E3000010E081801E109500CE0085001E10950C9
:100E400001E04DD0FB0EDBCF29FEFC0EDBCF2AFEEE
:100E500046D0FB0EDBCF2BFEFC0EDBCF2CFE3FD0B3
:100E6000FB0EDBCF2DFEFC0EDBCF2EFE38D0FB0EB3
:100E7000DBCF2FFEFC0EDBCF30FE31D0FB0EDBCF05
:100E800031FEFC0EDBCF32FE2AD0FB0EDBCF33FE71
:100E9000FC0EDBCF34FE23D0FB0EDBCF35FEFC0E89
:100EA000DBCF36FE1CD0FB0EDBCF37FEFC0EDBCFDC
:100EB00038FE15D0FB0EDBCF39FEFC0EDBCF3AFE41
:100EC0000ED0FB0EDBCF3BFEFC0EDBCF3CFE07D093
:100ED00006D005D004D003D002D001D000D0DECFA0
:100EE00014F0DDCF15F014C0F3FF15C0F4FF040EAD
:100EF000E15C03E200D0E16AE552E16EE552E7CF42
:100F0000D9FF1200D9CFE6FFE1CFD9FF040EE126C9
:100F1000DE6ADD6ADECF14F0DDCF15F0FD0EDBCF2B
:100F200016F0FE0EDBCF17F01650145C1750155854
:100F30001AE2020EDB6A030EDB6A020EDBCF14F04C
:100F4000030EDBCF15F00A0E145C000E155806E2F6
:100F5000020EDB2A030E01E3DB2AEFD7DF2A010EA4
:100F600001E3DB2AD7D7040EE15C02E2E16AE55235
:100F7000E16EE552E7CFD9FF1200D9CFE6FFE1CF0E
:100F8000D9FF040EE1260E01010E3D6F0E0127511F
:100F9000040801E324D10E011551100A01E19AD091
:100FA0001F0A54E00E0A07E0020A05E0060A03E001
:100FB000030A01E014D1080E0E01275D46E39D9A55
:100FC000F29E0E013D510E01145D3BE10A0EE66EEC
:100FD000E66A98DFE552E552060EE66EE66A140E02
:100FE000E66E0E0EE66EB0EC00F0E552E552E5520C
:100FF000E552F3CFDEFFF4CFDDFF0E011A510E01F3
:101000003E5D1EE10E011B510E013F5D19E18B7C1F
:101010000E01150503E13DEC01F011D0030E155D45
:1010200003E120EC02F00BD0050E155D03E1F8ECB6
:1010300002F005D0060E155D02E155EC03F001D07B
:101040008B960E01276BF28E9D8AC9D01A51E66EDF
:10105000D950020FE96EDACFEAFFE552E750EE6EA3
:10106000ED6AD950020FE96EDACFEAFF090EEE26DB
:10107000000EED22020EDBCF14F0030EDBCF15F0D5
:101080000E011450275D000E155423E30E013D514F
:101090000E01145D1CE1020EDBCF14F0030EDBCF5A
:1010A00015F0020E145E000E155A14C0E6FF15C0AE
:1010B000E6FF140EE66E0E0EE66EB0EC00F0E552A2
:1010C000E552E552E552F3CFDEFFF4CFDDFF0E012E
:1010D000276B85D01851000EF3501925E66ED950B4
:1010E000020FE96EDACFEAFFE552E750EE6EED6AE5
:1010F000020E086E096ADBCF0DF0030EDBCF0EF097
:101100003AEC0CF0020E06C0DBFF030E07C0DBFF5B
:10111000D950020FE96EDACFEAFF090EEE26000E73
:10112000ED22020EDBCF14F0030EDBCF15F00E0123
:101130001450275D000E155451E39D9A0E013D5148
:101140000E01145D48E1020EDBCF14F0030EDBCF7D
:1011500015F0020E145E000E155A14C0E6FF15C0FD
:10116000E6FF140EE66E0E0EE66EB0EC00F0E552F1
:10117000E552E552E552F3CFDEFFF4CFDDFF020E7C
:10118000DBCFE9FF030EDBCFEAFFE906000EEA5AE8
:10119000140EE9260E0EEA22EFCF16F0020EDBCF78
:1011A000E9FF030EDBCFEAFF020EE95E000EEA5A0A
:1011B000140EE9260E0EEA22EF50000EF35016240C
:1011C000146E156A1450DF1803E11550DE52DD1855
:1011D00002E1D3EC03F00E01276B9D8A00D0040ED0
:1011E000E15C02E2E16AE552E16EE552E7CFD9FF48
:0211F0001200EB
:0E11F200180E9412280EC66EC56A0B0EC86E3B
:1012000012001F0EC51403E1C750040B02E0F9D70A
:10121000F8D71200C5801200C5821200C5841200E2
:10122000C59AC5881200C58AC58812009EA6FED739
:101230009E961200C586C7A0FED7C95000D01200E6
:10124000D9CFE6FFE1CFD9FFFE0EDB50C96EC6AEA7
:1012500003D0000E03D002D0010E00D0E552E7CF3C
:10126000D9FF1200D9CFE6FFE1CFD9FF020EE12668
:10127000FD0EDBCF14F0FE0EDBCF15F015C014F021
:10128000156A1F0E1414DF6EFD0EDB50E76E010EA3
:10129000E7CFDBFFB6DFBEDFC9DF900EE66ED0DF43
:1012A000E552C5BCFED7C2DFFC0EDBCFE6FFC8DFD0
:1012B000E552C5BCFED7BADFB1DFB8DF020EE15C94
:1012C00002E2E16AE552E16EE552E7CFD9FF120092
:1012D000D9CFE6FFE1CFD9FF020EE126FD0EDBCF2D
:1012E00014F0FE0EDBCF15F015C014F0156A1F0EBA
:1012F0001414DF6EFD0EDB50E76E010EE7CFDBFF4F
:1013000080DF88DF93DFDFCFE6FF9ADFE552C5BCE1
:10131000FED78CDF010EDBCFE6FF92DFE552C5BCC6
:10132000FED784DFFC0EDB5015E0FA0EDBCFE9FFC1
:10133000FB0EDBCFEAFFEF50E66E82DFE552C5BC65
:10134000FED774DFFA0EDB2AFB0E01E3DB2AFC0E6C
:10135000DB06E8D763DF6ADF020EE15C02E2E16AE6
:10136000E552E16EE552E7CFD9FF1200D9CFE6FF93
:10137000E1CFD9FF040EE126FD0EDBCF14F0FE0E07
:10138000DBCF15F015C014F0156A1F0E1416000EF1
:101390001516020E14C0DBFFFD0EDB50E76E030EC8
:1013A000E7CFDBFF2EDF36DF41DF910EE66E48DF51
:1013B000E552C5BCFED73ADF3DDFDE6EDD6A36DFC3
:1013C00039DF166E176A086A010E096EDECF0DF05E
:1013D000DDCF0EF03AEC0CF006501624146E0750D8
:1013E0001720156E14C0DEFF15C0DDFF1FDF1BDFE9
:1013F0001DDF14DF1BDFDECF14F0DDCF15F014C0CE
:10140000F3FF15C0F4FF040EE15C03E200D0E16AD3
:10141000E552E16EE552E7CFD9FF1200D9CFE6FFE2
:10142000E1CFD9FF020EE126FD0EDBCF14F0FE0E58
:10143000DBCF15F015C014F0156A1F0E1414DF6E03
:10144000FD0EDB50E76E010EE7CFDBFFDADEE2DEFA
:10145000EDDEDFCFE6FFF4DEE552C5BCFED7E6DE0B
:10146000010EDBCFE6FFECDEE552C5BCFED7DEDECB
:10147000D3DEDCDEFC0EDB501AE0DCDEE66EFA0EBC
:10148000DBCFE9FFFB0EDBCFEAFFE552E750EF6E63
:10149000CDDEFA0EDB2AFB0E01E3DB2AFC0EDB06B7
:1014A000DB5002E1C0DE01D0BBDEC0DEE3D7B6DE3A
:1014B000BDDE020EE15C02E2E16AE552E16EE55258
:0614C000E7CFD9FF120086
:0A14C60000C1814001C0804101C057
:1014D000804100C1814001C0804100C1814000C104
:1014E000814001C0804101C0804100C1814000C1F4
:1014F000814001C0804100C1814001C0804101C0E4
:10150000804100C1814001C0804100C1814000C1D3
:10151000814001C0804100C1814001C0804101C0C3
:10152000804100C1814000C1814001C0804101C0B3
:10153000804100C1814001C0804100C1814000C1A3
:10154000814001C0804101C0804100C1814000C193
:10155000814001C0804100C1814001C0804101C083
:10156000804100C1814000C1814001C0804101C073
:10157000804100C1814001C0804100C1814000C163
:10158000814001C0804100C1814001C0804101C053
:10159000804100C1814001C0804100C1814000C143
:1015A000814001C0804101C0804100C1814000C133
:1015B000814001C0804100C1814001C0804101C023
:1015C000804100C1814000C0C101C30302C2C60600
:1015D00007C705C5C404CC0C0DCD0FCFCE0E0ACA6B
:1015E000CB0BC90908C8D81819D91BDBDA1A1EDEBB
:1015F000DF1FDD1D1CDC14D4D515D71716D6D2126B
:1016000013D311D1D010F03031F133F3F23236F67A
:10161000F737F53534F43CFCFD3DFF3F3EFEFA3A2A
:101620003BFB39F9F83828E8E929EB2B2AEAEE2EBA
:101630002FEF2DEDEC2CE42425E527E7E62622E22A
:10164000E323E12120E0A06061A163A3A26266A67A
:10165000A767A56564A46CACAD6DAF6F6EAEAA6AEA
:101660006BAB69A9A86878B8B979BB7B7ABABE7E3A
:101670007FBF7DBDBC7CB47475B577B7B67672B2EA
:10168000B373B17170B0509091519353529296567A
:101690005797559594549C5C5D9D5F9F9E5E5A9AAA
:1016A0009B5B99595898884849894B8B8A4A4E8E3A
:1016B0008F4F8D4D4C8C44848545874746868242AA
:0616C000438341818040DC
:0A16C600050EC26E0F01020E5D6FEB
:1016D0005C6BBF0EC06E1200D9CFE6FFE1CFD9FF21
:1016E000160EE126100EDB6A110EDB6A120EDB6AA3
:1016F000C2B2FED7C450E66ED950140FE96EDACFED
:10170000EAFFE552E750EE6EED6A140EDBCF16F0FD
:10171000150EDBCF17F016C017F0166AC350000184
:101720001624146E000E1720156E140E14C0DBFF65
:10173000150E15C0DBFFD9CF14F0DACF15F0120E5D
:10174000DB50020D1450F324E96E1550F420EA6EBC
:10175000140EDBCFEEFF150EDBCFEDFF120EDB50CC
:10176000070840E1140EDB6A150EDB6A130EDB6A14
:10177000080EF36E130EDBCFF4FFF350F45C1DE2A2
:10178000D9CF16F0DACF17F0130EDB50020D16503A
:10179000F324E96E1750F420EA6EEECF14F0EFCF89
:1017A00015F0D950140FE96EDACFEAFF1450EE2687
:1017B0001550ED22130EDB2ADBD7140EDBCF14F00D
:1017C000150EDBCF15F0030ED89015321432E80455
:1017D000FBE1100E14C0DBFF110E15C0DBFF120E73
:1017E000DB6A02D0120EDB2AD9CF1AF0DACF1BF057
:1017F000DB50020D1A50F324E96E1B50F420EA6E00
:10180000EECF18F0EFCF19F018C008F019C009F0AA
:1018100025EC0CF007C014F008C015F009C016F054
:101820000AC017F014C006F015C007F016C008F083
:1018300017C009F0160EE15C03E200D0E16AE55240
:0A184000E16EE552E7CFD9FF120078
:06184A00019E08D0019E82
:1018500009AE05D0086C091EE86A0922018E09C08C
:1018600003F008C002F0136A126A8E0E046E056A55
:1018700074EF0CF008C012F008500D02F4CF07F01E
:10188000F3CF06F009500E02F4CF09F0F3CF08F0C1
:101890000D02F3500726F4500822E86A092212507C
:1018A0000E02F3500726F4500822E86A0922000CC1
:1018B0007F0E0A6EFF0E096E086E076E12007F0E15
:1018C00001BEFF0E0A6E02D07F0E0A6E800E096EF8
:1018D000086A076AF3D701AE04D0800E0A6E096A5F
:1018E000F7D70A6A096AF4D70350021013101210CE
:1018F000F8E005BEF0D703BE0CD004500510EBE0B5
:10190000D89012361336023603360406D8A00506E0
:10191000F2D70550D4E10428D2E012AE11D07F0EE8
:10192000121402E113A00CD0132AE86A0222032247
:1019300007E3D880033202321332042A0428BFE0BE
:101940000450C9E013C007F002C008F00334096E68
:1019500004300A6E09320A9E01BE0A8E5EEF0CF058
:101960009392948E949C330EAF6EAB8EAC84AC98F5
:10197000AC8AAB889D8A9D988A821200D9CFE6FFF7
:10198000E1CFD9FFFE0EDB50AD6EACA2FED7E55223
:10199000E7CFD9FF1200D9CFE6FFE1CFD9FF020E82
:1019A000E1268A92DE6ADD6ADECF14F0DDCF15F023
:1019B000640E145C000E155805E2DF2A010E01E3E7
:1019C000DB2AF2D7DE6ADD6ADECF14F0DDCF15F058
:1019D000FB0EDBCF16F0FC0EDBCF17F01650145CBD
:1019E0001750155815E2FD0EDBCF14F0FE0EDBCFBD
:1019F00015F0DE501424E96EDD501520EA6EEF502C
:101A0000E66EBCDFE552DF2A010E01E3DB2ADCD7FC
:101A10008A82020EE15C02E2E16AE552E16EE55281
:061A2000E7CFD9FF120020
:0A1A2600460EF66E010EF76E000E7C
:101A3000F86E00010900F550756F0900F550766FDA
:101A400003E1756701D03DD00900F550706F0900C2
:101A5000F550716F0900F550726F09000900F550DB
:101A6000E96E0900F550EA6E090009000900F55019
:101A7000736F0900F550746F09000900F6CF77F015
:101A8000F7CF78F0F8CF79F070C0F6FF71C0F7FFAC
:101A900072C0F8FF0001735302E1745307E00900BC
:101AA000F550EE6E7307F8E27407F9D777C0F6FFCA
:101AB00078C0F7FF79C0F8FF00017507000E765B6C
:041AC000BFD712007A
:0C1AC400D80ECF6EF00ECE6ECF0ECD14FB
:101AD0001009CD6ECD823F0ECD140009CD6E9D80D4
:101AE00012000001606B616B646B656B686B696B06
:101AF00002CE00FE03CE01FE6251631113E0626B61
:101B0000636B010E606F616B0E01255100080AE2E4
:101B10002507255107E10E012751000803E2276B35
:101B20000E01246B00016A516B1105E06A6B6B6B4F
:101B3000010E686F696B665167110FE0666B676B2A
:101B4000010E646F656B6E2B000E6F23140E6E5DBD
:0C1B5000000E6F5902E36E6B6F6B120009
:041B5C00FF0EE35045
:101B60001D6EEF0E01D0F30EE76EE72EB5EF0DF010
:101B70000C0E1C6EE76AE72EBBEF0DF01C2EBAEFC1
:0A1B80000DF01D2EB3EF0DF0120062
:061B8A00410EF36E00EEB7
:101B900000F00E0E01D81200EA6002D0EE6AFCD707
:0A1BA000F350E9601200EE6AFCD772
:061BAA001DEE00F02DEE1F
:101BB00000F0F86A019C13EC0DF003EC00F056EC19
:061BC00000F0FBD712004B
:021BC60000001D
:011BC800001C
:020000040030CA
:0100000015EA
:0100010008F6
:010003007C80
:00000001FF
