:020000040000FA
:06000000B7EF12F0120040
:020006001200E6
:0800080007EF00F01200DACF4F
:10001000E4FFE9CFE4FFEACFE4FFE6529EAA19D05D
:100020009E9AAB50040B03E1AB50020B05E0AB9E74
:10003000AB8E9E9A8B960DD00001050EC06F00010D
:10004000C251EA6A740FE96E000EEA22AECFEFFFEA
:10005000C22B9EA028D09E90FC0ECF6E180ECE6EA6
:100060000001622B000E6323010E0101626F636BBE
:100070000101792B000E7A237B2B7C230A0E795DFC
:10008000000E7A5906E3796B7A6B010E0101666FF7
:10009000676B0101E80E7B5D030E7C5904E37B6B0B
:1000A0007C6B350E786FE552E5CFEAFFE5CFE9FFCF
:1000B000E5CFDAFF1100D9CFE6FFE1CFD9FF140E6B
:1000C000E126DF6A010EDB6AD950020FE96EDACF52
:1000D000EAFFEE6AEE6A040EDB6A050EDB6A060EC4
:1000E000DB6A070EDB6A080EDB6A090EDB6A49DA97
:1000F0000E0EDB6A0F0EDB6A100EDB6A110EDB6A76
:10010000120EDB6A130EDB6A0E01100E006F110E69
:10011000016F0A0E46DA57EC09F00BEC09F0E66ABB
:10012000E66AC80EE66E420EE66E34DAC8EC11F0EE
:100130008EEC10F089EC0EF0E66AE66A800EE66E50
:100140006DEC11F0E552E552E5520101816FF28C40
:10015000F28ECD80A00E25DA1E0E23DA1AEC09F0FD
:1001600022EC07F0350E0101415D74E1416B0101A4
:100170004651040A5FE0070A5DE0010A52E0030A03
:1001800069E10A0E4BC1DBFF0B0E4CC1DBFF0C0E0D
:100190004DC1DBFF0D0E4EC1DBFFB0D9C80E0E6E98
:1001A000420E0F6EBAD99CEC0DF0010A0FE10A0E57
:1001B000DB6A0B0EDB6AC80EF36E0C0EF3CFDBFFAF
:1001C000420EF36E0D0EF3CFDBFF09D097D90E6A06
:1001D0000F6AA3D9A5EC0DF0010A01E1D2D9146A86
:1001E000156AC80E166E420E176E9BD918C00CF019
:1001F00019C00DF01AC00EF01BC00FF08ED9F8EC2C
:100200000BF09CD9D9500A0FE96EDACFEAFFEECF96
:10021000E6FFEECFE6FFEECFE6FFEFCFE6FFBAD97F
:1002200019D047C1CBF048C1CCF049C1CDF04AC18B
:10023000CEF010D04FC1C3F050C1C4F051C1C5F0D1
:1002400052C1C6F053C1C7F054C1C8F055C1C9F07E
:1002500056C1CAF0350E0101785D01E07FD7786B99
:10026000000EE66EE66AEAEC0EF0E552E552040E88
:10027000F3CFDBFF050EF4CFDBFF040EDBCF08F07E
:10028000050EDBCF09F0E3EC0BF007C020F008C04F
:1002900021F009C022F00AC023F00C6A0D6A0E6A30
:1002A000470E0F6E8FEC0CF007C01CF008C01DF05D
:1002B00009C01EF00AC01FF06F0E0C6E120E0D6EFC
:1002C000030E0E6E400E0F6EE2EC0CF007C018F03D
:1002D00008C019F009C01AF00AC01BF0C3C00CF026
:1002E000C4C00DF0C5C00EF0C6C00FF0E2EC0CF0BB
:1002F0005DD9C7C00CF0C8C00DF0C9C00EF0CAC0AF
:100300000FF0F9EC0BF007C07DF108C07EF109C0D9
:100310007FF10AC080F153D9060E08C0DBFF070E3B
:1003200009C0DBFF0C6A0D6AC80E15D96AD908C06E
:1003300014F009C015F008C0E6FF09C0E6FF5AD95D
:10034000CBC007F0CCC008F0CDC009F0CEC00AF099
:1003500058D908C016F009C017F008C0E6FF09C058
:10036000E6FFA6EC09F0E552E552E552E552BFD8AA
:10037000100E0D6E270E0E6EA5D80001646FB7D853
:10038000E80E0D6E030E0E6E9DD80001656FAFD89E
:10039000640E0D6E0E6A96D80001666FA8D80A0E1C
:1003A0000D6E0E6A8FD80001676FA1D80A0E0D6E10
:1003B0000E6A14C008F015C009F004D90001686F76
:1003C0002C0E696F0D0E6A6F0C6A0D6A200EC3D871
:1003D00088D8DBCF01F1090EDBCF02F1080EDBCFAD
:1003E00008F0090EDBCF09F0E3EC0BF007C0CFF00B
:1003F00008C0D0F009C0D1F00AC0D2F097EC10F0DC
:1004000006C014F007C015F008C016F009C017F0B8
:1004100006C007F0E8D86DEC0DF0DDD8DBCF14F0A6
:10042000090EDBCF15F00C0E0F0B05E0D89015323E
:100430001432E806FBE1050E1502F3CF15F01402A5
:10044000F3CF14F0F4501526F3CF08F015C009F0DF
:10045000E3EC0BF073D865D80C6A0D6A200E0E6EB3
:10046000400E85D8F8EC0BF0A1D80C6A0D6A700E1E
:100470000E6E410E0F6EE2EC0CF00E0E07C0DBFFAD
:100480000F0E08C0DBFF100E09C0DBFF110E0AC003
:10049000DBFF0E0EDBCF18F00F0EDBCF19F0100EC6
:1004A000DBCF1AF0110EDBCF1BF00C6A0D6A200EA9
:1004B0000E6E420E5CD815D8DBCF03F1090EDBCFF0
:1004C00004F14CD614C008F015C009F091EC12F0FC
:1004D00008C014F009C015F00A0E0D6E0E6AE2EFA6
:1004E00002F0F9EC0BF062D86AD8EBEF02F0060EDE
:1004F000DBCF14F0070EDBCF15F012000A0EDBCFB6
:1005000014F00B0EDBCF15F00C0EDBCF16F00D0E3A
:10051000DBCF17F00C6A0D6A120014C007F0F3EF7E
:1005200002F00A0EDBCF18F00B0EDBCF19F00C0E29
:10053000DBCF1AF00D0EDBCF1BF012000A0E07C046
:10054000DBFF0B0E08C0DBFF0C0E09C0DBFF0D0E3E
:100550000AC0DBFF12000E6E420E0F6E7DC107F067
:100560007EC108F07FC109F080C10AF012000F6E51
:1005700018C007F019C008F01AC009F01BC00AF033
:1005800012000A0EDB6A0B0EDB6A0C0EDB6A0D0E24
:10059000DB6A120064EC09F0E552E552E552E552DF
:1005A0001200E66E7AEC12F0E552120007C014F069
:1005B00008C015F009C016F00AC017F012001AD8CA
:1005C00001EF03F091EC12F004C014F005C015F037
:1005D000300E04241200080E08C0DBFF090E09C00B
:1005E000DBFF080E120015C008F016C009F017C096
:1005F0000AF012000C6A0D6AC80E0E6E420E0F6EE3
:0A0600001200E2EC0CF06DEF0DF0BB
:06060A00040010260000B0
:10061000000E0000400000000626000078010000E7
:100620000A000000C2250000000100004400000094
:0C0630008A250000C30000003800000014
:04063C0064EC08F072
:10064000DE6ADD6A020EDB68030EDB68FB0EDBCFC1
:1006500014F0DB06FC0EDBCF15F001E2DB061450D4
:10066000151030E0020EDBCFE6FFFD0EDBCFE9FF19
:10067000DB2AFE0EDBCFEAFF01E3DB2AEF50E55277
:10068000E718E66ED950040FE5EC07F0030EDBCF58
:10069000E6FF68EC08F01C0EF6261F0EF722080095
:1006A000F550E552E718E76E020EE7CFDBFF68EC86
:1006B00008F01C0EF626200EF7220800030EF5CFD8
:1006C000DBFFC4D7020EDB50146A14C0DEFFDD6E00
:1006D000030EDB50DE26000EDD22020EDBCF42F1E0
:1006E000030EDBCF43F1EDEC07F0060EE15C02E216
:1006F000E16AE552C6EF07F00001C151E66EE66A15
:10070000640EE66E000EE66EE3EC11F0BDEF08F04D
:1007100084EC08F00C0EE1260B0EC6EC08F0DB5062
:10072000F80BE842E842E842E76E020EE7CFDBFF53
:10073000030EDB50070B02E0020EDB2A080EDB6A19
:10074000020EDB50F36E080E46EC08F049E2080E8C
:10075000DB50030FE76E060EE7CFDBFFF6EC07F08A
:10076000EF6A070EDB6A080EF36E070E46EC08F020
:1007700031E2D950090F4BEC08F0D4D9BDEC08F0A8
:10078000090EDBCF16F00A0EDBCF17F0070EDB5099
:1007900016C014F017C015F005E0D89014361536C1
:1007A000E804FBE1060EF6EC07F01450EF12010E20
:1007B000DB2A030EDB50DF24F36E010E46EC08F05B
:1007C00006E3010EF36E0B0EF3CFDBFF03D0070E33
:1007D000DB2AC9D70B0EDB0403E0080EDB2AB0D7F7
:1007E0005FC164F00001010E656F020EDBCF66F0A1
:1007F000030E146E020EDBCFE7FF1450E726020E45
:10080000E7CFDBFFDBCFE6FF9DEC08F0020EC2EC8A
:1008100008F0020EDB2ACCEC08F0E3EC08F0020E44
:10082000C2EC08F0020EDB280001C16F65DF0C0E80
:10083000E15C02E2E16AE552A9D384EC08F00A0E19
:10084000E126080EDB6A090EDB6A26EC08F0040ECE
:1008500079C0DBFFDB50020D050EF3CFDBFF060E88
:10086000DB6A070EDB6A060EDBCF14F0070EDBCF68
:1008700015F0050EDB50166E176AE850145C175021
:10088000155822E2D950080F4BEC08F0F3D9BDEC13
:1008900008F0080E090EE0DB030EBFDBFF0EE76E6B
:1008A000080EDBCF14F0090EE3EC08F0040EB5DB04
:1008B000D950060FE96EDACFEAFF020EEE26000EDF
:1008C000ED22010EDB2ACFD75FC164F00001030ED9
:1008D000656F050EDBCF66F0030E146E050EDBCFE1
:1008E000E7FF1450E726050EE7CFDBFFDBCFE6FF7F
:1008F000E7EC08F0020EF3CFDBFF030EF4CFDBFFD3
:10090000020E030EA9DB050EC2EC08F0050EDB2A71
:10091000FF0EE76E020EDBCF14F0030EE3EC08F0DF
:10092000050EC2EC08F0050EDB280001C16FE4DE05
:100930000A0EE15C02E2E16AE55228D3C5DB86DB00
:10094000040E78C0DBFFDB50FF0806E1010EF36EFA
:10095000020EF3CFDBFF05D0040EDB5004E1020EE4
:10096000DB6A030EDB6A020EDBCFE6FF030ED3EC7D
:1009700008F02CD9BDEC08F0050EDB6A0001C2516D
:10098000F36E050E83DB0BE2050EDB506FDB050E0D
:100990002DDBE552E750EF6E050EDB2AEFD7C2C024
:1009A000C1F0AADE060EE15C02E2E16AE552EED297
:1009B000ABDB070EE1264ADB0001F3507925E66E3A
:1009C000D950050F02DB050EDBCFE6FF060E4ADB32
:1009D0005FC164F00001060E67DB04E0E8427F0BB4
:1009E000E706FCE10001666FDFCF67F078C068F0D2
:1009F00079C069F0060EF36E020EF3CFDBFF060E30
:100A0000E66EE5DB030EF3CFDBFF040EF4CFDBFF76
:100A1000030EDBCF14F0040E1FDB14C06AF0FF0ED0
:100A2000E76E030EDBCF14F0040EDBCF15F026DBF0
:100A3000070EE15C02E2E16AE552A8D265DB0D0E29
:100A4000E126090EDB6A0A0EDB6A0B0EDB6A0C0E6E
:100A50009DDB020E7AC0DBFF080EDB6A030EDB5063
:100A6000F36E080E13DB2FE2080EDB50E824070FAD
:100A7000FDDAD950090FA9DA080EDB50E824080F77
:100A8000F5DAD9500B0FA1DA090EDBCF16F00A0EFA
:100A900016C017F0166A0B0EDB501624146E0C0EDF
:100AA000DB501720156E060E14C0DBFF070E15C0B5
:100AB000DBFF060EDBCFE6FF070ED4DA080EDB2ADB
:100AC000010EDB2ACBD70001745126E05FC164F030
:100AD0000001100EE9DA04E0E8427F0BE706FCE1D2
:100AE0000001666FDFCF67F0080E146E030EDB5057
:100AF00014C0E7FFE75204E0E8427F0BE706FCE1A1
:100B00000001686F030EDBCF69F0060EE66E15DBA1
:100B100014C06AF041DBB2DA0D0EE15C02E2E16A78
:100B2000E55234D23DDA0F0E081801E1095049E0D0
:100B30000E0E081801E1095044E00D0E081801E1FD
:100B400009503FE00C0E081801E109503AE00B0E85
:100B5000081801E1095035E00A0E081801E10950B2
:100B600030E0090E081801E109502BE0080E0818C2
:100B700001E1095026E0070E081801E1095021E0C3
:100B8000060E081801E109501CE0050E081801E1E5
:100B9000095017E0040E081801E1095012E0030E95
:100BA000081801E109500DE0020E081801E1095092
:100BB00008E0010E081801E1095003E0085001E1C6
:100BC0000950F8DA02E2E16AE552E0D1E9D9110E02
:100BD000081801E1095049E0100E081801E1095018
:100BE00044E00F0E081801E109503FE00E0E08180E
:100BF00001E109503AE00D0E081801E1095035E015
:100C00000C0E081801E1095030E00B0E081801E144
:100C100009502BE00A0E081801E1095026E0070EE2
:100C2000081801E1095021E0060E081801E10950F9
:100C30001CE0050E081801E1095017E0040E081821
:100C400001E1095012E0030E081801E109500DE01E
:100C5000020E081801E1095008E0010E081801E130
:100C6000095003E0085001E10950A4DA02E2E16A08
:100C7000E5528CD1CDDAFF0EE76EFD0EDBCF14F01E
:100C8000A2DABFDADCD9010ED890E936EA36E806F6
:100C9000FBE1010EE926010EEA22EECF14F0EFCFC0
:100CA00015F0FB0EDBCFE9FFFC0EDBCFEAFF14C033
:100CB000EEFF15C0EDFF7EDA02E2E16AE55266D191
:100CC00023DA080EE126DE6ADD6AFB0EDBCF08F0D0
:100CD000FC0EDBCF09F0E3EC0BF0040E07C0DBFFEA
:100CE000050E08C0DBFF060E09C0DBFF070E0AC0B9
:100CF000DBFF2EDA010145515FE10101350E416F45
:100D00006CDA040E0F0B05E0D89015321432E806A9
:100D1000FBE1010E14240101466FE850040A3EE095
:100D2000070A2EE0010A0FE0030A5AE1040EDBCFA6
:100D30004BF1050EDBCF4CF1060EDBCF4DF1070E6C
:100D4000DBCF4EF14DD035D94BE1155049E107DAF3
:100D50000D6A7A0E0E6E450EDCD90A0E0C6ED70E99
:100D60000D6E230E0E6E3C0E0F6EE2EC0CF007C003
:100D700047F108C048F109C049F10AC04AF130D032
:100D800018D92EE115502CE1F1D807C04FF108C059
:100D900050F109C051F10AC052F122D00AD920E124
:100DA00015501EE1E3D807C053F108C054F109C043
:100DB00055F10AC056F114D00101350E416F3FD9EB
:100DC000010ED890E936EA36E806FBE1210EE92665
:100DD000010EEA22FB0EDBCFEEFFFC0EDBCFEDFFB8
:100DE000FCD8080EE15C02E2E16AE552CFD010DAED
:100DF000DECF14F0DDCF15F0FD0EDBCF16F0FE0ECA
:100E0000DBCF17F01650145C1750155815E2020E80
:100E1000DB6A030EDB6AE8D90A0E145C000E155873
:100E200006E2020EDB2A030EF6E3DB2AF4D7DF2A02
:100E3000010EDEE3DB2ADCD7040EE15C02E2E16AAC
:100E4000E552A4D061D9040EE1260101010E5F6FC5
:100E50000001C251040801E383D000017551100A5A
:100E60004DE01F0A3EE00E0A06E0020A04E0060A10
:100E700002E0030A75E1080E0001C25D71E39D9A6C
:100E8000F29E2DD92AE10A0EE66EE66AB0DFE5523F
:100E9000E552060EE66EE66AAED900017A5101010E
:100EA000425D1AE100017B510101435D15E18B7C3C
:100EB0000001750502E12CDC10D0030E755D02E126
:100EC000BCDC0BD0050E755D02E138DD06D0060EE8
:100ED000755D03E16DDD01D08B960001C26BF28E72
:100EE0003ED07A51E66ED950020F6FD886D838E3DB
:100EF000F6D801E1FED80001C26B32D07851000E65
:100F0000F3507925E66ED950020F5FD8020E086EB5
:100F1000096ADBCF0DF0030EDBCF0EF04FEC0DF0C6
:100F2000020E06C0DBFF030E07C0DBFF66D818E326
:100F30009D9AD5D802E0745110E1DBD880D8020E1A
:100F4000E95EBAD80101425D08E179D8E906B4D872
:100F5000435D03E174C045F171DD0001C26B9D8A00
:100F6000040EE15C02E2E16AE55210D0F8D8400ECE
:100F70000D6E1C0E0E6E460ECCD8CD0E0C6ECC0E29
:100F80000D6E0E6E3D0E0F6EE2EF0CF0E16EE5524F
:100F9000E7CFD9FF1200E66E1EEC03F0BDEF08F0BC
:100FA00037D9D6D8020EDBCF08F0030EDBCF09F01D
:100FB000120013D90001156A0F0E1416010E142623
:100FC000000E1522010E14181200E96EDACFEAFFA6
:100FD000E552E750EE6EED6A1200DECF14F0DDCF81
:100FE00015F014C0F3FF15C0F4FF1200DB50EA6ADD
:100FF000640FE96E000EEA221200D950020FE96E6A
:10100000DACFEAFF090EEE26000EED22EDD8000140
:101010001450C25D000E15541200E76E060EDBCFB1
:10102000E9FF070EDBCFEAFFE750E926000EEA22D0
:10103000640EE926000EEA2214C0EFFF1200020E31
:10104000DBCFE9FF030EDBCFEAFF120077C0DFFF43
:10105000010EDFCFDBFF1200DBCF15F015C014F05F
:10106000156A1200A0D82CDEBDEF08F0EA6A740FF2
:10107000E96E000EEA22EF50E66E1200A4D814C00A
:101080006BF00001080EC16F7CEF03F0DBCFF4FFC3
:10109000F350F45C1200E66E000EDA20E66E010EEC
:1010A000DBCFE6FFE66A1200656F080E146EDF50B4
:1010B00014C0E7FFE7521200000EEA5A740EE92648
:1010C000000EEA22EF5012001FD8060EE126120091
:1010D000040EDBCFF6FF050EDBCFF7FF1200010198
:1010E0005F510001745D1200F3CFDEFFF4CFDDFF2E
:1010F00012007AD8020E145E000E155A14C0E6FFD4
:1011000015C0E6FFFBEF08F0D9CFE6FFE1CFD9FF2E
:1011100012000F6E18C007F019C008F01AC009F0CD
:101120001BC00AF0F8EC0BF007C014F008C015F073
:1011300009C016F00AC017F0120049D8040EF3CF08
:10114000DBFF050EF4CFDBFF040E050E2CEF08F0DD
:1011500044D8FF0E14160F0E151601EF09F0040EF9
:10116000DBCF18F0050EDBCF19F0060EDBCF1AF03F
:10117000070EDBCF1BF00C6A1200E552E552E55278
:10118000E552120033DF14C0EFFF1200DB6A5EDFAE
:10119000030E79C0DBFF1200FF0EE76E040EDBCFFB
:1011A00014F0050E1200DBCFE6FF010EDBCFE6FFE9
:1011B000E66A120012DF040EE15C1200040EE12662
:1011C000DE6ADD6A1200E7501416156A1200E66A3C
:1011D000640EE66E000ECBEF07F0FD0EDBCF14F0D1
:1011E000FE0EDBCF15F01200020EDBCF14F0030E63
:1011F000DBCF15F01200740EE66E000ECCDE74EF3D
:1012000008F0020E14C0DBFF030E15C0DBFF120056
:061210007BDFDEEF08F0B9
:0A121600FC0ECF6E180ECE6ECF0E48
:10122000CD141009CD6ECD823F0ECD140009CD6EC8
:101230009D8012000101606B616B646B656B686B74
:10124000696B62C060F063C061F06251631113E0CA
:10125000626B636B010E606F616B0001C05100082F
:101260000AE2C007C05107E10001C251000803E2D1
:10127000C26B0001BF6B01016A516B1105E06A6B23
:101280006B6B010E686F696B665167110FE0666BDF
:10129000676B010E646F656B6C2B000E6D23140E73
:1012A0006C5D000E6D5902E36C6B6D6B12009494D3
:1012B0000F010C0E506F996AA394A4944C0ECA6E41
:1012C000C70ECB6E516B1200D9CFE6FFE1CFD9FF2D
:1012D000040E2BDAFB0EDBCF14F0FC0EDBCF15F087
:1012E000FD0EDBCF16F0FE0EDBCF17F00A0E0C6EF4
:1012F000D70E0D6E230E0E6E3C0E5FDAEFD90C6A20
:101300000D6A480E0E6E440E58DAD4D9D8901532B4
:101310001432D8901532143214C051FFCBD9030EB9
:101320001416000E1516040ED89014361536E8045F
:10133000FBE114500F015013040EE15C02E2E16A7C
:10134000E552E16EE552E7CFD9FF1200D9CFE6FFB3
:10135000E1CFD9FF120EE9D9040EDB6A050EDB6A74
:10136000060EDB6A070EDB6A080EDB6A090EDB6A13
:101370000A0EDB6A0B0EDB6A0C0EDB6A0D0EDB6AF3
:101380000E0EDB6A0F0EDB6A100EDB6A110EDB6AD3
:10139000FB0EDBCF08F0FC0EDBCF09F0E3EC0BF02B
:1013A000040E07C0DBFF050E08C0DBFF060E09C0F8
:1013B000DBFF070E0AC0DBFFFD0EDBCF08F0FE0EE1
:1013C000DBCF09F0E3EC0BF063D9EBC0EFF0ECC03E
:1013D000F0F0EDC0F1F0EEC0F2F0E7C0EBF0E8C0E5
:1013E000ECF0E9C0EDF0EAC0EEF078D9040EDBCF06
:1013F00018F0050EDBCF19F0060EDBCF1AF0070E42
:10140000ABD907C0E7F008C0E8F009C0E9F00AC0AE
:10141000EAF099D9D7C007F0D8C008F0D9C009F0D0
:10142000DAC00AF0E2EC0CF06FD9EBC00CF0ECC0C3
:101430000DF0EDC00EF0EEC00FF0DBC007F0DCC029
:1014400008F0DDC009F0DEC00AF0E2EC0CF091D942
:1014500042D9F8EC0BF013D9EFC00CF0F0C00DF04E
:10146000F1C00EF0F2C00FF0DFC007F0E0C008F0EE
:10147000E1C009F0E2C00AF0E2EC0CF083D963D9D4
:10148000F5D8F9EC0BF007C0F3F008C0F4F009C090
:10149000F5F00AC0F6F0E0D8F9EC0BF02CD9E3C077
:1014A00008F0E4C009F0E5EC0BF0E9D8D5D89CECE5
:1014B0000DF0010A05E1E3C008F0E4C009F00BD02B
:1014C0003CD9DDD8C9D8A5EC0DF0010A07E1E5C08B
:1014D00008F0E6C009F0E5EC0BF00DD92ED949D99A
:1014E000BBD8F8EC0BF010D90001E551E35D246E98
:1014F000E451E655256E24C008F0096EE5EC0BF0CA
:1015000041D9E9D88FEC0CF0BAD807D90C0E07C036
:10151000DBFF0D0E08C0DBFF0E0E09C0DBFF0F0E58
:101520000AC0DBFF146A156AC80E166E420E176EEB
:101530000C0EDBCF18F00D0EDBCF19F00E0EDBCF4B
:101540001AF00F0E09D9080E07C0DBFF090E08C0FC
:10155000DBFF0A0E09C0DBFF0B0E0AC0DBFFD95010
:10156000080FE96EDACFEAFFEECFE6FFEECFE6FF37
:10157000EECFE6FFEFCFE6FFA7DEE552E552E552FC
:10158000E552186A196AC80E1A6E420E1B6E080ED2
:10159000DBCF1CF0090EDBCF1DF00A0EDBCF1EF0F7
:1015A0000B0EDBCF1FF01CC00CF01DC00DF01EC0D9
:1015B0000EF01FC00FF0F8D8F8EC0BF060D8ADD8E3
:1015C0006DEC0DF0100E08C0DBFF110E09C0DBFF43
:1015D0006AD8100E0D6E270E0E6E2FD80001646FA4
:1015E00062D8E80E0D6E030E0E6E27D80001656FEF
:1015F0005AD8640E0D6E0E6A20D80001666F53D85B
:101600000A0E0D6E0E6A19D80001676F4CD80A0ECB
:101610000D6E0E6A14C008F015C009F0BCD80001A8
:10162000686F3B0E696F120EE15C02E2E16AE552FF
:10163000E16EE552E7CFD9FF120014C008F015C0E3
:1016400009F091EC12F008C014F009C015F00A0E70
:101650000D6E0E6ACBEF0BF076D8F7C007F0F8C02E
:1016600008F0F9C009F0FAC00AF0120014C007F03F
:1016700015C008F016C009F017C00AF0120007C024
:1016800014F008C015F009C016F00AC017F01200D7
:1016900007C0DEFF08C0DEFF09C0DEFF0AC0DDFFB5
:1016A000DD52DD521200100EDBCF14F0110EDBCF35
:1016B00015F01200DECF07F0DECF08F0DECF09F024
:1016C000DDCF0AF0DD52DD526DEC0DF008C014F0F4
:1016D00009C015F0120037D8D4EF0BF0D9CFE9FFCD
:1016E000DACFEAFFEECF14F0EECF15F0EECF16F022
:1016F000EFCF17F0120007C0F7F008C0F8F009C0EC
:10170000F9F00AC0FAF0120007C018F008C019F08A
:1017100009C01AF00AC01BF012000C6A0D6AC80E4C
:101720000E6E420E0F6EE2EF0CF0E126DE6ADE6A0C
:10173000DE6ADD6ADD52DD521200E5C008F0E6C067
:1017400009F0E5EF0BF007C00CF008C00DF009C080
:101750000EF00AC00FF01200DBCF1BF018C00CF027
:1017600019C00DF01AC00EF01BC00FF07FDFF8EFAC
:101770000BF007C01CF008C01DF009C01EF00AC025
:101780001FF0120007C020F008C021F009C022F0AD
:101790000AC023F0120091EC12F004C014F005C04E
:1017A00015F0300E0424120018C007F019C008F01C
:1017B0001AC009F01BC00AF012000F6E57DFE2ECEE
:0617C0000CF048EF0BF0F5
:0A17C600019E08D0019E09AE05D077
:1017D000086C091EE86A0922018E09C003F008C0DE
:1017E00002F0136A126A8E0E046E056A1FEF0EF085
:1017F0000F7E016A5BEC0EF073EC0EF001B603EFA6
:101800000EF001A20AD001AA03D001BE03EF0EF030
:1018100001A40FEF0EF00CEF0EF001AA05D001AC01
:101820000FEF0EF00CEF0EF001A00AD001A808D0C7
:1018300001BE04D001A402D018EF0EF01CEF0EF090
:10184000126A056A0F500A5C116E10E307C013F0AC
:1018500008C002F009C003F00AC010F00CC007F085
:101860000DC008F00EC009F0013A09D00CC013F009
:101870000DC002F00EC003F00FC010F0116C019EFD
:1018800001BC018E10C004F001B04BEF0EF01A0E37
:1018900011604BEF0EF0046A0A6A01A408D0076CCD
:1018A000081E091E0A1EE86A082209220A2201AC43
:1018B00008D0136C021E031E041EE86A02220322D3
:1018C0000422066A115207E00A340932083207324C
:1018D0000632112EF9D7075013260850022209505C
:1018E00003220A50042206C012F0019E04AE0BD05F
:1018F000126C131E021E031E041EE86A132202222B
:1019000003220422018E04A006D0D88003320232C2
:1019100013321232102A10C004F01FEF0EF0016AC9
:101920005BEC0EF073EC0EF001B603EF0EF001A2CB
:1019300005D001BA03EF0EF00AEF0EF001BA16EF70
:101940000EF001A005D001B803EF0EF016EF0EF077
:1019500001B80AEF0EF0056A7F0E0A24046EE86AE9
:1019600005220F50045EE86A055A1A0E106E0A6AC4
:10197000126A136A026A036A0C50075E0D50085A15
:101980000E50095A000E0A5A09E70C5007260D504E
:1019900008220E500922000E0A2201D0128AD89085
:1019A0000736083609360A36D8901236133602360C
:1019B0000336102EE1D7095008100710D8A4128A58
:1019C0001FEF0EF0016A5BEC0EF073EC0EF001B647
:1019D00003EF0EF001A205D001B803EF0EF00AEFFD
:1019E0000EF001AA05D001B003EF0EF00AEF0EF0E1
:1019F00001B002D001A802D016EF0EF0056A0F5018
:101A00000A24046EE86A05227E0E045EE86A055A1E
:101A1000126A136A026A036A0E500902F4CF03F0D5
:101A2000F3CF02F00D500902F3501326F4500222B6
:101A3000000E03220E500802F3501326F450022227
:101A4000000E03220C500902F3501226F450132208
:101A5000000E022203220D500802F3501226F45009
:101A60001322000E022203220E500702F350122608
:101A7000F4501322000E022203220C500802F450EC
:101A80001226000E1322022203220D500702F450E8
:101A90001226000E1322022203221FEF0EF008C0AE
:101AA00012F008500D02F4CF07F0F3CF06F0095002
:101AB0000E02F4CF09F0F3CF08F00D02F350072621
:101AC000F4500822E86A092212500E02F350072649
:101AD000F4500822E86A0922000C016A5BEC0EF05F
:101AE00001B677EF0DF001A20ED001B405D07F0E44
:101AF000096EFF0E086E1FD0800E096E086A1BD09B
:101B0000096A086A18D001B0FBD78F0E0A60EDD7BA
:101B10007E0E0A64F5D78E0E0A5C05E0D890093275
:101B200008320A2AF8D701A406D0086C091EE86A10
:101B3000092209AEE5D71200AEEC0DF001B6000C9B
:101B400001B0000C01B4000C010CAEEC0DF001B6BC
:101B5000000C01B0000C01A4000C010C016A5BEC4C
:101B60000EF073EC0EF001B6120001AE08D001A029
:101B700004D001A802D001801200019012000F5081
:101B80000A5C0BE10E50095C08E10D50085C05E1B0
:101B90000C50075C02E101801200D8A002D0018E37
:101BA00010D00A500FC00AF00F6E09500EC009F095
:101BB0000E6E08500DC008F00D6E07500CC007F0F7
:101BC0000C6E0F500A5C10E0FF0F09E0019001B4A9
:101BD00003D001AE0184120001AE019412000F2A5D
:101BE000D8900E320D320C320C50075E0D50085A50
:101BF0000E50095A09BEEAD7D8900736083609367A
:101C00000A2EF8D7C8D77F0E0A6EFF0E096E086E2F
:101C1000076E12007F0E01BEFF0E0A6E02D07F0E0D
:101C20000A6E800E096E086A076AF3D701AE04D007
:101C3000800E0A6E096AF7D70A6A096AF4D7035058
:101C4000021013101210F8E005BEF0D703BE0CD03E
:101C500004500510EBE0D8901236133602360336E6
:101C60000406D8A00506F2D70550D4E10428D2E036
:101C700012AE11D07F0E121402E113A00CD0132A61
:101C8000E86A0222032207E3D880033202321332C9
:101C9000042A0428BFE00450C9E013C007F002C0C2
:101CA00008F00334096E04300A6E09320A9E01BE40
:101CB0000A8E09EF0EF009360A3602E30184017E2E
:101CC00006E101800A6A096A086A076A12000A289E
:101CD00003E0D88009321200D890093202E1018273
:101CE0001200018612000E360F3602E3018C017ECF
:101CF00006E101880F6A0E6A0D6A0C6A12000F284D
:101D000003E0D8800E321200D8900E32EAE1018A48
:021D10001200BF
:0E1D1200180E9412280EC66EC56A0B0EC86E0F
:101D200012001F0EC514FDE1C750040BFAE11200AA
:101D3000C5801200C5821200C5841200C59AC588EC
:101D40001200C58AC58812009EA6FED79E96120074
:101D5000C586C7A0FED7C9501200D8D8FE0EDB50EA
:101D6000C96EC6AE02D0000E01D0010EE552E7CF1B
:101D7000D9FF120089D8900EBFD8C5BCFED7E4DFCA
:101D8000FC0EDBCFE6FFE9DFE552C5BCFED7DCDFAA
:101D900094D802E2E16AE5528BD0B0D8C5BCFED738
:101DA0009AD8C5BCFED7D0DFFC0EDB500EE098D829
:101DB000EF50A2D8C5BCFED7C7DFFA0EDB2AFB0E58
:101DC00001E3DB2AFC0EDB06EFD777D802E2E16AFB
:101DD000E5526ED09BD8060EE12694D8910E8CD891
:101DE000C5BCFED784D8040F6DD8A8DF80D8020FF9
:101DF00069D8040EDBCF16F0050EDBCF17F016C046
:101E000017F0166A020EDB501624146E030EDB5018
:101E10001720156E14C0DEFFDD6E93DF95DF8CDFBB
:101E200093DFDECF14F0DDCF15F014C0F3FF15C043
:101E3000F4FF060EE15C02E2E16AE55239D05ED8B9
:101E4000C5BCFED748D8C5BCFED77EDF73DF7CDFBC
:101E5000FC0EDB5014E07CDFE66E42D8E552E75022
:101E6000EF6E72DFFA0EDB2AFB0E01E3DB2AFC0EBB
:101E7000DB06DB5002E165DFEAD760DFE8D71DD87B
:101E800002E2E16AE55214D041D8020EE126FE0ECC
:101E9000DBCF15F015C014F0156A1F0E1414DF6E99
:101EA000FD0EDB50E76E010EE7CFDBFF82EF0FF098
:101EB000E16EE552E7CFD9FF12003EDF45DF020EAB
:101EC000E15C1200E96EDACFEAFFE552E750EE6E10
:101ED000ED6AA4EF0EF038DF010EDBCFE6FF1BD07A
:101EE000FA0EDBCFE9FFFB0EDBCFEAFF12002CDF9F
:101EF0002FDFE66ED9501200E66E0DD0C5DFDFCFC2
:101F0000E6FF09D00EDF14DFA4EF0EF0D9CFE6FF15
:0C1F1000E1CFD9FF120021DFE5521200E2
:041F1C0000C181403F
:101F200001C0804101C0804100C1814001C08041A9
:101F300000C1814000C1814001C0804101C0804199
:101F400000C1814000C1814001C0804100C1814089
:101F500001C0804101C0804100C1814001C0804179
:101F600000C1814000C1814001C0804100C1814069
:101F700001C0804101C0804100C1814000C1814059
:101F800001C0804101C0804100C1814001C0804149
:101F900000C1814000C1814001C0804101C0804139
:101FA00000C1814000C1814001C0804100C1814029
:101FB00001C0804101C0804100C1814000C1814019
:101FC00001C0804101C0804100C1814001C0804109
:101FD00000C1814000C1814001C0804100C18140F9
:101FE00001C0804101C0804100C1814001C08041E9
:101FF00000C1814000C1814001C0804101C08041D9
:1020000000C1814000C1814001C0804100C18140C8
:1020100001C0804101C0804100C1814000C0C101B8
:10202000C30302C2C60607C705C5C404CC0C0DCD48
:102030000FCFCE0E0ACACB0BC90908C8D81819D9B8
:102040001BDBDA1A1EDEDF1FDD1D1CDC14D4D515E8
:10205000D71716D6D21213D311D1D010F03031F1D8
:1020600033F3F23236F6F737F53534F43CFCFD3D08
:10207000FF3F3EFEFA3A3BFB39F9F83828E8E929F8
:10208000EB2B2AEAEE2E2FEF2DEDEC2CE42425E5A8
:1020900027E7E62622E2E323E12120E0A06061A118
:1020A00063A3A26266A6A767A56564A46CACAD6DC8
:1020B000AF6F6EAEAA6A6BAB69A9A86878B8B97938
:1020C000BB7B7ABABE7E7FBF7DBDBC7CB47475B568
:1020D00077B7B67672B2B373B17170B05090915158
:1020E0009353529296565797559594549C5C5D9D88
:1020F0005F9F9E5E5A9A9B5B995958988848498978
:102100004B8B8A4A4E8E8F4F8D4D4C8C4484854527
:0C2110008747468682424383418180401D
:04211C00290EC26E58
:102120000F015D6B040E5C6FBF0EC06E1200D9CF45
:10213000E6FFE1CFD9FF160EE126100EDB6A110E85
:10214000DB6A120EDB6AC2B2FED7C450E66ED9500B
:10215000140FE96EDACFEAFFE552E750EE6EED6A52
:10216000140EDBCF16F0150E16C017F0166AC3500A
:1021700000011624146E000E1720156E140E14C0E4
:10218000DBFF150E15C0DBFFD9CF14F0DACF15F049
:10219000120E66D8140EDBCFEEFF150EDBCFEDFF6F
:1021A000120EDB50070839E1140EDB6A150EDB6AEC
:1021B000130EDB6A080EF36E130EDBCFF4FFF35041
:1021C000F45C16E2D9CF16F0DACF17F0130E48D828
:1021D000EECF14F0EFCF15F0D950140FE96EDACF2F
:1021E000EAFF1450EE261550ED22130EDB2AE2D73B
:1021F000140EDBCF14F0150EDBCF15F0030ED890C4
:1022000015321432E804FBE1100E14C0DBFF110E8E
:1022100015C0DBFF120EDB6A02D0120EDB2AD9CF0B
:102220001AF0DACF1BF01CD8EECF18F0EFCF19F070
:1022300018C008F019C009F0E3EC0BF007C006F075
:1022400008C007F009C008F00AC009F0160EE15CEA
:1022500002E2E16AE552E16EE552E7CFD9FF1200F2
:10226000DB50020DD950F324E96EDA50F420EA6E07
:0222700012005A
:0E22720085D8020EE126DE6ADD6AFC0EDB5026
:10228000E76EFD0EDBCF14F0FE0EDBCF15F0E7504E
:102290001426000E1522166A3F0E161614C0DEFF15
:1022A00015C0DDFFF86ADECF14F0DDCF15F0000EAB
:1022B0001416FF0E151615C014F0156A1450F76E9B
:1022C000DECF14F0DDCF15F01450F66E020EE15C97
:1022D00002E2E16AE552E16E57D051D8FC0EDBCF45
:1022E000E6FF35D87F8E7F9C7F807FB0FED7F5508C
:1022F0004BD045D8E652DF6AE66A29D87F8E7F9CAC
:102300007F8830D87FB2FED7F28E7F94DF6A400E8E
:10231000DF5C1BE2DFCFE6FF1AD8DF50E76EFB0E73
:10232000DBCFE9FFFC0EDBCFEAFFE750E926000E2A
:10233000EA22EF50F56E7F8E7F9C7F9813D87FB294
:10234000FED7F28E7F94DF2AE2D7E5521DD0FD0E34
:10235000DBCFE6FFFE0EDBCFE6FF8BDFE552E5527B
:10236000E55212007F84F29E550E7E6EAA0E7E6E9E
:102370007F82010EE66E7AEC12F0E5521200D9CFA0
:10238000E6FFE1CFD9FF1200E552E7CFD9FF1200F7
:102390009392948E949C330EAF6EAB8EAC84AC98BB
:1023A000AC8AAB889D8A9D988A821200D9CFE6FFBD
:1023B000E1CFD9FFFE0EDB50AD6EACA2FED7E552E9
:1023C000E7CFD9FF1200D9CFE6FFE1CFD9FF020E48
:1023D000E1268A92DE6ADD6ADECF14F0DDCF15F0E9
:1023E000640E145C000E155805E2DF2A010EF4E3BA
:1023F000DB2AF2D7DE6ADD6ADECF14F0DDCF15F01E
:10240000FB0EDBCF16F0FC0EDBCF17F01650145C82
:102410001750155815E2FD0EDBCF14F0FE0EDBCF82
:1024200015F0DE501424E96EDD501520EA6EEF50F1
:10243000E66EBCDFE552DF2A010EDEE3DB2ADCD7E5
:102440008A82020EE15C02E2E16AE552E16EE55247
:06245000E7CFD9FF1200E6
:0A2456000A0EF66E060EF76E000E79
:10246000F86E01010900F550736F0900F550746FA3
:1024700003E1736701D03DD00900F5506E6F09008C
:10248000F5506F6F0900F550706F09000900F550A5
:10249000E96E0900F550EA6E090009000900F550DF
:1024A000716F0900F550726F09000900F6CF75F1E0
:1024B000F7CF76F1F8CF77F16EC1F6FF6FC1F7FF76
:1024C00070C1F8FF0101715302E1725307E0090086
:1024D000F550EE6E7107F8E27207F9D775C1F6FF95
:1024E00076C1F7FF77C1F8FF01017307000E745B37
:0424F000BFD7120040
:0C24F400FF0EE350276EEF0E01D0F30E38
:10250000E76EE72E81EF12F00C0E266EE76AE72EDB
:1025100087EF12F0262E86EF12F0272E7FEF12F0B3
:022520001200A7
:0E252200056A046A100EE76ED8900836093676
:10253000043605360D50045C0E50055805E30D5069
:0E254000045E0E50055A082AE72EF0D712004E
:02254E00410E3C
:10255000F36E00EE00F00E0E01D81200EA6002D019
:0E256000EE6AFCD7F350E9601200EE6AFCD779
:02256E001DEE60
:1025700000F02DEE00F0F86A019C2BEC12F003EC59
:0A25800000F05BEC00F0FBD7120046
:06258A00665681437BF45C
:1025900091C300004842000000000000000000005D
:1025A00000400000803F00000000E80318FC00002D
:1025B000000000000000000000000000000000001B
:0225C000000019
:0E25C20001000000000000000000000000000A
:1025D00000000000000000000000000000000000FB
:1025E00000000000000000000000000000000000EB
:1025F00000000000000000000000000000000000DB
:06260000000000000000D4
:0A26060000000000000000000000CA
:1026100000000000000000000000000000000000BA
:1026200000000000000000000000000000000000AA
:10263000000000000000000000000000000000009A
:10264000000000000000000000000000000000008A
:020000040030CA
:0100000015EA
:0100010008F6
:010003007C80
:00000001FF
